{
  "contractName": "LipToken",
  "abi": [
    {
      "inputs": [
        {
          "internalType": "string",
          "name": "_name",
          "type": "string"
        },
        {
          "internalType": "string",
          "name": "_symbol",
          "type": "string"
        }
      ],
      "stateMutability": "nonpayable",
      "type": "constructor"
    },
    {
      "anonymous": false,
      "inputs": [
        {
          "indexed": true,
          "internalType": "address",
          "name": "owner",
          "type": "address"
        },
        {
          "indexed": true,
          "internalType": "address",
          "name": "approved",
          "type": "address"
        },
        {
          "indexed": true,
          "internalType": "uint256",
          "name": "tokenId",
          "type": "uint256"
        }
      ],
      "name": "Approval",
      "type": "event"
    },
    {
      "anonymous": false,
      "inputs": [
        {
          "indexed": true,
          "internalType": "address",
          "name": "owner",
          "type": "address"
        },
        {
          "indexed": true,
          "internalType": "address",
          "name": "operator",
          "type": "address"
        },
        {
          "indexed": false,
          "internalType": "bool",
          "name": "approved",
          "type": "bool"
        }
      ],
      "name": "ApprovalForAll",
      "type": "event"
    },
    {
      "anonymous": false,
      "inputs": [
        {
          "indexed": true,
          "internalType": "address",
          "name": "owner",
          "type": "address"
        },
        {
          "indexed": false,
          "internalType": "uint256",
          "name": "id",
          "type": "uint256"
        },
        {
          "indexed": false,
          "internalType": "uint256",
          "name": "dna",
          "type": "uint256"
        }
      ],
      "name": "NewLip",
      "type": "event"
    },
    {
      "anonymous": false,
      "inputs": [
        {
          "indexed": true,
          "internalType": "address",
          "name": "owner",
          "type": "address"
        },
        {
          "indexed": false,
          "internalType": "uint256",
          "name": "id",
          "type": "uint256"
        }
      ],
      "name": "NewTool",
      "type": "event"
    },
    {
      "anonymous": false,
      "inputs": [
        {
          "indexed": true,
          "internalType": "address",
          "name": "previousOwner",
          "type": "address"
        },
        {
          "indexed": true,
          "internalType": "address",
          "name": "newOwner",
          "type": "address"
        }
      ],
      "name": "OwnershipTransferred",
      "type": "event"
    },
    {
      "anonymous": false,
      "inputs": [
        {
          "indexed": true,
          "internalType": "address",
          "name": "from",
          "type": "address"
        },
        {
          "indexed": true,
          "internalType": "address",
          "name": "to",
          "type": "address"
        },
        {
          "indexed": true,
          "internalType": "uint256",
          "name": "tokenId",
          "type": "uint256"
        }
      ],
      "name": "Transfer",
      "type": "event"
    },
    {
      "inputs": [
        {
          "internalType": "address",
          "name": "to",
          "type": "address"
        },
        {
          "internalType": "uint256",
          "name": "tokenId",
          "type": "uint256"
        }
      ],
      "name": "approve",
      "outputs": [],
      "stateMutability": "nonpayable",
      "type": "function"
    },
    {
      "inputs": [
        {
          "internalType": "address",
          "name": "owner",
          "type": "address"
        }
      ],
      "name": "balanceOf",
      "outputs": [
        {
          "internalType": "uint256",
          "name": "",
          "type": "uint256"
        }
      ],
      "stateMutability": "view",
      "type": "function",
      "constant": true
    },
    {
      "inputs": [
        {
          "internalType": "uint256",
          "name": "tokenId",
          "type": "uint256"
        }
      ],
      "name": "getApproved",
      "outputs": [
        {
          "internalType": "address",
          "name": "",
          "type": "address"
        }
      ],
      "stateMutability": "view",
      "type": "function",
      "constant": true
    },
    {
      "inputs": [
        {
          "internalType": "address",
          "name": "owner",
          "type": "address"
        },
        {
          "internalType": "address",
          "name": "operator",
          "type": "address"
        }
      ],
      "name": "isApprovedForAll",
      "outputs": [
        {
          "internalType": "bool",
          "name": "",
          "type": "bool"
        }
      ],
      "stateMutability": "view",
      "type": "function",
      "constant": true
    },
    {
      "inputs": [
        {
          "internalType": "uint256",
          "name": "",
          "type": "uint256"
        }
      ],
      "name": "lips",
      "outputs": [
        {
          "internalType": "string",
          "name": "name",
          "type": "string"
        },
        {
          "internalType": "uint256",
          "name": "id",
          "type": "uint256"
        },
        {
          "internalType": "uint256",
          "name": "dna",
          "type": "uint256"
        },
        {
          "internalType": "uint8",
          "name": "level",
          "type": "uint8"
        },
        {
          "internalType": "uint8",
          "name": "rarity",
          "type": "uint8"
        },
        {
          "internalType": "uint8",
          "name": "ableToLevel",
          "type": "uint8"
        }
      ],
      "stateMutability": "view",
      "type": "function",
      "constant": true
    },
    {
      "inputs": [],
      "name": "name",
      "outputs": [
        {
          "internalType": "string",
          "name": "",
          "type": "string"
        }
      ],
      "stateMutability": "view",
      "type": "function",
      "constant": true
    },
    {
      "inputs": [],
      "name": "owner",
      "outputs": [
        {
          "internalType": "address",
          "name": "",
          "type": "address"
        }
      ],
      "stateMutability": "view",
      "type": "function",
      "constant": true
    },
    {
      "inputs": [
        {
          "internalType": "uint256",
          "name": "tokenId",
          "type": "uint256"
        }
      ],
      "name": "ownerOf",
      "outputs": [
        {
          "internalType": "address",
          "name": "",
          "type": "address"
        }
      ],
      "stateMutability": "view",
      "type": "function",
      "constant": true
    },
    {
      "inputs": [],
      "name": "renounceOwnership",
      "outputs": [],
      "stateMutability": "nonpayable",
      "type": "function"
    },
    {
      "inputs": [
        {
          "internalType": "address",
          "name": "from",
          "type": "address"
        },
        {
          "internalType": "address",
          "name": "to",
          "type": "address"
        },
        {
          "internalType": "uint256",
          "name": "tokenId",
          "type": "uint256"
        }
      ],
      "name": "safeTransferFrom",
      "outputs": [],
      "stateMutability": "nonpayable",
      "type": "function"
    },
    {
      "inputs": [
        {
          "internalType": "address",
          "name": "from",
          "type": "address"
        },
        {
          "internalType": "address",
          "name": "to",
          "type": "address"
        },
        {
          "internalType": "uint256",
          "name": "tokenId",
          "type": "uint256"
        },
        {
          "internalType": "bytes",
          "name": "data",
          "type": "bytes"
        }
      ],
      "name": "safeTransferFrom",
      "outputs": [],
      "stateMutability": "nonpayable",
      "type": "function"
    },
    {
      "inputs": [
        {
          "internalType": "address",
          "name": "operator",
          "type": "address"
        },
        {
          "internalType": "bool",
          "name": "approved",
          "type": "bool"
        }
      ],
      "name": "setApprovalForAll",
      "outputs": [],
      "stateMutability": "nonpayable",
      "type": "function"
    },
    {
      "inputs": [
        {
          "internalType": "bytes4",
          "name": "interfaceId",
          "type": "bytes4"
        }
      ],
      "name": "supportsInterface",
      "outputs": [
        {
          "internalType": "bool",
          "name": "",
          "type": "bool"
        }
      ],
      "stateMutability": "view",
      "type": "function",
      "constant": true
    },
    {
      "inputs": [],
      "name": "symbol",
      "outputs": [
        {
          "internalType": "string",
          "name": "",
          "type": "string"
        }
      ],
      "stateMutability": "view",
      "type": "function",
      "constant": true
    },
    {
      "inputs": [
        {
          "internalType": "uint256",
          "name": "tokenId",
          "type": "uint256"
        }
      ],
      "name": "tokenURI",
      "outputs": [
        {
          "internalType": "string",
          "name": "",
          "type": "string"
        }
      ],
      "stateMutability": "view",
      "type": "function",
      "constant": true
    },
    {
      "inputs": [
        {
          "internalType": "uint256",
          "name": "",
          "type": "uint256"
        }
      ],
      "name": "toolType",
      "outputs": [
        {
          "internalType": "string",
          "name": "",
          "type": "string"
        }
      ],
      "stateMutability": "view",
      "type": "function",
      "constant": true
    },
    {
      "inputs": [
        {
          "internalType": "uint256",
          "name": "",
          "type": "uint256"
        }
      ],
      "name": "tools",
      "outputs": [
        {
          "internalType": "string",
          "name": "typeOfTool",
          "type": "string"
        },
        {
          "internalType": "uint256",
          "name": "id",
          "type": "uint256"
        },
        {
          "internalType": "uint8",
          "name": "rarity",
          "type": "uint8"
        }
      ],
      "stateMutability": "view",
      "type": "function",
      "constant": true
    },
    {
      "inputs": [
        {
          "internalType": "address",
          "name": "from",
          "type": "address"
        },
        {
          "internalType": "address",
          "name": "to",
          "type": "address"
        },
        {
          "internalType": "uint256",
          "name": "tokenId",
          "type": "uint256"
        }
      ],
      "name": "transferFrom",
      "outputs": [],
      "stateMutability": "nonpayable",
      "type": "function"
    },
    {
      "inputs": [
        {
          "internalType": "address",
          "name": "newOwner",
          "type": "address"
        }
      ],
      "name": "transferOwnership",
      "outputs": [],
      "stateMutability": "nonpayable",
      "type": "function"
    },
    {
      "inputs": [],
      "name": "pushString",
      "outputs": [],
      "stateMutability": "nonpayable",
      "type": "function"
    },
    {
      "inputs": [
        {
          "internalType": "uint256",
          "name": "_fee",
          "type": "uint256"
        }
      ],
      "name": "updateFee",
      "outputs": [],
      "stateMutability": "nonpayable",
      "type": "function"
    },
    {
      "inputs": [],
      "name": "withdraw",
      "outputs": [],
      "stateMutability": "payable",
      "type": "function",
      "payable": true
    },
    {
      "inputs": [
        {
          "internalType": "string",
          "name": "_name",
          "type": "string"
        }
      ],
      "name": "createRandomLip",
      "outputs": [],
      "stateMutability": "payable",
      "type": "function",
      "payable": true
    },
    {
      "inputs": [],
      "name": "createRandomTool",
      "outputs": [],
      "stateMutability": "payable",
      "type": "function",
      "payable": true
    },
    {
      "inputs": [
        {
          "internalType": "address",
          "name": "_owner",
          "type": "address"
        },
        {
          "internalType": "uint256",
          "name": "_lipId",
          "type": "uint256"
        },
        {
          "internalType": "uint256",
          "name": "_toolId",
          "type": "uint256"
        }
      ],
      "name": "useTool",
      "outputs": [],
      "stateMutability": "nonpayable",
      "type": "function"
    },
    {
      "inputs": [],
      "name": "getLips",
      "outputs": [
        {
          "components": [
            {
              "internalType": "string",
              "name": "name",
              "type": "string"
            },
            {
              "internalType": "uint256",
              "name": "id",
              "type": "uint256"
            },
            {
              "internalType": "uint256",
              "name": "dna",
              "type": "uint256"
            },
            {
              "internalType": "uint8",
              "name": "level",
              "type": "uint8"
            },
            {
              "internalType": "uint8",
              "name": "rarity",
              "type": "uint8"
            },
            {
              "internalType": "uint8",
              "name": "ableToLevel",
              "type": "uint8"
            }
          ],
          "internalType": "struct LipToken.Lip[]",
          "name": "",
          "type": "tuple[]"
        }
      ],
      "stateMutability": "view",
      "type": "function",
      "constant": true
    },
    {
      "inputs": [],
      "name": "getTools",
      "outputs": [
        {
          "components": [
            {
              "internalType": "string",
              "name": "typeOfTool",
              "type": "string"
            },
            {
              "internalType": "uint256",
              "name": "id",
              "type": "uint256"
            },
            {
              "internalType": "uint8",
              "name": "rarity",
              "type": "uint8"
            }
          ],
          "internalType": "struct LipToken.Tool[]",
          "name": "",
          "type": "tuple[]"
        }
      ],
      "stateMutability": "view",
      "type": "function",
      "constant": true
    },
    {
      "inputs": [
        {
          "internalType": "address",
          "name": "_owner",
          "type": "address"
        }
      ],
      "name": "getOwnerLips",
      "outputs": [
        {
          "components": [
            {
              "internalType": "string",
              "name": "name",
              "type": "string"
            },
            {
              "internalType": "uint256",
              "name": "id",
              "type": "uint256"
            },
            {
              "internalType": "uint256",
              "name": "dna",
              "type": "uint256"
            },
            {
              "internalType": "uint8",
              "name": "level",
              "type": "uint8"
            },
            {
              "internalType": "uint8",
              "name": "rarity",
              "type": "uint8"
            },
            {
              "internalType": "uint8",
              "name": "ableToLevel",
              "type": "uint8"
            }
          ],
          "internalType": "struct LipToken.Lip[]",
          "name": "",
          "type": "tuple[]"
        }
      ],
      "stateMutability": "view",
      "type": "function",
      "constant": true
    },
    {
      "inputs": [
        {
          "internalType": "address",
          "name": "_owner",
          "type": "address"
        }
      ],
      "name": "getOwnerTools",
      "outputs": [
        {
          "components": [
            {
              "internalType": "string",
              "name": "typeOfTool",
              "type": "string"
            },
            {
              "internalType": "uint256",
              "name": "id",
              "type": "uint256"
            },
            {
              "internalType": "uint8",
              "name": "rarity",
              "type": "uint8"
            }
          ],
          "internalType": "struct LipToken.Tool[]",
          "name": "",
          "type": "tuple[]"
        }
      ],
      "stateMutability": "view",
      "type": "function",
      "constant": true
    },
    {
      "inputs": [
        {
          "internalType": "uint256",
          "name": "_lipId",
          "type": "uint256"
        }
      ],
      "name": "levelUp",
      "outputs": [],
      "stateMutability": "nonpayable",
      "type": "function"
    }
  ],
  "bytecode": "0x60806040526000600855662386f26fc1000060095566038d7ea4c68000600a553480156200002c57600080fd5b50604051620058f7380380620058f7833981810160405281019062000052919062000303565b81818160009081620000659190620005d3565b508060019081620000779190620005d3565b5050506200009a6200008e620000a260201b60201c565b620000aa60201b60201c565b5050620006ba565b600033905090565b6000600660009054906101000a900473ffffffffffffffffffffffffffffffffffffffff16905081600660006101000a81548173ffffffffffffffffffffffffffffffffffffffff021916908373ffffffffffffffffffffffffffffffffffffffff1602179055508173ffffffffffffffffffffffffffffffffffffffff168173ffffffffffffffffffffffffffffffffffffffff167f8be0079c531659141344cd1fd0a4f28419497f9722a3daafe3b4186f6b6457e060405160405180910390a35050565b6000604051905090565b600080fd5b600080fd5b600080fd5b600080fd5b6000601f19601f8301169050919050565b7f4e487b7100000000000000000000000000000000000000000000000000000000600052604160045260246000fd5b620001d9826200018e565b810181811067ffffffffffffffff82111715620001fb57620001fa6200019f565b5b80604052505050565b60006200021062000170565b90506200021e8282620001ce565b919050565b600067ffffffffffffffff8211156200024157620002406200019f565b5b6200024c826200018e565b9050602081019050919050565b60005b83811015620002795780820151818401526020810190506200025c565b60008484015250505050565b60006200029c620002968462000223565b62000204565b905082815260208101848484011115620002bb57620002ba62000189565b5b620002c884828562000259565b509392505050565b600082601f830112620002e857620002e762000184565b5b8151620002fa84826020860162000285565b91505092915050565b600080604083850312156200031d576200031c6200017a565b5b600083015167ffffffffffffffff8111156200033e576200033d6200017f565b5b6200034c85828601620002d0565b925050602083015167ffffffffffffffff81111562000370576200036f6200017f565b5b6200037e85828601620002d0565b9150509250929050565b600081519050919050565b7f4e487b7100000000000000000000000000000000000000000000000000000000600052602260045260246000fd5b60006002820490506001821680620003db57607f821691505b602082108103620003f157620003f062000393565b5b50919050565b60008190508160005260206000209050919050565b60006020601f8301049050919050565b600082821b905092915050565b6000600883026200045b7fffffffffffffffffffffffffffffffffffffffffffffffffffffffffffffffff826200041c565b6200046786836200041c565b95508019841693508086168417925050509392505050565b6000819050919050565b6000819050919050565b6000620004b4620004ae620004a8846200047f565b62000489565b6200047f565b9050919050565b6000819050919050565b620004d08362000493565b620004e8620004df82620004bb565b84845462000429565b825550505050565b600090565b620004ff620004f0565b6200050c818484620004c5565b505050565b5b81811015620005345762000528600082620004f5565b60018101905062000512565b5050565b601f82111562000583576200054d81620003f7565b62000558846200040c565b8101602085101562000568578190505b6200058062000577856200040c565b83018262000511565b50505b505050565b600082821c905092915050565b6000620005a86000198460080262000588565b1980831691505092915050565b6000620005c3838362000595565b9150826002028217905092915050565b620005de8262000388565b67ffffffffffffffff811115620005fa57620005f96200019f565b5b620006068254620003c2565b6200061382828562000538565b600060209050601f8311600181146200064b576000841562000636578287015190505b620006428582620005b5565b865550620006b2565b601f1984166200065b86620003f7565b60005b8281101562000685578489015182556001820191506020850194506020810190506200065e565b86831015620006a55784890151620006a1601f89168262000595565b8355505b6001600288020188555050505b505050505050565b61522d80620006ca6000396000f3fe6080604052600436106101cd5760003560e01c806383b5daf7116100f7578063b8d6500611610095578063e985e9c511610064578063e985e9c514610664578063eb7932c8146106a1578063f2fde38b146106b8578063f6abb217146106e1576101cd565b8063b8d65006146105b5578063bc60c31d146105de578063c87b56dd1461061d578063e68b2b9a1461065a576101cd565b80639012c4a8116100d15780639012c4a81461050f57806395d89b4114610538578063a22cb46514610563578063b88d4fde1461058c576101cd565b806383b5daf71461047c5780638c0b9c54146104a75780638da5cb5b146104e4576101cd565b806342842e0e1161016f578063698d640c1161013e578063698d640c146103e157806370a08231146103fd578063715018a61461043a5780637c455b8b14610451576101cd565b806342842e0e146102fc57806348a9a560146103255780635ec163db146103625780636352211e146103a4576101cd565b8063095ea7b3116101ab578063095ea7b3146102775780630ce90ec2146102a057806323b872dd146102c95780633ccfd60b146102f2576101cd565b806301ffc9a7146101d257806306fdde031461020f578063081812fc1461023a575b600080fd5b3480156101de57600080fd5b506101f960048036038101906101f491906138cf565b61071e565b6040516102069190613917565b60405180910390f35b34801561021b57600080fd5b50610224610800565b60405161023191906139c2565b60405180910390f35b34801561024657600080fd5b50610261600480360381019061025c9190613a1a565b610892565b60405161026e9190613a88565b60405180910390f35b34801561028357600080fd5b5061029e60048036038101906102999190613acf565b6108d8565b005b3480156102ac57600080fd5b506102c760048036038101906102c29190613a1a565b6109ef565b005b3480156102d557600080fd5b506102f060048036038101906102eb9190613b0f565b610d7d565b005b6102fa610ddd565b005b34801561030857600080fd5b50610323600480360381019061031e9190613b0f565b610e3b565b005b34801561033157600080fd5b5061034c60048036038101906103479190613a1a565b610e5b565b60405161035991906139c2565b60405180910390f35b34801561036e57600080fd5b5061038960048036038101906103849190613a1a565b610f07565b60405161039b96959493929190613b8d565b60405180910390f35b3480156103b057600080fd5b506103cb60048036038101906103c69190613a1a565b611002565b6040516103d89190613a88565b60405180910390f35b6103fb60048036038101906103f69190613d2a565b611088565b005b34801561040957600080fd5b50610424600480360381019061041f9190613d73565b6110a3565b6040516104319190613da0565b60405180910390f35b34801561044657600080fd5b5061044f61115a565b005b34801561045d57600080fd5b5061046661116e565b6040516104739190613f35565b60405180910390f35b34801561048857600080fd5b50610491611286565b60405161049e91906140a2565b60405180910390f35b3480156104b357600080fd5b506104ce60048036038101906104c99190613d73565b6113e2565b6040516104db91906140a2565b60405180910390f35b3480156104f057600080fd5b506104f9611602565b6040516105069190613a88565b60405180910390f35b34801561051b57600080fd5b5061053660048036038101906105319190613a1a565b61162c565b005b34801561054457600080fd5b5061054d61163e565b60405161055a91906139c2565b60405180910390f35b34801561056f57600080fd5b5061058a600480360381019061058591906140f0565b6116d0565b005b34801561059857600080fd5b506105b360048036038101906105ae91906141d1565b6116e6565b005b3480156105c157600080fd5b506105dc60048036038101906105d79190614254565b611748565b005b3480156105ea57600080fd5b5061060560048036038101906106009190613a1a565b611ceb565b604051610614939291906142a7565b60405180910390f35b34801561062957600080fd5b50610644600480360381019061063f9190613a1a565b611dba565b60405161065191906139c2565b60405180910390f35b610662611e22565b005b34801561067057600080fd5b5061068b600480360381019061068691906142e5565b611e3b565b6040516106989190613917565b60405180910390f35b3480156106ad57600080fd5b506106b6611ecf565b005b3480156106c457600080fd5b506106df60048036038101906106da9190613d73565b612006565b005b3480156106ed57600080fd5b5061070860048036038101906107039190613d73565b612089565b6040516107159190613f35565b60405180910390f35b60007f80ac58cd000000000000000000000000000000000000000000000000000000007bffffffffffffffffffffffffffffffffffffffffffffffffffffffff1916827bffffffffffffffffffffffffffffffffffffffffffffffffffffffff191614806107e957507f5b5e139f000000000000000000000000000000000000000000000000000000007bffffffffffffffffffffffffffffffffffffffffffffffffffffffff1916827bffffffffffffffffffffffffffffffffffffffffffffffffffffffff1916145b806107f957506107f8826122cb565b5b9050919050565b60606000805461080f90614354565b80601f016020809104026020016040519081016040528092919081815260200182805461083b90614354565b80156108885780601f1061085d57610100808354040283529160200191610888565b820191906000526020600020905b81548152906001019060200180831161086b57829003601f168201915b5050505050905090565b600061089d82612335565b6004600083815260200190815260200160002060009054906101000a900473ffffffffffffffffffffffffffffffffffffffff169050919050565b60006108e382611002565b90508073ffffffffffffffffffffffffffffffffffffffff168373ffffffffffffffffffffffffffffffffffffffff1603610953576040517f08c379a000000000000000000000000000000000000000000000000000000000815260040161094a906143f7565b60405180910390fd5b8073ffffffffffffffffffffffffffffffffffffffff16610972612380565b73ffffffffffffffffffffffffffffffffffffffff1614806109a157506109a08161099b612380565b611e3b565b5b6109e0576040517f08c379a00000000000000000000000000000000000000000000000000000000081526004016109d790614489565b60405180910390fd5b6109ea8383612388565b505050565b3373ffffffffffffffffffffffffffffffffffffffff16610a0f82611002565b73ffffffffffffffffffffffffffffffffffffffff1614610a2f57600080fd5b6000600c8281548110610a4557610a446144a9565b5b9060005260206000209060040201905060148160030160019054906101000a900460ff1660ff1611610ac957600a8160030160029054906101000a900460ff1660ff1614610ac8576040517f08c379a0000000000000000000000000000000000000000000000000000000008152600401610abf90614524565b60405180910390fd5b5b60148160030160019054906101000a900460ff1660ff16118015610b02575060288160030160019054906101000a900460ff1660ff1611155b15610b5f5760088160030160029054906101000a900460ff1660ff1614610b5e576040517f08c379a0000000000000000000000000000000000000000000000000000000008152600401610b5590614524565b60405180910390fd5b5b60288160030160019054906101000a900460ff1660ff16118015610b985750603c8160030160019054906101000a900460ff1660ff1611155b15610bf55760068160030160029054906101000a900460ff1660ff1614610bf4576040517f08c379a0000000000000000000000000000000000000000000000000000000008152600401610beb90614524565b60405180910390fd5b5b603c8160030160019054906101000a900460ff1660ff16118015610c2e575060508160030160019054906101000a900460ff1660ff1611155b15610c8b5760048160030160029054906101000a900460ff1660ff1614610c8a576040517f08c379a0000000000000000000000000000000000000000000000000000000008152600401610c8190614524565b60405180910390fd5b5b60508160030160019054906101000a900460ff1660ff16118015610cc4575060648160030160019054906101000a900460ff1660ff1611155b15610d215760038160030160029054906101000a900460ff1660ff1614610d20576040517f08c379a0000000000000000000000000000000000000000000000000000000008152600401610d1790614524565b60405180910390fd5b5b80600301600081819054906101000a900460ff1680929190610d4290614573565b91906101000a81548160ff021916908360ff1602179055505060008160030160026101000a81548160ff021916908360ff1602179055505050565b610d8e610d88612380565b82612441565b610dcd576040517f08c379a0000000000000000000000000000000000000000000000000000000008152600401610dc49061460e565b60405180910390fd5b610dd88383836124d6565b505050565b610de56127cf565b6000610def611602565b90508073ffffffffffffffffffffffffffffffffffffffff166108fc479081150290604051600060405180830381858888f19350505050158015610e37573d6000803e3d6000fd5b5050565b610e56838383604051806020016040528060008152506116e6565b505050565b600b8181548110610e6b57600080fd5b906000526020600020016000915090508054610e8690614354565b80601f0160208091040260200160405190810160405280929190818152602001828054610eb290614354565b8015610eff5780601f10610ed457610100808354040283529160200191610eff565b820191906000526020600020905b815481529060010190602001808311610ee257829003601f168201915b505050505081565b600c8181548110610f1757600080fd5b9060005260206000209060040201600091509050806000018054610f3a90614354565b80601f0160208091040260200160405190810160405280929190818152602001828054610f6690614354565b8015610fb35780601f10610f8857610100808354040283529160200191610fb3565b820191906000526020600020905b815481529060010190602001808311610f9657829003601f168201915b5050505050908060010154908060020154908060030160009054906101000a900460ff16908060030160019054906101000a900460ff16908060030160029054906101000a900460ff16905086565b60008061100e8361284d565b9050600073ffffffffffffffffffffffffffffffffffffffff168173ffffffffffffffffffffffffffffffffffffffff160361107f576040517f08c379a00000000000000000000000000000000000000000000000000000000081526004016110769061467a565b60405180910390fd5b80915050919050565b60095434101561109757600080fd5b6110a08161288a565b50565b60008073ffffffffffffffffffffffffffffffffffffffff168273ffffffffffffffffffffffffffffffffffffffff1603611113576040517f08c379a000000000000000000000000000000000000000000000000000000000815260040161110a9061470c565b60405180910390fd5b600360008373ffffffffffffffffffffffffffffffffffffffff1673ffffffffffffffffffffffffffffffffffffffff168152602001908152602001600020549050919050565b6111626127cf565b61116c6000612a21565b565b6060600d805480602002602001604051908101604052809291908181526020016000905b8282101561127d57838290600052602060002090600302016040518060600160405290816000820180546111c590614354565b80601f01602080910402602001604051908101604052809291908181526020018280546111f190614354565b801561123e5780601f106112135761010080835404028352916020019161123e565b820191906000526020600020905b81548152906001019060200180831161122157829003601f168201915b50505050508152602001600182015481526020016002820160009054906101000a900460ff1660ff1660ff168152505081526020019060010190611192565b50505050905090565b6060600c805480602002602001604051908101604052809291908181526020016000905b828210156113d957838290600052602060002090600402016040518060c00160405290816000820180546112dd90614354565b80601f016020809104026020016040519081016040528092919081815260200182805461130990614354565b80156113565780601f1061132b57610100808354040283529160200191611356565b820191906000526020600020905b81548152906001019060200180831161133957829003601f168201915b5050505050815260200160018201548152602001600282015481526020016003820160009054906101000a900460ff1660ff1660ff1681526020016003820160019054906101000a900460ff1660ff1660ff1681526020016003820160029054906101000a900460ff1660ff1660ff1681525050815260200190600101906112aa565b50505050905090565b60606000600c8054905067ffffffffffffffff81111561140557611404613bff565b5b60405190808252806020026020018201604052801561143e57816020015b61142b613800565b8152602001906001900390816114235790505b5090506000805b600c805490508110156115f7578473ffffffffffffffffffffffffffffffffffffffff1661147282611002565b73ffffffffffffffffffffffffffffffffffffffff16036115e457600c81815481106114a1576114a06144a9565b5b90600052602060002090600402016040518060c00160405290816000820180546114ca90614354565b80601f01602080910402602001604051908101604052809291908181526020018280546114f690614354565b80156115435780601f1061151857610100808354040283529160200191611543565b820191906000526020600020905b81548152906001019060200180831161152657829003601f168201915b5050505050815260200160018201548152602001600282015481526020016003820160009054906101000a900460ff1660ff1660ff1681526020016003820160019054906101000a900460ff1660ff1660ff1681526020016003820160029054906101000a900460ff1660ff1660ff16815250508383815181106115ca576115c96144a9565b5b602002602001018190525081806115e09061472c565b9250505b80806115ef9061472c565b915050611445565b508192505050919050565b6000600660009054906101000a900473ffffffffffffffffffffffffffffffffffffffff16905090565b6116346127cf565b8060098190555050565b60606001805461164d90614354565b80601f016020809104026020016040519081016040528092919081815260200182805461167990614354565b80156116c65780601f1061169b576101008083540402835291602001916116c6565b820191906000526020600020905b8154815290600101906020018083116116a957829003601f168201915b5050505050905090565b6116e26116db612380565b8383612ae7565b5050565b6116f76116f1612380565b83612441565b611736576040517f08c379a000000000000000000000000000000000000000000000000000000000815260040161172d9061460e565b60405180910390fd5b61174284848484612c53565b50505050565b60008060005b600d805490508110156117f75761176481612caf565b156117e4578573ffffffffffffffffffffffffffffffffffffffff1661178982611002565b73ffffffffffffffffffffffffffffffffffffffff16036117b35781806117af9061472c565b9250505b83600d82815481106117c8576117c76144a9565b5b906000526020600020906003020160010154036117e3578092505b5b80806117ef9061472c565b91505061174e565b5060008060005b600c805490508110156118a75761181481612caf565b15611894578773ffffffffffffffffffffffffffffffffffffffff1661183982611002565b73ffffffffffffffffffffffffffffffffffffffff160361186357818061185f9061472c565b9250505b86600c8281548110611878576118776144a9565b5b90600052602060002090600402016001015403611893578092505b5b808061189f9061472c565b9150506117fe565b503373ffffffffffffffffffffffffffffffffffffffff166118c886611002565b73ffffffffffffffffffffffffffffffffffffffff161461191e576040517f08c379a0000000000000000000000000000000000000000000000000000000008152600401611915906147c0565b60405180910390fd5b3373ffffffffffffffffffffffffffffffffffffffff1661193e87611002565b73ffffffffffffffffffffffffffffffffffffffff1614611994576040517f08c379a000000000000000000000000000000000000000000000000000000000815260040161198b9061482c565b60405180910390fd5b6000600c83815481106119aa576119a96144a9565b5b9060005260206000209060040201905060148160030160019054906101000a900460ff1660ff1611611a2e57600a8160030160029054906101000a900460ff1660ff1614611a2d576040517f08c379a0000000000000000000000000000000000000000000000000000000008152600401611a2490614524565b60405180910390fd5b5b60148160030160019054906101000a900460ff1660ff16118015611a67575060288160030160019054906101000a900460ff1660ff1611155b15611ac45760088160030160029054906101000a900460ff1660ff1610611ac3576040517f08c379a0000000000000000000000000000000000000000000000000000000008152600401611aba90614898565b60405180910390fd5b5b60288160030160019054906101000a900460ff1660ff16118015611afd5750603c8160030160019054906101000a900460ff1660ff1611155b15611b5a5760068160030160029054906101000a900460ff1660ff1610611b59576040517f08c379a0000000000000000000000000000000000000000000000000000000008152600401611b5090614898565b60405180910390fd5b5b603c8160030160019054906101000a900460ff1660ff16118015611b93575060508160030160019054906101000a900460ff1660ff1611155b15611bf05760048160030160029054906101000a900460ff1660ff1610611bef576040517f08c379a0000000000000000000000000000000000000000000000000000000008152600401611be690614898565b60405180910390fd5b5b60508160030160019054906101000a900460ff1660ff16118015611c29575060648160030160019054906101000a900460ff1660ff1611155b15611c865760038160030160029054906101000a900460ff1660ff1610611c85576040517f08c379a0000000000000000000000000000000000000000000000000000000008152600401611c7c90614898565b60405180910390fd5b5b60086000815480929190611c999061472c565b919050555080600301600281819054906101000a900460ff1680929190611cbf90614573565b91906101000a81548160ff021916908360ff16021790555050611ce186612cf0565b5050505050505050565b600d8181548110611cfb57600080fd5b9060005260206000209060030201600091509050806000018054611d1e90614354565b80601f0160208091040260200160405190810160405280929190818152602001828054611d4a90614354565b8015611d975780601f10611d6c57610100808354040283529160200191611d97565b820191906000526020600020905b815481529060010190602001808311611d7a57829003601f168201915b5050505050908060010154908060020160009054906101000a900460ff16905083565b6060611dc582612335565b6000611dcf612e3e565b90506000815111611def5760405180602001604052806000815250611e1a565b80611df984612e55565b604051602001611e0a9291906148f4565b6040516020818303038152906040525b915050919050565b600a54341015611e3157600080fd5b611e39612f23565b565b6000600560008473ffffffffffffffffffffffffffffffffffffffff1673ffffffffffffffffffffffffffffffffffffffff16815260200190815260200160002060008373ffffffffffffffffffffffffffffffffffffffff1673ffffffffffffffffffffffffffffffffffffffff16815260200190815260200160002060009054906101000a900460ff16905092915050565b600b80600181540180825580915050600190039060005260206000200160006040518060400160405280600581526020017f776174657200000000000000000000000000000000000000000000000000000081525090919091509081611f359190614ac4565b50600b80600181540180825580915050600190039060005260206000200160006040518060400160405280600a81526020017f66657274696c697a65720000000000000000000000000000000000000000000081525090919091509081611f9c9190614ac4565b50600b80600181540180825580915050600190039060005260206000200160006040518060400160405280600781526020017f73636973736f7200000000000000000000000000000000000000000000000000815250909190915090816120039190614ac4565b50565b61200e6127cf565b600073ffffffffffffffffffffffffffffffffffffffff168173ffffffffffffffffffffffffffffffffffffffff160361207d576040517f08c379a000000000000000000000000000000000000000000000000000000000815260040161207490614c08565b60405180910390fd5b61208681612a21565b50565b60606000600854600d805490506120a09190614c28565b67ffffffffffffffff8111156120b9576120b8613bff565b5b6040519080825280602002602001820160405280156120f257816020015b6120df61383f565b8152602001906001900390816120d75790505b5090506000805b600d805490508110156122c057612134600d828154811061211d5761211c6144a9565b5b906000526020600020906003020160010154612caf565b156122ad578473ffffffffffffffffffffffffffffffffffffffff1661217e600d8381548110612167576121666144a9565b5b906000526020600020906003020160010154611002565b73ffffffffffffffffffffffffffffffffffffffff16036122ac57600d81815481106121ad576121ac6144a9565b5b90600052602060002090600302016040518060600160405290816000820180546121d690614354565b80601f016020809104026020016040519081016040528092919081815260200182805461220290614354565b801561224f5780601f106122245761010080835404028352916020019161224f565b820191906000526020600020905b81548152906001019060200180831161223257829003601f168201915b50505050508152602001600182015481526020016002820160009054906101000a900460ff1660ff1660ff1681525050838381518110612292576122916144a9565b5b602002602001018190525081806122a89061472c565b9250505b5b80806122b89061472c565b9150506120f9565b508192505050919050565b60007f01ffc9a7000000000000000000000000000000000000000000000000000000007bffffffffffffffffffffffffffffffffffffffffffffffffffffffff1916827bffffffffffffffffffffffffffffffffffffffffffffffffffffffff1916149050919050565b61233e81612caf565b61237d576040517f08c379a00000000000000000000000000000000000000000000000000000000081526004016123749061467a565b60405180910390fd5b50565b600033905090565b816004600083815260200190815260200160002060006101000a81548173ffffffffffffffffffffffffffffffffffffffff021916908373ffffffffffffffffffffffffffffffffffffffff160217905550808273ffffffffffffffffffffffffffffffffffffffff166123fb83611002565b73ffffffffffffffffffffffffffffffffffffffff167f8c5be1e5ebec7d5bd14f71427d1e84f3dd0314c0f7b2291e5b200ac8c7c3b92560405160405180910390a45050565b60008061244d83611002565b90508073ffffffffffffffffffffffffffffffffffffffff168473ffffffffffffffffffffffffffffffffffffffff16148061248f575061248e8185611e3b565b5b806124cd57508373ffffffffffffffffffffffffffffffffffffffff166124b584610892565b73ffffffffffffffffffffffffffffffffffffffff16145b91505092915050565b8273ffffffffffffffffffffffffffffffffffffffff166124f682611002565b73ffffffffffffffffffffffffffffffffffffffff161461254c576040517f08c379a000000000000000000000000000000000000000000000000000000000815260040161254390614cce565b60405180910390fd5b600073ffffffffffffffffffffffffffffffffffffffff168273ffffffffffffffffffffffffffffffffffffffff16036125bb576040517f08c379a00000000000000000000000000000000000000000000000000000000081526004016125b290614d60565b60405180910390fd5b6125c883838360016130fc565b8273ffffffffffffffffffffffffffffffffffffffff166125e882611002565b73ffffffffffffffffffffffffffffffffffffffff161461263e576040517f08c379a000000000000000000000000000000000000000000000000000000000815260040161263590614cce565b60405180910390fd5b6004600082815260200190815260200160002060006101000a81549073ffffffffffffffffffffffffffffffffffffffff02191690556001600360008573ffffffffffffffffffffffffffffffffffffffff1673ffffffffffffffffffffffffffffffffffffffff168152602001908152602001600020600082825403925050819055506001600360008473ffffffffffffffffffffffffffffffffffffffff1673ffffffffffffffffffffffffffffffffffffffff16815260200190815260200160002060008282540192505081905550816002600083815260200190815260200160002060006101000a81548173ffffffffffffffffffffffffffffffffffffffff021916908373ffffffffffffffffffffffffffffffffffffffff160217905550808273ffffffffffffffffffffffffffffffffffffffff168473ffffffffffffffffffffffffffffffffffffffff167fddf252ad1be2c89b69c2b068fc378daa952ba7f163c4a11628f55a4df523b3ef60405160405180910390a46127ca8383836001613222565b505050565b6127d7612380565b73ffffffffffffffffffffffffffffffffffffffff166127f5611602565b73ffffffffffffffffffffffffffffffffffffffff161461284b576040517f08c379a000000000000000000000000000000000000000000000000000000000815260040161284290614dcc565b60405180910390fd5b565b60006002600083815260200190815260200160002060009054906101000a900473ffffffffffffffffffffffffffffffffffffffff169050919050565b60006128966064613228565b905060006128aa662386f26fc10000613228565b905060006040518060c001604052808581526020016007548152602001838152602001600160ff1681526020018460ff168152602001600060ff168152509050600c819080600181540180825580915050600190039060005260206000209060040201600090919091909150600082015181600001908161292b9190614ac4565b50602082015181600101556040820151816002015560608201518160030160006101000a81548160ff021916908360ff16021790555060808201518160030160016101000a81548160ff021916908360ff16021790555060a08201518160030160026101000a81548160ff021916908360ff16021790555050506129b13360075461326d565b3373ffffffffffffffffffffffffffffffffffffffff167f24d2d558f98bdd9d21339e119fc0b03e213c7d05affd838ac2ee136d90e3bbeb600754846040516129fb929190614dec565b60405180910390a260076000815480929190612a169061472c565b919050555050505050565b6000600660009054906101000a900473ffffffffffffffffffffffffffffffffffffffff16905081600660006101000a81548173ffffffffffffffffffffffffffffffffffffffff021916908373ffffffffffffffffffffffffffffffffffffffff1602179055508173ffffffffffffffffffffffffffffffffffffffff168173ffffffffffffffffffffffffffffffffffffffff167f8be0079c531659141344cd1fd0a4f28419497f9722a3daafe3b4186f6b6457e060405160405180910390a35050565b8173ffffffffffffffffffffffffffffffffffffffff168373ffffffffffffffffffffffffffffffffffffffff1603612b55576040517f08c379a0000000000000000000000000000000000000000000000000000000008152600401612b4c90614e61565b60405180910390fd5b80600560008573ffffffffffffffffffffffffffffffffffffffff1673ffffffffffffffffffffffffffffffffffffffff16815260200190815260200160002060008473ffffffffffffffffffffffffffffffffffffffff1673ffffffffffffffffffffffffffffffffffffffff16815260200190815260200160002060006101000a81548160ff0219169083151502179055508173ffffffffffffffffffffffffffffffffffffffff168373ffffffffffffffffffffffffffffffffffffffff167f17307eab39ab6107e8899845ad3d59bd9653f200f220920489ca2b5937696c3183604051612c469190613917565b60405180910390a3505050565b612c5e8484846124d6565b612c6a8484848461328b565b612ca9576040517f08c379a0000000000000000000000000000000000000000000000000000000008152600401612ca090614ef3565b60405180910390fd5b50505050565b60008073ffffffffffffffffffffffffffffffffffffffff16612cd18361284d565b73ffffffffffffffffffffffffffffffffffffffff1614159050919050565b6000612cfb82611002565b9050612d0b8160008460016130fc565b612d1482611002565b90506004600083815260200190815260200160002060006101000a81549073ffffffffffffffffffffffffffffffffffffffff02191690556001600360008373ffffffffffffffffffffffffffffffffffffffff1673ffffffffffffffffffffffffffffffffffffffff168152602001908152602001600020600082825403925050819055506002600083815260200190815260200160002060006101000a81549073ffffffffffffffffffffffffffffffffffffffff021916905581600073ffffffffffffffffffffffffffffffffffffffff168273ffffffffffffffffffffffffffffffffffffffff167fddf252ad1be2c89b69c2b068fc378daa952ba7f163c4a11628f55a4df523b3ef60405160405180910390a4612e3a816000846001613222565b5050565b606060405180602001604052806000815250905090565b606060006001612e6484613412565b01905060008167ffffffffffffffff811115612e8357612e82613bff565b5b6040519080825280601f01601f191660200182016040528015612eb55781602001600182028036833780820191505090505b509050600082602001820190505b600115612f18578080600190039150507f3031323334353637383961626364656600000000000000000000000000000000600a86061a8153600a8581612f0c57612f0b614f13565b5b04945060008503612ec3575b819350505050919050565b612f2b611ecf565b6000612f37600a613228565b90506000600b612f476003613228565b60ff1681548110612f5b57612f5a6144a9565b5b906000526020600020018054612f7090614354565b80601f0160208091040260200160405190810160405280929190818152602001828054612f9c90614354565b8015612fe95780601f10612fbe57610100808354040283529160200191612fe9565b820191906000526020600020905b815481529060010190602001808311612fcc57829003601f168201915b505050505090506000604051806060016040528083815260200160075481526020018460ff168152509050600d81908060018154018082558091505060019003906000526020600020906003020160009091909190915060008201518160000190816130559190614ac4565b506020820151816001015560408201518160020160006101000a81548160ff021916908360ff160217905550505061308f3360075461326d565b3373ffffffffffffffffffffffffffffffffffffffff167f2677635a56817fc92b34099ae5ad556fbb7baf80e593c4e79f15a9037b367d6c6007546040516130d79190613da0565b60405180910390a2600760008154809291906130f29061472c565b9190505550505050565b600181111561321c57600073ffffffffffffffffffffffffffffffffffffffff168473ffffffffffffffffffffffffffffffffffffffff16146131905780600360008673ffffffffffffffffffffffffffffffffffffffff1673ffffffffffffffffffffffffffffffffffffffff16815260200190815260200160002060008282546131889190614c28565b925050819055505b600073ffffffffffffffffffffffffffffffffffffffff168373ffffffffffffffffffffffffffffffffffffffff161461321b5780600360008573ffffffffffffffffffffffffffffffffffffffff1673ffffffffffffffffffffffffffffffffffffffff16815260200190815260200160002060008282546132139190614f42565b925050819055505b5b50505050565b50505050565b600080423360405160200161323e929190614fdf565b6040516020818303038152906040528051906020012060001c90508281613265919061500b565b915050919050565b613287828260405180602001604052806000815250613565565b5050565b60006132ac8473ffffffffffffffffffffffffffffffffffffffff166135c0565b15613405578373ffffffffffffffffffffffffffffffffffffffff1663150b7a026132d5612380565b8786866040518563ffffffff1660e01b81526004016132f79493929190615091565b6020604051808303816000875af192505050801561333357506040513d601f19601f8201168201806040525081019061333091906150f2565b60015b6133b5573d8060008114613363576040519150601f19603f3d011682016040523d82523d6000602084013e613368565b606091505b5060008151036133ad576040517f08c379a00000000000000000000000000000000000000000000000000000000081526004016133a490614ef3565b60405180910390fd5b805181602001fd5b63150b7a0260e01b7bffffffffffffffffffffffffffffffffffffffffffffffffffffffff1916817bffffffffffffffffffffffffffffffffffffffffffffffffffffffff19161491505061340a565b600190505b949350505050565b600080600090507a184f03e93ff9f4daa797ed6e38ed64bf6a1f0100000000000000008310613470577a184f03e93ff9f4daa797ed6e38ed64bf6a1f010000000000000000838161346657613465614f13565b5b0492506040810190505b6d04ee2d6d415b85acef810000000083106134ad576d04ee2d6d415b85acef810000000083816134a3576134a2614f13565b5b0492506020810190505b662386f26fc1000083106134dc57662386f26fc1000083816134d2576134d1614f13565b5b0492506010810190505b6305f5e1008310613505576305f5e10083816134fb576134fa614f13565b5b0492506008810190505b612710831061352a5761271083816135205761351f614f13565b5b0492506004810190505b6064831061354d576064838161354357613542614f13565b5b0492506002810190505b600a831061355c576001810190505b80915050919050565b61356f83836135e3565b61357c600084848461328b565b6135bb576040517f08c379a00000000000000000000000000000000000000000000000000000000081526004016135b290614ef3565b60405180910390fd5b505050565b6000808273ffffffffffffffffffffffffffffffffffffffff163b119050919050565b600073ffffffffffffffffffffffffffffffffffffffff168273ffffffffffffffffffffffffffffffffffffffff1603613652576040517f08c379a00000000000000000000000000000000000000000000000000000000081526004016136499061516b565b60405180910390fd5b61365b81612caf565b1561369b576040517f08c379a0000000000000000000000000000000000000000000000000000000008152600401613692906151d7565b60405180910390fd5b6136a96000838360016130fc565b6136b281612caf565b156136f2576040517f08c379a00000000000000000000000000000000000000000000000000000000081526004016136e9906151d7565b60405180910390fd5b6001600360008473ffffffffffffffffffffffffffffffffffffffff1673ffffffffffffffffffffffffffffffffffffffff16815260200190815260200160002060008282540192505081905550816002600083815260200190815260200160002060006101000a81548173ffffffffffffffffffffffffffffffffffffffff021916908373ffffffffffffffffffffffffffffffffffffffff160217905550808273ffffffffffffffffffffffffffffffffffffffff16600073ffffffffffffffffffffffffffffffffffffffff167fddf252ad1be2c89b69c2b068fc378daa952ba7f163c4a11628f55a4df523b3ef60405160405180910390a46137fc600083836001613222565b5050565b6040518060c00160405280606081526020016000815260200160008152602001600060ff168152602001600060ff168152602001600060ff1681525090565b60405180606001604052806060815260200160008152602001600060ff1681525090565b6000604051905090565b600080fd5b600080fd5b60007fffffffff0000000000000000000000000000000000000000000000000000000082169050919050565b6138ac81613877565b81146138b757600080fd5b50565b6000813590506138c9816138a3565b92915050565b6000602082840312156138e5576138e461386d565b5b60006138f3848285016138ba565b91505092915050565b60008115159050919050565b613911816138fc565b82525050565b600060208201905061392c6000830184613908565b92915050565b600081519050919050565b600082825260208201905092915050565b60005b8381101561396c578082015181840152602081019050613951565b60008484015250505050565b6000601f19601f8301169050919050565b600061399482613932565b61399e818561393d565b93506139ae81856020860161394e565b6139b781613978565b840191505092915050565b600060208201905081810360008301526139dc8184613989565b905092915050565b6000819050919050565b6139f7816139e4565b8114613a0257600080fd5b50565b600081359050613a14816139ee565b92915050565b600060208284031215613a3057613a2f61386d565b5b6000613a3e84828501613a05565b91505092915050565b600073ffffffffffffffffffffffffffffffffffffffff82169050919050565b6000613a7282613a47565b9050919050565b613a8281613a67565b82525050565b6000602082019050613a9d6000830184613a79565b92915050565b613aac81613a67565b8114613ab757600080fd5b50565b600081359050613ac981613aa3565b92915050565b60008060408385031215613ae657613ae561386d565b5b6000613af485828601613aba565b9250506020613b0585828601613a05565b9150509250929050565b600080600060608486031215613b2857613b2761386d565b5b6000613b3686828701613aba565b9350506020613b4786828701613aba565b9250506040613b5886828701613a05565b9150509250925092565b613b6b816139e4565b82525050565b600060ff82169050919050565b613b8781613b71565b82525050565b600060c0820190508181036000830152613ba78189613989565b9050613bb66020830188613b62565b613bc36040830187613b62565b613bd06060830186613b7e565b613bdd6080830185613b7e565b613bea60a0830184613b7e565b979650505050505050565b600080fd5b600080fd5b7f4e487b7100000000000000000000000000000000000000000000000000000000600052604160045260246000fd5b613c3782613978565b810181811067ffffffffffffffff82111715613c5657613c55613bff565b5b80604052505050565b6000613c69613863565b9050613c758282613c2e565b919050565b600067ffffffffffffffff821115613c9557613c94613bff565b5b613c9e82613978565b9050602081019050919050565b82818337600083830152505050565b6000613ccd613cc884613c7a565b613c5f565b905082815260208101848484011115613ce957613ce8613bfa565b5b613cf4848285613cab565b509392505050565b600082601f830112613d1157613d10613bf5565b5b8135613d21848260208601613cba565b91505092915050565b600060208284031215613d4057613d3f61386d565b5b600082013567ffffffffffffffff811115613d5e57613d5d613872565b5b613d6a84828501613cfc565b91505092915050565b600060208284031215613d8957613d8861386d565b5b6000613d9784828501613aba565b91505092915050565b6000602082019050613db56000830184613b62565b92915050565b600081519050919050565b600082825260208201905092915050565b6000819050602082019050919050565b600082825260208201905092915050565b6000613e0382613932565b613e0d8185613de7565b9350613e1d81856020860161394e565b613e2681613978565b840191505092915050565b613e3a816139e4565b82525050565b613e4981613b71565b82525050565b60006060830160008301518482036000860152613e6c8282613df8565b9150506020830151613e816020860182613e31565b506040830151613e946040860182613e40565b508091505092915050565b6000613eab8383613e4f565b905092915050565b6000602082019050919050565b6000613ecb82613dbb565b613ed58185613dc6565b935083602082028501613ee785613dd7565b8060005b85811015613f235784840389528151613f048582613e9f565b9450613f0f83613eb3565b925060208a01995050600181019050613eeb565b50829750879550505050505092915050565b60006020820190508181036000830152613f4f8184613ec0565b905092915050565b600081519050919050565b600082825260208201905092915050565b6000819050602082019050919050565b600060c0830160008301518482036000860152613fa08282613df8565b9150506020830151613fb56020860182613e31565b506040830151613fc86040860182613e31565b506060830151613fdb6060860182613e40565b506080830151613fee6080860182613e40565b5060a083015161400160a0860182613e40565b508091505092915050565b60006140188383613f83565b905092915050565b6000602082019050919050565b600061403882613f57565b6140428185613f62565b93508360208202850161405485613f73565b8060005b858110156140905784840389528151614071858261400c565b945061407c83614020565b925060208a01995050600181019050614058565b50829750879550505050505092915050565b600060208201905081810360008301526140bc818461402d565b905092915050565b6140cd816138fc565b81146140d857600080fd5b50565b6000813590506140ea816140c4565b92915050565b600080604083850312156141075761410661386d565b5b600061411585828601613aba565b9250506020614126858286016140db565b9150509250929050565b600067ffffffffffffffff82111561414b5761414a613bff565b5b61415482613978565b9050602081019050919050565b600061417461416f84614130565b613c5f565b9050828152602081018484840111156141905761418f613bfa565b5b61419b848285613cab565b509392505050565b600082601f8301126141b8576141b7613bf5565b5b81356141c8848260208601614161565b91505092915050565b600080600080608085870312156141eb576141ea61386d565b5b60006141f987828801613aba565b945050602061420a87828801613aba565b935050604061421b87828801613a05565b925050606085013567ffffffffffffffff81111561423c5761423b613872565b5b614248878288016141a3565b91505092959194509250565b60008060006060848603121561426d5761426c61386d565b5b600061427b86828701613aba565b935050602061428c86828701613a05565b925050604061429d86828701613a05565b9150509250925092565b600060608201905081810360008301526142c18186613989565b90506142d06020830185613b62565b6142dd6040830184613b7e565b949350505050565b600080604083850312156142fc576142fb61386d565b5b600061430a85828601613aba565b925050602061431b85828601613aba565b9150509250929050565b7f4e487b7100000000000000000000000000000000000000000000000000000000600052602260045260246000fd5b6000600282049050600182168061436c57607f821691505b60208210810361437f5761437e614325565b5b50919050565b7f4552433732313a20617070726f76616c20746f2063757272656e74206f776e6560008201527f7200000000000000000000000000000000000000000000000000000000000000602082015250565b60006143e160218361393d565b91506143ec82614385565b604082019050919050565b60006020820190508181036000830152614410816143d4565b9050919050565b7f4552433732313a20617070726f76652063616c6c6572206973206e6f7420746f60008201527f6b656e206f776e6572206f7220617070726f76656420666f7220616c6c000000602082015250565b6000614473603d8361393d565b915061447e82614417565b604082019050919050565b600060208201905081810360008301526144a281614466565b9050919050565b7f4e487b7100000000000000000000000000000000000000000000000000000000600052603260045260246000fd5b7f4c6970206973206e6f7420726561647920746f206c6576656c20757020796574600082015250565b600061450e60208361393d565b9150614519826144d8565b602082019050919050565b6000602082019050818103600083015261453d81614501565b9050919050565b7f4e487b7100000000000000000000000000000000000000000000000000000000600052601160045260246000fd5b600061457e82613b71565b915060ff820361459157614590614544565b5b600182019050919050565b7f4552433732313a2063616c6c6572206973206e6f7420746f6b656e206f776e6560008201527f72206f7220617070726f76656400000000000000000000000000000000000000602082015250565b60006145f8602d8361393d565b91506146038261459c565b604082019050919050565b60006020820190508181036000830152614627816145eb565b9050919050565b7f4552433732313a20696e76616c696420746f6b656e2049440000000000000000600082015250565b600061466460188361393d565b915061466f8261462e565b602082019050919050565b6000602082019050818103600083015261469381614657565b9050919050565b7f4552433732313a2061646472657373207a65726f206973206e6f74206120766160008201527f6c6964206f776e65720000000000000000000000000000000000000000000000602082015250565b60006146f660298361393d565b91506147018261469a565b604082019050919050565b60006020820190508181036000830152614725816146e9565b9050919050565b6000614737826139e4565b91507fffffffffffffffffffffffffffffffffffffffffffffffffffffffffffffffff820361476957614768614544565b5b600182019050919050565b7f546f6f6c20646f6573206e6f742062656c6f6e6720746f2073656e6465720000600082015250565b60006147aa601e8361393d565b91506147b582614774565b602082019050919050565b600060208201905081810360008301526147d98161479d565b9050919050565b7f4c697020646f6573206e6f742062656c6f6e6720746f2073656e646572000000600082015250565b6000614816601d8361393d565b9150614821826147e0565b602082019050919050565b6000602082019050818103600083015261484581614809565b9050919050565b7f4d61782061626c65546f4c6576656c2072656163686564000000000000000000600082015250565b600061488260178361393d565b915061488d8261484c565b602082019050919050565b600060208201905081810360008301526148b181614875565b9050919050565b600081905092915050565b60006148ce82613932565b6148d881856148b8565b93506148e881856020860161394e565b80840191505092915050565b600061490082856148c3565b915061490c82846148c3565b91508190509392505050565b60008190508160005260206000209050919050565b60006020601f8301049050919050565b600082821b905092915050565b60006008830261497a7fffffffffffffffffffffffffffffffffffffffffffffffffffffffffffffffff8261493d565b614984868361493d565b95508019841693508086168417925050509392505050565b6000819050919050565b60006149c16149bc6149b7846139e4565b61499c565b6139e4565b9050919050565b6000819050919050565b6149db836149a6565b6149ef6149e7826149c8565b84845461494a565b825550505050565b600090565b614a046149f7565b614a0f8184846149d2565b505050565b5b81811015614a3357614a286000826149fc565b600181019050614a15565b5050565b601f821115614a7857614a4981614918565b614a528461492d565b81016020851015614a61578190505b614a75614a6d8561492d565b830182614a14565b50505b505050565b600082821c905092915050565b6000614a9b60001984600802614a7d565b1980831691505092915050565b6000614ab48383614a8a565b9150826002028217905092915050565b614acd82613932565b67ffffffffffffffff811115614ae657614ae5613bff565b5b614af08254614354565b614afb828285614a37565b600060209050601f831160018114614b2e5760008415614b1c578287015190505b614b268582614aa8565b865550614b8e565b601f198416614b3c86614918565b60005b82811015614b6457848901518255600182019150602085019450602081019050614b3f565b86831015614b815784890151614b7d601f891682614a8a565b8355505b6001600288020188555050505b505050505050565b7f4f776e61626c653a206e6577206f776e657220697320746865207a65726f206160008201527f6464726573730000000000000000000000000000000000000000000000000000602082015250565b6000614bf260268361393d565b9150614bfd82614b96565b604082019050919050565b60006020820190508181036000830152614c2181614be5565b9050919050565b6000614c33826139e4565b9150614c3e836139e4565b9250828203905081811115614c5657614c55614544565b5b92915050565b7f4552433732313a207472616e736665722066726f6d20696e636f72726563742060008201527f6f776e6572000000000000000000000000000000000000000000000000000000602082015250565b6000614cb860258361393d565b9150614cc382614c5c565b604082019050919050565b60006020820190508181036000830152614ce781614cab565b9050919050565b7f4552433732313a207472616e7366657220746f20746865207a65726f2061646460008201527f7265737300000000000000000000000000000000000000000000000000000000602082015250565b6000614d4a60248361393d565b9150614d5582614cee565b604082019050919050565b60006020820190508181036000830152614d7981614d3d565b9050919050565b7f4f776e61626c653a2063616c6c6572206973206e6f7420746865206f776e6572600082015250565b6000614db660208361393d565b9150614dc182614d80565b602082019050919050565b60006020820190508181036000830152614de581614da9565b9050919050565b6000604082019050614e016000830185613b62565b614e0e6020830184613b62565b9392505050565b7f4552433732313a20617070726f766520746f2063616c6c657200000000000000600082015250565b6000614e4b60198361393d565b9150614e5682614e15565b602082019050919050565b60006020820190508181036000830152614e7a81614e3e565b9050919050565b7f4552433732313a207472616e7366657220746f206e6f6e20455243373231526560008201527f63656976657220696d706c656d656e7465720000000000000000000000000000602082015250565b6000614edd60328361393d565b9150614ee882614e81565b604082019050919050565b60006020820190508181036000830152614f0c81614ed0565b9050919050565b7f4e487b7100000000000000000000000000000000000000000000000000000000600052601260045260246000fd5b6000614f4d826139e4565b9150614f58836139e4565b9250828201905080821115614f7057614f6f614544565b5b92915050565b6000819050919050565b614f91614f8c826139e4565b614f76565b82525050565b60008160601b9050919050565b6000614faf82614f97565b9050919050565b6000614fc182614fa4565b9050919050565b614fd9614fd482613a67565b614fb6565b82525050565b6000614feb8285614f80565b602082019150614ffb8284614fc8565b6014820191508190509392505050565b6000615016826139e4565b9150615021836139e4565b92508261503157615030614f13565b5b828206905092915050565b600081519050919050565b600082825260208201905092915050565b60006150638261503c565b61506d8185615047565b935061507d81856020860161394e565b61508681613978565b840191505092915050565b60006080820190506150a66000830187613a79565b6150b36020830186613a79565b6150c06040830185613b62565b81810360608301526150d28184615058565b905095945050505050565b6000815190506150ec816138a3565b92915050565b6000602082840312156151085761510761386d565b5b6000615116848285016150dd565b91505092915050565b7f4552433732313a206d696e7420746f20746865207a65726f2061646472657373600082015250565b600061515560208361393d565b91506151608261511f565b602082019050919050565b6000602082019050818103600083015261518481615148565b9050919050565b7f4552433732313a20746f6b656e20616c7265616479206d696e74656400000000600082015250565b60006151c1601c8361393d565b91506151cc8261518b565b602082019050919050565b600060208201905081810360008301526151f0816151b4565b905091905056fea2646970667358221220d8df572f034c2b3577a1f8bda6237859190bd426373d8adb96fbc09a31f655d664736f6c63430008110033",
  "immutableReferences": {},
  "source": "// SPDX-License-Identifier: MIT\n\npragma solidity ^0.8.0;\n\nimport \"@openzeppelin/contracts/token/ERC721/ERC721.sol\";\nimport \"@openzeppelin/contracts/access/Ownable.sol\";\n\ncontract LipToken is ERC721, Ownable {\n  constructor(string memory _name, string memory _symbol)\n    ERC721(_name, _symbol)\n  {}\n\n  uint256 COUNTER;\n  uint256 AlreadyUsed = 0;\n\n  uint256 fee = 0.01 ether;\n  uint256 toolFee =  0.001 ether;\n  \n\n  string[] public toolType;\n  function pushString() public{\n    toolType.push(\"water\");\n    toolType.push(\"fertilizer\");\n    toolType.push(\"scissor\");\n  }\n\n  struct Lip {\n    string name;\n    uint256 id;\n    uint256 dna;\n    uint8 level;\n    uint8 rarity;\n    uint8 ableToLevel;\n  }\n\n  struct Tool{\n    string typeOfTool;\n    uint256 id;\n    uint8 rarity;\n  }\n\n  Lip[] public lips;\n  Tool[] public tools;\n\n  event NewLip(address indexed owner, uint256 id, uint256 dna);\n  event NewTool(address indexed owner, uint256 id);\n\n  // Helpers\n  function _createRandomNum(uint256 _mod) internal view returns (uint256) {\n    uint256 randomNum = uint256(\n      keccak256(abi.encodePacked(block.timestamp, msg.sender))\n    );\n    return randomNum % _mod;\n  }\n\n  function updateFee(uint256 _fee) external onlyOwner {\n    fee = _fee;\n  }\n\n  function withdraw() external payable onlyOwner {\n    address payable _owner = payable(owner());\n    _owner.transfer(address(this).balance);\n  }\n\n  // Creation of seeds\n  function _createLip(string memory _name) internal {\n    uint8 randRarity = uint8(_createRandomNum(100));\n    uint256 randDna = _createRandomNum(10**16);\n    Lip memory newLip = Lip(_name, COUNTER, randDna, 1, randRarity, 0);\n    lips.push(newLip);\n    _safeMint(msg.sender, COUNTER);\n    emit NewLip(msg.sender, COUNTER, randDna);\n    COUNTER++;\n  }\n\n  function createRandomLip(string memory _name) public payable {\n    require(msg.value >= fee);\n    _createLip(_name);\n  }\n\n  // Creation of tools\n  function _createTools() internal {\n    pushString();\n    uint8 randToolRarity = uint8(_createRandomNum(10));\n    string memory randTool = toolType[uint8(_createRandomNum(3))];\n    Tool memory newTool = Tool(randTool, COUNTER, randToolRarity);\n    tools.push(newTool);\n    _safeMint(msg.sender, COUNTER);\n    emit NewTool(msg.sender, COUNTER);\n    COUNTER++;\n  }\n\n  function createRandomTool() public payable {\n    require(msg.value >= toolFee);\n    _createTools();\n  }\n\n  // UseTool\n  function useTool(address _owner, uint256 _lipId, uint256 _toolId) public {\n    uint256 tokenIdToUse = 0;\n    uint256 counterT = 0;\n    for (uint256 i = 0; i < tools.length; i++) {\n      if(!_exists(i)){\n        continue;\n      }\n      if (ownerOf(i) == _owner) {\n        counterT++;\n      }\n      if(tools[i].id == _toolId){\n        tokenIdToUse = i;\n      }\n    }\n    uint256 tokenIdToLevel = 0;\n    uint256 counterL = 0;\n    for (uint256 c = 0; c < lips.length; c++) {\n      if(!_exists(c)){\n        continue;\n      }\n      if (ownerOf(c) == _owner) {\n        counterL++;\n      }\n      if(lips[c].id == _lipId){\n        tokenIdToLevel = c;\n      }\n    }\n    require(ownerOf(_toolId) == msg.sender, \"Tool does not belong to sender\");\n    require(ownerOf(_lipId) == msg.sender, \"Lip does not belong to sender\");\n    Lip storage lip = lips[tokenIdToLevel];\n    // require(lip.ableToLevel < 3, \"Max ableToLevel reached\");\n\n    // Tool memory tool = tools[tokenIdToUse];\n    // require(keccak256(bytes(tool.typeOfTool)) == keccak256(bytes(\"scissor\")), \"Tool must be of type 'scissor'\");\n\n    if(lip.rarity<=20){\n      require(lip.ableToLevel == 10, \"Lip is not ready to level up yet\");\n    }\n    if(lip.rarity>20 && lip.rarity<=40){\n      require(lip.ableToLevel < 8, \"Max ableToLevel reached\");\n    }\n    if(lip.rarity>40 && lip.rarity<=60){\n      require(lip.ableToLevel < 6, \"Max ableToLevel reached\");\n    }\n    if(lip.rarity>60 && lip.rarity<=80){\n      require(lip.ableToLevel < 4, \"Max ableToLevel reached\");\n    }\n    if(lip.rarity>80 && lip.rarity<=100){\n      require(lip.ableToLevel < 3, \"Max ableToLevel reached\");\n    }\n    AlreadyUsed++;\n    lip.ableToLevel++;\n    _burn(_toolId);\n    \n  }\n\n\n \n\n\n  // Getters\n  function getLips() public view returns (Lip[] memory) {\n    return lips;\n  }\n\n  function getTools() public view returns (Tool[] memory) {\n    return tools;\n  }\n\n  function getOwnerLips(address _owner) public view returns (Lip[] memory) {\n    Lip[] memory result = new Lip[](lips.length);\n    uint256 counter = 0;\n    for (uint256 i = 0; i < lips.length; i++) {\n      if (ownerOf(i) == _owner) {\n        result[counter] = lips[i];\n        counter++;\n      }\n    }\n    return result;\n  }\n\n  function getOwnerTools(address _owner) public view returns (Tool[] memory) {\n    Tool[] memory resultTool = new Tool[](tools.length-AlreadyUsed);\n    uint256 counterT = 0;\n    for (uint256 i = 0; i < tools.length; i++) {\n      if(!_exists(tools[i].id)){\n        continue;\n      }\n      if (ownerOf(tools[i].id) == _owner) {\n        resultTool[counterT] = tools[i];\n        counterT++;\n      }\n    }\n    return resultTool;\n  }\n\n \n\n\n  // Actions\n  function levelUp(uint256 _lipId) public {\n    require(ownerOf(_lipId) == msg.sender);\n    Lip storage lip = lips[_lipId];\n    if(lip.rarity<=20){\n      require(lip.ableToLevel == 10, \"Lip is not ready to level up yet\");\n     \n    }\n    if(lip.rarity>20 && lip.rarity<=40){\n      require(lip.ableToLevel == 8, \"Lip is not ready to level up yet\");\n     \n    }\n    if(lip.rarity>40 && lip.rarity<=60){\n      require(lip.ableToLevel == 6, \"Lip is not ready to level up yet\");\n      \n    }\n    if(lip.rarity>60 && lip.rarity<=80){\n      require(lip.ableToLevel == 4, \"Lip is not ready to level up yet\");\n      \n    }\n    if(lip.rarity>80 && lip.rarity<=100){\n      require(lip.ableToLevel == 3, \"Lip is not ready to level up yet\");\n      \n    }\n    lip.level++;\n    lip.ableToLevel = 0;\n  }\n}",
  "sourcePath": "E:\\FYP\\TreesTogether React\\nft_game\\contracts\\LipToken.sol",
  "compiler": {
    "name": "solc",
    "version": "0.8.17+commit.8df45f5f.Emscripten.clang"
  },
  "schemaVersion": "3.4.10",
  "updatedAt": "2023-03-19T10:21:04.957Z",
  "networkType": "ethereum",
  "devdoc": {
    "kind": "dev",
    "methods": {
      "approve(address,uint256)": {
        "details": "See {IERC721-approve}."
      },
      "balanceOf(address)": {
        "details": "See {IERC721-balanceOf}."
      },
      "getApproved(uint256)": {
        "details": "See {IERC721-getApproved}."
      },
      "isApprovedForAll(address,address)": {
        "details": "See {IERC721-isApprovedForAll}."
      },
      "name()": {
        "details": "See {IERC721Metadata-name}."
      },
      "owner()": {
        "details": "Returns the address of the current owner."
      },
      "ownerOf(uint256)": {
        "details": "See {IERC721-ownerOf}."
      },
      "renounceOwnership()": {
        "details": "Leaves the contract without owner. It will not be possible to call `onlyOwner` functions anymore. Can only be called by the current owner. NOTE: Renouncing ownership will leave the contract without an owner, thereby removing any functionality that is only available to the owner."
      },
      "safeTransferFrom(address,address,uint256)": {
        "details": "See {IERC721-safeTransferFrom}."
      },
      "safeTransferFrom(address,address,uint256,bytes)": {
        "details": "See {IERC721-safeTransferFrom}."
      },
      "setApprovalForAll(address,bool)": {
        "details": "See {IERC721-setApprovalForAll}."
      },
      "supportsInterface(bytes4)": {
        "details": "See {IERC165-supportsInterface}."
      },
      "symbol()": {
        "details": "See {IERC721Metadata-symbol}."
      },
      "tokenURI(uint256)": {
        "details": "See {IERC721Metadata-tokenURI}."
      },
      "transferFrom(address,address,uint256)": {
        "details": "See {IERC721-transferFrom}."
      },
      "transferOwnership(address)": {
        "details": "Transfers ownership of the contract to a new account (`newOwner`). Can only be called by the current owner."
      }
    },
    "version": 1
  },
  "userdoc": {
    "kind": "user",
    "methods": {},
    "version": 1
  }
}