{
  "contractName": "LipToken",
  "abi": [
    {
      "inputs": [
        {
          "internalType": "string",
          "name": "_name",
          "type": "string"
        },
        {
          "internalType": "string",
          "name": "_symbol",
          "type": "string"
        }
      ],
      "stateMutability": "nonpayable",
      "type": "constructor"
    },
    {
      "anonymous": false,
      "inputs": [
        {
          "indexed": true,
          "internalType": "address",
          "name": "owner",
          "type": "address"
        },
        {
          "indexed": true,
          "internalType": "address",
          "name": "approved",
          "type": "address"
        },
        {
          "indexed": true,
          "internalType": "uint256",
          "name": "tokenId",
          "type": "uint256"
        }
      ],
      "name": "Approval",
      "type": "event"
    },
    {
      "anonymous": false,
      "inputs": [
        {
          "indexed": true,
          "internalType": "address",
          "name": "owner",
          "type": "address"
        },
        {
          "indexed": true,
          "internalType": "address",
          "name": "operator",
          "type": "address"
        },
        {
          "indexed": false,
          "internalType": "bool",
          "name": "approved",
          "type": "bool"
        }
      ],
      "name": "ApprovalForAll",
      "type": "event"
    },
    {
      "anonymous": false,
      "inputs": [
        {
          "indexed": true,
          "internalType": "address",
          "name": "owner",
          "type": "address"
        },
        {
          "indexed": false,
          "internalType": "uint256",
          "name": "id",
          "type": "uint256"
        },
        {
          "indexed": false,
          "internalType": "uint256",
          "name": "dna",
          "type": "uint256"
        }
      ],
      "name": "NewLip",
      "type": "event"
    },
    {
      "anonymous": false,
      "inputs": [
        {
          "indexed": true,
          "internalType": "address",
          "name": "owner",
          "type": "address"
        },
        {
          "indexed": false,
          "internalType": "uint256",
          "name": "id",
          "type": "uint256"
        }
      ],
      "name": "NewTool",
      "type": "event"
    },
    {
      "anonymous": false,
      "inputs": [
        {
          "indexed": true,
          "internalType": "address",
          "name": "previousOwner",
          "type": "address"
        },
        {
          "indexed": true,
          "internalType": "address",
          "name": "newOwner",
          "type": "address"
        }
      ],
      "name": "OwnershipTransferred",
      "type": "event"
    },
    {
      "anonymous": false,
      "inputs": [
        {
          "indexed": true,
          "internalType": "address",
          "name": "from",
          "type": "address"
        },
        {
          "indexed": true,
          "internalType": "address",
          "name": "to",
          "type": "address"
        },
        {
          "indexed": true,
          "internalType": "uint256",
          "name": "tokenId",
          "type": "uint256"
        }
      ],
      "name": "Transfer",
      "type": "event"
    },
    {
      "inputs": [
        {
          "internalType": "address",
          "name": "to",
          "type": "address"
        },
        {
          "internalType": "uint256",
          "name": "tokenId",
          "type": "uint256"
        }
      ],
      "name": "approve",
      "outputs": [],
      "stateMutability": "nonpayable",
      "type": "function"
    },
    {
      "inputs": [
        {
          "internalType": "address",
          "name": "owner",
          "type": "address"
        }
      ],
      "name": "balanceOf",
      "outputs": [
        {
          "internalType": "uint256",
          "name": "",
          "type": "uint256"
        }
      ],
      "stateMutability": "view",
      "type": "function",
      "constant": true
    },
    {
      "inputs": [
        {
          "internalType": "uint256",
          "name": "tokenId",
          "type": "uint256"
        }
      ],
      "name": "getApproved",
      "outputs": [
        {
          "internalType": "address",
          "name": "",
          "type": "address"
        }
      ],
      "stateMutability": "view",
      "type": "function",
      "constant": true
    },
    {
      "inputs": [
        {
          "internalType": "address",
          "name": "owner",
          "type": "address"
        },
        {
          "internalType": "address",
          "name": "operator",
          "type": "address"
        }
      ],
      "name": "isApprovedForAll",
      "outputs": [
        {
          "internalType": "bool",
          "name": "",
          "type": "bool"
        }
      ],
      "stateMutability": "view",
      "type": "function",
      "constant": true
    },
    {
      "inputs": [
        {
          "internalType": "uint256",
          "name": "",
          "type": "uint256"
        }
      ],
      "name": "lips",
      "outputs": [
        {
          "internalType": "string",
          "name": "name",
          "type": "string"
        },
        {
          "internalType": "uint256",
          "name": "id",
          "type": "uint256"
        },
        {
          "internalType": "uint256",
          "name": "dna",
          "type": "uint256"
        },
        {
          "internalType": "uint8",
          "name": "level",
          "type": "uint8"
        },
        {
          "internalType": "uint8",
          "name": "rarity",
          "type": "uint8"
        },
        {
          "internalType": "uint8",
          "name": "ableToLevel",
          "type": "uint8"
        }
      ],
      "stateMutability": "view",
      "type": "function",
      "constant": true
    },
    {
      "inputs": [],
      "name": "name",
      "outputs": [
        {
          "internalType": "string",
          "name": "",
          "type": "string"
        }
      ],
      "stateMutability": "view",
      "type": "function",
      "constant": true
    },
    {
      "inputs": [],
      "name": "owner",
      "outputs": [
        {
          "internalType": "address",
          "name": "",
          "type": "address"
        }
      ],
      "stateMutability": "view",
      "type": "function",
      "constant": true
    },
    {
      "inputs": [
        {
          "internalType": "uint256",
          "name": "tokenId",
          "type": "uint256"
        }
      ],
      "name": "ownerOf",
      "outputs": [
        {
          "internalType": "address",
          "name": "",
          "type": "address"
        }
      ],
      "stateMutability": "view",
      "type": "function",
      "constant": true
    },
    {
      "inputs": [],
      "name": "renounceOwnership",
      "outputs": [],
      "stateMutability": "nonpayable",
      "type": "function"
    },
    {
      "inputs": [
        {
          "internalType": "address",
          "name": "from",
          "type": "address"
        },
        {
          "internalType": "address",
          "name": "to",
          "type": "address"
        },
        {
          "internalType": "uint256",
          "name": "tokenId",
          "type": "uint256"
        }
      ],
      "name": "safeTransferFrom",
      "outputs": [],
      "stateMutability": "nonpayable",
      "type": "function"
    },
    {
      "inputs": [
        {
          "internalType": "address",
          "name": "from",
          "type": "address"
        },
        {
          "internalType": "address",
          "name": "to",
          "type": "address"
        },
        {
          "internalType": "uint256",
          "name": "tokenId",
          "type": "uint256"
        },
        {
          "internalType": "bytes",
          "name": "data",
          "type": "bytes"
        }
      ],
      "name": "safeTransferFrom",
      "outputs": [],
      "stateMutability": "nonpayable",
      "type": "function"
    },
    {
      "inputs": [
        {
          "internalType": "address",
          "name": "operator",
          "type": "address"
        },
        {
          "internalType": "bool",
          "name": "approved",
          "type": "bool"
        }
      ],
      "name": "setApprovalForAll",
      "outputs": [],
      "stateMutability": "nonpayable",
      "type": "function"
    },
    {
      "inputs": [
        {
          "internalType": "bytes4",
          "name": "interfaceId",
          "type": "bytes4"
        }
      ],
      "name": "supportsInterface",
      "outputs": [
        {
          "internalType": "bool",
          "name": "",
          "type": "bool"
        }
      ],
      "stateMutability": "view",
      "type": "function",
      "constant": true
    },
    {
      "inputs": [],
      "name": "symbol",
      "outputs": [
        {
          "internalType": "string",
          "name": "",
          "type": "string"
        }
      ],
      "stateMutability": "view",
      "type": "function",
      "constant": true
    },
    {
      "inputs": [
        {
          "internalType": "uint256",
          "name": "tokenId",
          "type": "uint256"
        }
      ],
      "name": "tokenURI",
      "outputs": [
        {
          "internalType": "string",
          "name": "",
          "type": "string"
        }
      ],
      "stateMutability": "view",
      "type": "function",
      "constant": true
    },
    {
      "inputs": [
        {
          "internalType": "uint256",
          "name": "",
          "type": "uint256"
        }
      ],
      "name": "toolType",
      "outputs": [
        {
          "internalType": "string",
          "name": "",
          "type": "string"
        }
      ],
      "stateMutability": "view",
      "type": "function",
      "constant": true
    },
    {
      "inputs": [
        {
          "internalType": "uint256",
          "name": "",
          "type": "uint256"
        }
      ],
      "name": "tools",
      "outputs": [
        {
          "internalType": "string",
          "name": "typeOfTool",
          "type": "string"
        },
        {
          "internalType": "uint256",
          "name": "id",
          "type": "uint256"
        },
        {
          "internalType": "uint8",
          "name": "rarity",
          "type": "uint8"
        }
      ],
      "stateMutability": "view",
      "type": "function",
      "constant": true
    },
    {
      "inputs": [
        {
          "internalType": "address",
          "name": "from",
          "type": "address"
        },
        {
          "internalType": "address",
          "name": "to",
          "type": "address"
        },
        {
          "internalType": "uint256",
          "name": "tokenId",
          "type": "uint256"
        }
      ],
      "name": "transferFrom",
      "outputs": [],
      "stateMutability": "nonpayable",
      "type": "function"
    },
    {
      "inputs": [
        {
          "internalType": "address",
          "name": "newOwner",
          "type": "address"
        }
      ],
      "name": "transferOwnership",
      "outputs": [],
      "stateMutability": "nonpayable",
      "type": "function"
    },
    {
      "inputs": [],
      "name": "pushString",
      "outputs": [],
      "stateMutability": "nonpayable",
      "type": "function"
    },
    {
      "inputs": [
        {
          "internalType": "uint256",
          "name": "_fee",
          "type": "uint256"
        }
      ],
      "name": "updateFee",
      "outputs": [],
      "stateMutability": "nonpayable",
      "type": "function"
    },
    {
      "inputs": [],
      "name": "withdraw",
      "outputs": [],
      "stateMutability": "payable",
      "type": "function",
      "payable": true
    },
    {
      "inputs": [
        {
          "internalType": "string",
          "name": "_name",
          "type": "string"
        }
      ],
      "name": "createRandomLip",
      "outputs": [],
      "stateMutability": "payable",
      "type": "function",
      "payable": true
    },
    {
      "inputs": [],
      "name": "createRandomTool",
      "outputs": [],
      "stateMutability": "payable",
      "type": "function",
      "payable": true
    },
    {
      "inputs": [
        {
          "internalType": "address",
          "name": "_owner",
          "type": "address"
        },
        {
          "internalType": "uint256",
          "name": "_lipId",
          "type": "uint256"
        },
        {
          "internalType": "uint256",
          "name": "_toolId",
          "type": "uint256"
        }
      ],
      "name": "useTool",
      "outputs": [],
      "stateMutability": "nonpayable",
      "type": "function"
    },
    {
      "inputs": [],
      "name": "getLips",
      "outputs": [
        {
          "components": [
            {
              "internalType": "string",
              "name": "name",
              "type": "string"
            },
            {
              "internalType": "uint256",
              "name": "id",
              "type": "uint256"
            },
            {
              "internalType": "uint256",
              "name": "dna",
              "type": "uint256"
            },
            {
              "internalType": "uint8",
              "name": "level",
              "type": "uint8"
            },
            {
              "internalType": "uint8",
              "name": "rarity",
              "type": "uint8"
            },
            {
              "internalType": "uint8",
              "name": "ableToLevel",
              "type": "uint8"
            }
          ],
          "internalType": "struct LipToken.Lip[]",
          "name": "",
          "type": "tuple[]"
        }
      ],
      "stateMutability": "view",
      "type": "function",
      "constant": true
    },
    {
      "inputs": [],
      "name": "getTools",
      "outputs": [
        {
          "components": [
            {
              "internalType": "string",
              "name": "typeOfTool",
              "type": "string"
            },
            {
              "internalType": "uint256",
              "name": "id",
              "type": "uint256"
            },
            {
              "internalType": "uint8",
              "name": "rarity",
              "type": "uint8"
            }
          ],
          "internalType": "struct LipToken.Tool[]",
          "name": "",
          "type": "tuple[]"
        }
      ],
      "stateMutability": "view",
      "type": "function",
      "constant": true
    },
    {
      "inputs": [
        {
          "internalType": "address",
          "name": "_owner",
          "type": "address"
        }
      ],
      "name": "getOwnerLips",
      "outputs": [
        {
          "components": [
            {
              "internalType": "string",
              "name": "name",
              "type": "string"
            },
            {
              "internalType": "uint256",
              "name": "id",
              "type": "uint256"
            },
            {
              "internalType": "uint256",
              "name": "dna",
              "type": "uint256"
            },
            {
              "internalType": "uint8",
              "name": "level",
              "type": "uint8"
            },
            {
              "internalType": "uint8",
              "name": "rarity",
              "type": "uint8"
            },
            {
              "internalType": "uint8",
              "name": "ableToLevel",
              "type": "uint8"
            }
          ],
          "internalType": "struct LipToken.Lip[]",
          "name": "",
          "type": "tuple[]"
        }
      ],
      "stateMutability": "view",
      "type": "function",
      "constant": true
    },
    {
      "inputs": [
        {
          "internalType": "address",
          "name": "_owner",
          "type": "address"
        }
      ],
      "name": "getOwnerTools",
      "outputs": [
        {
          "components": [
            {
              "internalType": "string",
              "name": "typeOfTool",
              "type": "string"
            },
            {
              "internalType": "uint256",
              "name": "id",
              "type": "uint256"
            },
            {
              "internalType": "uint8",
              "name": "rarity",
              "type": "uint8"
            }
          ],
          "internalType": "struct LipToken.Tool[]",
          "name": "",
          "type": "tuple[]"
        }
      ],
      "stateMutability": "view",
      "type": "function",
      "constant": true
    },
    {
      "inputs": [
        {
          "internalType": "uint256",
          "name": "_lipId",
          "type": "uint256"
        }
      ],
      "name": "levelUp",
      "outputs": [],
      "stateMutability": "nonpayable",
      "type": "function"
    }
  ],
  "bytecode": "0x6080604052600060085560006009556000600a553480156200002057600080fd5b50604051620055e1380380620055e18339818101604052810190620000469190620002f7565b81818160009081620000599190620005c7565b5080600190816200006b9190620005c7565b5050506200008e620000826200009660201b60201c565b6200009e60201b60201c565b5050620006ae565b600033905090565b6000600660009054906101000a900473ffffffffffffffffffffffffffffffffffffffff16905081600660006101000a81548173ffffffffffffffffffffffffffffffffffffffff021916908373ffffffffffffffffffffffffffffffffffffffff1602179055508173ffffffffffffffffffffffffffffffffffffffff168173ffffffffffffffffffffffffffffffffffffffff167f8be0079c531659141344cd1fd0a4f28419497f9722a3daafe3b4186f6b6457e060405160405180910390a35050565b6000604051905090565b600080fd5b600080fd5b600080fd5b600080fd5b6000601f19601f8301169050919050565b7f4e487b7100000000000000000000000000000000000000000000000000000000600052604160045260246000fd5b620001cd8262000182565b810181811067ffffffffffffffff82111715620001ef57620001ee62000193565b5b80604052505050565b60006200020462000164565b9050620002128282620001c2565b919050565b600067ffffffffffffffff82111562000235576200023462000193565b5b620002408262000182565b9050602081019050919050565b60005b838110156200026d57808201518184015260208101905062000250565b60008484015250505050565b6000620002906200028a8462000217565b620001f8565b905082815260208101848484011115620002af57620002ae6200017d565b5b620002bc8482856200024d565b509392505050565b600082601f830112620002dc57620002db62000178565b5b8151620002ee84826020860162000279565b91505092915050565b600080604083850312156200031157620003106200016e565b5b600083015167ffffffffffffffff81111562000332576200033162000173565b5b6200034085828601620002c4565b925050602083015167ffffffffffffffff81111562000364576200036362000173565b5b6200037285828601620002c4565b9150509250929050565b600081519050919050565b7f4e487b7100000000000000000000000000000000000000000000000000000000600052602260045260246000fd5b60006002820490506001821680620003cf57607f821691505b602082108103620003e557620003e462000387565b5b50919050565b60008190508160005260206000209050919050565b60006020601f8301049050919050565b600082821b905092915050565b6000600883026200044f7fffffffffffffffffffffffffffffffffffffffffffffffffffffffffffffffff8262000410565b6200045b868362000410565b95508019841693508086168417925050509392505050565b6000819050919050565b6000819050919050565b6000620004a8620004a26200049c8462000473565b6200047d565b62000473565b9050919050565b6000819050919050565b620004c48362000487565b620004dc620004d382620004af565b8484546200041d565b825550505050565b600090565b620004f3620004e4565b62000500818484620004b9565b505050565b5b8181101562000528576200051c600082620004e9565b60018101905062000506565b5050565b601f82111562000577576200054181620003eb565b6200054c8462000400565b810160208510156200055c578190505b620005746200056b8562000400565b83018262000505565b50505b505050565b600082821c905092915050565b60006200059c600019846008026200057c565b1980831691505092915050565b6000620005b7838362000589565b9150826002028217905092915050565b620005d2826200037c565b67ffffffffffffffff811115620005ee57620005ed62000193565b5b620005fa8254620003b6565b620006078282856200052c565b600060209050601f8311600181146200063f57600084156200062a578287015190505b620006368582620005a9565b865550620006a6565b601f1984166200064f86620003eb565b60005b82811015620006795784890151825560018201915060208501945060208101905062000652565b8683101562000699578489015162000695601f89168262000589565b8355505b6001600288020188555050505b505050505050565b614f2380620006be6000396000f3fe6080604052600436106101cd5760003560e01c806383b5daf7116100f7578063b8d6500611610095578063e985e9c511610064578063e985e9c514610664578063eb7932c8146106a1578063f2fde38b146106b8578063f6abb217146106e1576101cd565b8063b8d65006146105b5578063bc60c31d146105de578063c87b56dd1461061d578063e68b2b9a1461065a576101cd565b80639012c4a8116100d15780639012c4a81461050f57806395d89b4114610538578063a22cb46514610563578063b88d4fde1461058c576101cd565b806383b5daf71461047c5780638c0b9c54146104a75780638da5cb5b146104e4576101cd565b806342842e0e1161016f578063698d640c1161013e578063698d640c146103e157806370a08231146103fd578063715018a61461043a5780637c455b8b14610451576101cd565b806342842e0e146102fc57806348a9a560146103255780635ec163db146103625780636352211e146103a4576101cd565b8063095ea7b3116101ab578063095ea7b3146102775780630ce90ec2146102a057806323b872dd146102c95780633ccfd60b146102f2576101cd565b806301ffc9a7146101d257806306fdde031461020f578063081812fc1461023a575b600080fd5b3480156101de57600080fd5b506101f960048036038101906101f49190613559565b61071e565b60405161020691906135a1565b60405180910390f35b34801561021b57600080fd5b50610224610800565b604051610231919061364c565b60405180910390f35b34801561024657600080fd5b50610261600480360381019061025c91906136a4565b610892565b60405161026e9190613712565b60405180910390f35b34801561028357600080fd5b5061029e60048036038101906102999190613759565b6108d8565b005b3480156102ac57600080fd5b506102c760048036038101906102c291906136a4565b6109ef565b005b3480156102d557600080fd5b506102f060048036038101906102eb9190613799565b610b08565b005b6102fa610b68565b005b34801561030857600080fd5b50610323600480360381019061031e9190613799565b610bc6565b005b34801561033157600080fd5b5061034c600480360381019061034791906136a4565b610be6565b604051610359919061364c565b60405180910390f35b34801561036e57600080fd5b50610389600480360381019061038491906136a4565b610c92565b60405161039b96959493929190613817565b60405180910390f35b3480156103b057600080fd5b506103cb60048036038101906103c691906136a4565b610d8d565b6040516103d89190613712565b60405180910390f35b6103fb60048036038101906103f691906139b4565b610e13565b005b34801561040957600080fd5b50610424600480360381019061041f91906139fd565b610e2e565b6040516104319190613a2a565b60405180910390f35b34801561044657600080fd5b5061044f610ee5565b005b34801561045d57600080fd5b50610466610ef9565b6040516104739190613bbf565b60405180910390f35b34801561048857600080fd5b50610491611011565b60405161049e9190613d2c565b60405180910390f35b3480156104b357600080fd5b506104ce60048036038101906104c991906139fd565b61116d565b6040516104db9190613d2c565b60405180910390f35b3480156104f057600080fd5b506104f961138d565b6040516105069190613712565b60405180910390f35b34801561051b57600080fd5b50610536600480360381019061053191906136a4565b6113b7565b005b34801561054457600080fd5b5061054d6113c9565b60405161055a919061364c565b60405180910390f35b34801561056f57600080fd5b5061058a60048036038101906105859190613d7a565b61145b565b005b34801561059857600080fd5b506105b360048036038101906105ae9190613e5b565b611471565b005b3480156105c157600080fd5b506105dc60048036038101906105d79190613ede565b6114d3565b005b3480156105ea57600080fd5b50610605600480360381019061060091906136a4565b611975565b60405161061493929190613f31565b60405180910390f35b34801561062957600080fd5b50610644600480360381019061063f91906136a4565b611a44565b604051610651919061364c565b60405180910390f35b610662611aac565b005b34801561067057600080fd5b5061068b60048036038101906106869190613f6f565b611ac5565b60405161069891906135a1565b60405180910390f35b3480156106ad57600080fd5b506106b6611b59565b005b3480156106c457600080fd5b506106df60048036038101906106da91906139fd565b611c90565b005b3480156106ed57600080fd5b50610708600480360381019061070391906139fd565b611d13565b6040516107159190613bbf565b60405180910390f35b60007f80ac58cd000000000000000000000000000000000000000000000000000000007bffffffffffffffffffffffffffffffffffffffffffffffffffffffff1916827bffffffffffffffffffffffffffffffffffffffffffffffffffffffff191614806107e957507f5b5e139f000000000000000000000000000000000000000000000000000000007bffffffffffffffffffffffffffffffffffffffffffffffffffffffff1916827bffffffffffffffffffffffffffffffffffffffffffffffffffffffff1916145b806107f957506107f882611f55565b5b9050919050565b60606000805461080f90613fde565b80601f016020809104026020016040519081016040528092919081815260200182805461083b90613fde565b80156108885780601f1061085d57610100808354040283529160200191610888565b820191906000526020600020905b81548152906001019060200180831161086b57829003601f168201915b5050505050905090565b600061089d82611fbf565b6004600083815260200190815260200160002060009054906101000a900473ffffffffffffffffffffffffffffffffffffffff169050919050565b60006108e382610d8d565b90508073ffffffffffffffffffffffffffffffffffffffff168373ffffffffffffffffffffffffffffffffffffffff1603610953576040517f08c379a000000000000000000000000000000000000000000000000000000000815260040161094a90614081565b60405180910390fd5b8073ffffffffffffffffffffffffffffffffffffffff1661097261200a565b73ffffffffffffffffffffffffffffffffffffffff1614806109a157506109a08161099b61200a565b611ac5565b5b6109e0576040517f08c379a00000000000000000000000000000000000000000000000000000000081526004016109d790614113565b60405180910390fd5b6109ea8383612012565b505050565b3373ffffffffffffffffffffffffffffffffffffffff16610a0f82610d8d565b73ffffffffffffffffffffffffffffffffffffffff1614610a2f57600080fd5b6000600c8281548110610a4557610a44614133565b5b9060005260206000209060040201905060038160030160029054906101000a900460ff1660ff1614610aac576040517f08c379a0000000000000000000000000000000000000000000000000000000008152600401610aa3906141ae565b60405180910390fd5b80600301600081819054906101000a900460ff1680929190610acd906141fd565b91906101000a81548160ff021916908360ff1602179055505060008160030160026101000a81548160ff021916908360ff1602179055505050565b610b19610b1361200a565b826120cb565b610b58576040517f08c379a0000000000000000000000000000000000000000000000000000000008152600401610b4f90614298565b60405180910390fd5b610b63838383612160565b505050565b610b70612459565b6000610b7a61138d565b90508073ffffffffffffffffffffffffffffffffffffffff166108fc479081150290604051600060405180830381858888f19350505050158015610bc2573d6000803e3d6000fd5b5050565b610be183838360405180602001604052806000815250611471565b505050565b600b8181548110610bf657600080fd5b906000526020600020016000915090508054610c1190613fde565b80601f0160208091040260200160405190810160405280929190818152602001828054610c3d90613fde565b8015610c8a5780601f10610c5f57610100808354040283529160200191610c8a565b820191906000526020600020905b815481529060010190602001808311610c6d57829003601f168201915b505050505081565b600c8181548110610ca257600080fd5b9060005260206000209060040201600091509050806000018054610cc590613fde565b80601f0160208091040260200160405190810160405280929190818152602001828054610cf190613fde565b8015610d3e5780601f10610d1357610100808354040283529160200191610d3e565b820191906000526020600020905b815481529060010190602001808311610d2157829003601f168201915b5050505050908060010154908060020154908060030160009054906101000a900460ff16908060030160019054906101000a900460ff16908060030160029054906101000a900460ff16905086565b600080610d99836124d7565b9050600073ffffffffffffffffffffffffffffffffffffffff168173ffffffffffffffffffffffffffffffffffffffff1603610e0a576040517f08c379a0000000000000000000000000000000000000000000000000000000008152600401610e0190614304565b60405180910390fd5b80915050919050565b600954341015610e2257600080fd5b610e2b81612514565b50565b60008073ffffffffffffffffffffffffffffffffffffffff168273ffffffffffffffffffffffffffffffffffffffff1603610e9e576040517f08c379a0000000000000000000000000000000000000000000000000000000008152600401610e9590614396565b60405180910390fd5b600360008373ffffffffffffffffffffffffffffffffffffffff1673ffffffffffffffffffffffffffffffffffffffff168152602001908152602001600020549050919050565b610eed612459565b610ef760006126ab565b565b6060600d805480602002602001604051908101604052809291908181526020016000905b828210156110085783829060005260206000209060030201604051806060016040529081600082018054610f5090613fde565b80601f0160208091040260200160405190810160405280929190818152602001828054610f7c90613fde565b8015610fc95780601f10610f9e57610100808354040283529160200191610fc9565b820191906000526020600020905b815481529060010190602001808311610fac57829003601f168201915b50505050508152602001600182015481526020016002820160009054906101000a900460ff1660ff1660ff168152505081526020019060010190610f1d565b50505050905090565b6060600c805480602002602001604051908101604052809291908181526020016000905b8282101561116457838290600052602060002090600402016040518060c001604052908160008201805461106890613fde565b80601f016020809104026020016040519081016040528092919081815260200182805461109490613fde565b80156110e15780601f106110b6576101008083540402835291602001916110e1565b820191906000526020600020905b8154815290600101906020018083116110c457829003601f168201915b5050505050815260200160018201548152602001600282015481526020016003820160009054906101000a900460ff1660ff1660ff1681526020016003820160019054906101000a900460ff1660ff1660ff1681526020016003820160029054906101000a900460ff1660ff1660ff168152505081526020019060010190611035565b50505050905090565b60606000600c8054905067ffffffffffffffff8111156111905761118f613889565b5b6040519080825280602002602001820160405280156111c957816020015b6111b661348a565b8152602001906001900390816111ae5790505b5090506000805b600c80549050811015611382578473ffffffffffffffffffffffffffffffffffffffff166111fd82610d8d565b73ffffffffffffffffffffffffffffffffffffffff160361136f57600c818154811061122c5761122b614133565b5b90600052602060002090600402016040518060c001604052908160008201805461125590613fde565b80601f016020809104026020016040519081016040528092919081815260200182805461128190613fde565b80156112ce5780601f106112a3576101008083540402835291602001916112ce565b820191906000526020600020905b8154815290600101906020018083116112b157829003601f168201915b5050505050815260200160018201548152602001600282015481526020016003820160009054906101000a900460ff1660ff1660ff1681526020016003820160019054906101000a900460ff1660ff1660ff1681526020016003820160029054906101000a900460ff1660ff1660ff168152505083838151811061135557611354614133565b5b6020026020010181905250818061136b906143b6565b9250505b808061137a906143b6565b9150506111d0565b508192505050919050565b6000600660009054906101000a900473ffffffffffffffffffffffffffffffffffffffff16905090565b6113bf612459565b8060098190555050565b6060600180546113d890613fde565b80601f016020809104026020016040519081016040528092919081815260200182805461140490613fde565b80156114515780601f1061142657610100808354040283529160200191611451565b820191906000526020600020905b81548152906001019060200180831161143457829003601f168201915b5050505050905090565b61146d61146661200a565b8383612771565b5050565b61148261147c61200a565b836120cb565b6114c1576040517f08c379a00000000000000000000000000000000000000000000000000000000081526004016114b890614298565b60405180910390fd5b6114cd848484846128dd565b50505050565b60008060005b600d80549050811015611582576114ef81612939565b1561156f578573ffffffffffffffffffffffffffffffffffffffff1661151482610d8d565b73ffffffffffffffffffffffffffffffffffffffff160361153e57818061153a906143b6565b9250505b83600d828154811061155357611552614133565b5b9060005260206000209060030201600101540361156e578092505b5b808061157a906143b6565b9150506114d9565b5060008060005b600c805490508110156116325761159f81612939565b1561161f578773ffffffffffffffffffffffffffffffffffffffff166115c482610d8d565b73ffffffffffffffffffffffffffffffffffffffff16036115ee5781806115ea906143b6565b9250505b86600c828154811061160357611602614133565b5b9060005260206000209060040201600101540361161e578092505b5b808061162a906143b6565b915050611589565b503373ffffffffffffffffffffffffffffffffffffffff1661165386610d8d565b73ffffffffffffffffffffffffffffffffffffffff16146116a9576040517f08c379a00000000000000000000000000000000000000000000000000000000081526004016116a09061444a565b60405180910390fd5b3373ffffffffffffffffffffffffffffffffffffffff166116c987610d8d565b73ffffffffffffffffffffffffffffffffffffffff161461171f576040517f08c379a0000000000000000000000000000000000000000000000000000000008152600401611716906144b6565b60405180910390fd5b6000600c838154811061173557611734614133565b5b9060005260206000209060040201905060038160030160029054906101000a900460ff1660ff161061179c576040517f08c379a000000000000000000000000000000000000000000000000000000000815260040161179390614522565b60405180910390fd5b6000600d86815481106117b2576117b1614133565b5b90600052602060002090600302016040518060600160405290816000820180546117db90613fde565b80601f016020809104026020016040519081016040528092919081815260200182805461180790613fde565b80156118545780601f1061182957610100808354040283529160200191611854565b820191906000526020600020905b81548152906001019060200180831161183757829003601f168201915b50505050508152602001600182015481526020016002820160009054906101000a900460ff1660ff1660ff168152505090506040518060400160405280600781526020017f73636973736f7200000000000000000000000000000000000000000000000000815250805190602001208160000151805190602001201461190f576040517f08c379a00000000000000000000000000000000000000000000000000000000081526004016119069061458e565b60405180910390fd5b60086000815480929190611922906143b6565b919050555081600301600281819054906101000a900460ff1680929190611948906141fd565b91906101000a81548160ff021916908360ff1602179055505061196a8761297a565b505050505050505050565b600d818154811061198557600080fd5b90600052602060002090600302016000915090508060000180546119a890613fde565b80601f01602080910402602001604051908101604052809291908181526020018280546119d490613fde565b8015611a215780601f106119f657610100808354040283529160200191611a21565b820191906000526020600020905b815481529060010190602001808311611a0457829003601f168201915b5050505050908060010154908060020160009054906101000a900460ff16905083565b6060611a4f82611fbf565b6000611a59612ac8565b90506000815111611a795760405180602001604052806000815250611aa4565b80611a8384612adf565b604051602001611a949291906145ea565b6040516020818303038152906040525b915050919050565b600a54341015611abb57600080fd5b611ac3612bad565b565b6000600560008473ffffffffffffffffffffffffffffffffffffffff1673ffffffffffffffffffffffffffffffffffffffff16815260200190815260200160002060008373ffffffffffffffffffffffffffffffffffffffff1673ffffffffffffffffffffffffffffffffffffffff16815260200190815260200160002060009054906101000a900460ff16905092915050565b600b80600181540180825580915050600190039060005260206000200160006040518060400160405280600581526020017f776174657200000000000000000000000000000000000000000000000000000081525090919091509081611bbf91906147ba565b50600b80600181540180825580915050600190039060005260206000200160006040518060400160405280600a81526020017f66657274696c697a65720000000000000000000000000000000000000000000081525090919091509081611c2691906147ba565b50600b80600181540180825580915050600190039060005260206000200160006040518060400160405280600781526020017f73636973736f720000000000000000000000000000000000000000000000000081525090919091509081611c8d91906147ba565b50565b611c98612459565b600073ffffffffffffffffffffffffffffffffffffffff168173ffffffffffffffffffffffffffffffffffffffff1603611d07576040517f08c379a0000000000000000000000000000000000000000000000000000000008152600401611cfe906148fe565b60405180910390fd5b611d10816126ab565b50565b60606000600854600d80549050611d2a919061491e565b67ffffffffffffffff811115611d4357611d42613889565b5b604051908082528060200260200182016040528015611d7c57816020015b611d696134c9565b815260200190600190039081611d615790505b5090506000805b600d80549050811015611f4a57611dbe600d8281548110611da757611da6614133565b5b906000526020600020906003020160010154612939565b15611f37578473ffffffffffffffffffffffffffffffffffffffff16611e08600d8381548110611df157611df0614133565b5b906000526020600020906003020160010154610d8d565b73ffffffffffffffffffffffffffffffffffffffff1603611f3657600d8181548110611e3757611e36614133565b5b9060005260206000209060030201604051806060016040529081600082018054611e6090613fde565b80601f0160208091040260200160405190810160405280929190818152602001828054611e8c90613fde565b8015611ed95780601f10611eae57610100808354040283529160200191611ed9565b820191906000526020600020905b815481529060010190602001808311611ebc57829003601f168201915b50505050508152602001600182015481526020016002820160009054906101000a900460ff1660ff1660ff1681525050838381518110611f1c57611f1b614133565b5b60200260200101819052508180611f32906143b6565b9250505b5b8080611f42906143b6565b915050611d83565b508192505050919050565b60007f01ffc9a7000000000000000000000000000000000000000000000000000000007bffffffffffffffffffffffffffffffffffffffffffffffffffffffff1916827bffffffffffffffffffffffffffffffffffffffffffffffffffffffff1916149050919050565b611fc881612939565b612007576040517f08c379a0000000000000000000000000000000000000000000000000000000008152600401611ffe90614304565b60405180910390fd5b50565b600033905090565b816004600083815260200190815260200160002060006101000a81548173ffffffffffffffffffffffffffffffffffffffff021916908373ffffffffffffffffffffffffffffffffffffffff160217905550808273ffffffffffffffffffffffffffffffffffffffff1661208583610d8d565b73ffffffffffffffffffffffffffffffffffffffff167f8c5be1e5ebec7d5bd14f71427d1e84f3dd0314c0f7b2291e5b200ac8c7c3b92560405160405180910390a45050565b6000806120d783610d8d565b90508073ffffffffffffffffffffffffffffffffffffffff168473ffffffffffffffffffffffffffffffffffffffff16148061211957506121188185611ac5565b5b8061215757508373ffffffffffffffffffffffffffffffffffffffff1661213f84610892565b73ffffffffffffffffffffffffffffffffffffffff16145b91505092915050565b8273ffffffffffffffffffffffffffffffffffffffff1661218082610d8d565b73ffffffffffffffffffffffffffffffffffffffff16146121d6576040517f08c379a00000000000000000000000000000000000000000000000000000000081526004016121cd906149c4565b60405180910390fd5b600073ffffffffffffffffffffffffffffffffffffffff168273ffffffffffffffffffffffffffffffffffffffff1603612245576040517f08c379a000000000000000000000000000000000000000000000000000000000815260040161223c90614a56565b60405180910390fd5b6122528383836001612d86565b8273ffffffffffffffffffffffffffffffffffffffff1661227282610d8d565b73ffffffffffffffffffffffffffffffffffffffff16146122c8576040517f08c379a00000000000000000000000000000000000000000000000000000000081526004016122bf906149c4565b60405180910390fd5b6004600082815260200190815260200160002060006101000a81549073ffffffffffffffffffffffffffffffffffffffff02191690556001600360008573ffffffffffffffffffffffffffffffffffffffff1673ffffffffffffffffffffffffffffffffffffffff168152602001908152602001600020600082825403925050819055506001600360008473ffffffffffffffffffffffffffffffffffffffff1673ffffffffffffffffffffffffffffffffffffffff16815260200190815260200160002060008282540192505081905550816002600083815260200190815260200160002060006101000a81548173ffffffffffffffffffffffffffffffffffffffff021916908373ffffffffffffffffffffffffffffffffffffffff160217905550808273ffffffffffffffffffffffffffffffffffffffff168473ffffffffffffffffffffffffffffffffffffffff167fddf252ad1be2c89b69c2b068fc378daa952ba7f163c4a11628f55a4df523b3ef60405160405180910390a46124548383836001612eac565b505050565b61246161200a565b73ffffffffffffffffffffffffffffffffffffffff1661247f61138d565b73ffffffffffffffffffffffffffffffffffffffff16146124d5576040517f08c379a00000000000000000000000000000000000000000000000000000000081526004016124cc90614ac2565b60405180910390fd5b565b60006002600083815260200190815260200160002060009054906101000a900473ffffffffffffffffffffffffffffffffffffffff169050919050565b60006125206064612eb2565b90506000612534662386f26fc10000612eb2565b905060006040518060c001604052808581526020016007548152602001838152602001600160ff1681526020018460ff168152602001600060ff168152509050600c81908060018154018082558091505060019003906000526020600020906004020160009091909190915060008201518160000190816125b591906147ba565b50602082015181600101556040820151816002015560608201518160030160006101000a81548160ff021916908360ff16021790555060808201518160030160016101000a81548160ff021916908360ff16021790555060a08201518160030160026101000a81548160ff021916908360ff160217905550505061263b33600754612ef7565b3373ffffffffffffffffffffffffffffffffffffffff167f24d2d558f98bdd9d21339e119fc0b03e213c7d05affd838ac2ee136d90e3bbeb60075484604051612685929190614ae2565b60405180910390a2600760008154809291906126a0906143b6565b919050555050505050565b6000600660009054906101000a900473ffffffffffffffffffffffffffffffffffffffff16905081600660006101000a81548173ffffffffffffffffffffffffffffffffffffffff021916908373ffffffffffffffffffffffffffffffffffffffff1602179055508173ffffffffffffffffffffffffffffffffffffffff168173ffffffffffffffffffffffffffffffffffffffff167f8be0079c531659141344cd1fd0a4f28419497f9722a3daafe3b4186f6b6457e060405160405180910390a35050565b8173ffffffffffffffffffffffffffffffffffffffff168373ffffffffffffffffffffffffffffffffffffffff16036127df576040517f08c379a00000000000000000000000000000000000000000000000000000000081526004016127d690614b57565b60405180910390fd5b80600560008573ffffffffffffffffffffffffffffffffffffffff1673ffffffffffffffffffffffffffffffffffffffff16815260200190815260200160002060008473ffffffffffffffffffffffffffffffffffffffff1673ffffffffffffffffffffffffffffffffffffffff16815260200190815260200160002060006101000a81548160ff0219169083151502179055508173ffffffffffffffffffffffffffffffffffffffff168373ffffffffffffffffffffffffffffffffffffffff167f17307eab39ab6107e8899845ad3d59bd9653f200f220920489ca2b5937696c31836040516128d091906135a1565b60405180910390a3505050565b6128e8848484612160565b6128f484848484612f15565b612933576040517f08c379a000000000000000000000000000000000000000000000000000000000815260040161292a90614be9565b60405180910390fd5b50505050565b60008073ffffffffffffffffffffffffffffffffffffffff1661295b836124d7565b73ffffffffffffffffffffffffffffffffffffffff1614159050919050565b600061298582610d8d565b9050612995816000846001612d86565b61299e82610d8d565b90506004600083815260200190815260200160002060006101000a81549073ffffffffffffffffffffffffffffffffffffffff02191690556001600360008373ffffffffffffffffffffffffffffffffffffffff1673ffffffffffffffffffffffffffffffffffffffff168152602001908152602001600020600082825403925050819055506002600083815260200190815260200160002060006101000a81549073ffffffffffffffffffffffffffffffffffffffff021916905581600073ffffffffffffffffffffffffffffffffffffffff168273ffffffffffffffffffffffffffffffffffffffff167fddf252ad1be2c89b69c2b068fc378daa952ba7f163c4a11628f55a4df523b3ef60405160405180910390a4612ac4816000846001612eac565b5050565b606060405180602001604052806000815250905090565b606060006001612aee8461309c565b01905060008167ffffffffffffffff811115612b0d57612b0c613889565b5b6040519080825280601f01601f191660200182016040528015612b3f5781602001600182028036833780820191505090505b509050600082602001820190505b600115612ba2578080600190039150507f3031323334353637383961626364656600000000000000000000000000000000600a86061a8153600a8581612b9657612b95614c09565b5b04945060008503612b4d575b819350505050919050565b612bb5611b59565b6000612bc1600a612eb2565b90506000600b612bd16003612eb2565b60ff1681548110612be557612be4614133565b5b906000526020600020018054612bfa90613fde565b80601f0160208091040260200160405190810160405280929190818152602001828054612c2690613fde565b8015612c735780601f10612c4857610100808354040283529160200191612c73565b820191906000526020600020905b815481529060010190602001808311612c5657829003601f168201915b505050505090506000604051806060016040528083815260200160075481526020018460ff168152509050600d8190806001815401808255809150506001900390600052602060002090600302016000909190919091506000820151816000019081612cdf91906147ba565b506020820151816001015560408201518160020160006101000a81548160ff021916908360ff1602179055505050612d1933600754612ef7565b3373ffffffffffffffffffffffffffffffffffffffff167f2677635a56817fc92b34099ae5ad556fbb7baf80e593c4e79f15a9037b367d6c600754604051612d619190613a2a565b60405180910390a260076000815480929190612d7c906143b6565b9190505550505050565b6001811115612ea657600073ffffffffffffffffffffffffffffffffffffffff168473ffffffffffffffffffffffffffffffffffffffff1614612e1a5780600360008673ffffffffffffffffffffffffffffffffffffffff1673ffffffffffffffffffffffffffffffffffffffff1681526020019081526020016000206000828254612e12919061491e565b925050819055505b600073ffffffffffffffffffffffffffffffffffffffff168373ffffffffffffffffffffffffffffffffffffffff1614612ea55780600360008573ffffffffffffffffffffffffffffffffffffffff1673ffffffffffffffffffffffffffffffffffffffff1681526020019081526020016000206000828254612e9d9190614c38565b925050819055505b5b50505050565b50505050565b6000804233604051602001612ec8929190614cd5565b6040516020818303038152906040528051906020012060001c90508281612eef9190614d01565b915050919050565b612f118282604051806020016040528060008152506131ef565b5050565b6000612f368473ffffffffffffffffffffffffffffffffffffffff1661324a565b1561308f578373ffffffffffffffffffffffffffffffffffffffff1663150b7a02612f5f61200a565b8786866040518563ffffffff1660e01b8152600401612f819493929190614d87565b6020604051808303816000875af1925050508015612fbd57506040513d601f19601f82011682018060405250810190612fba9190614de8565b60015b61303f573d8060008114612fed576040519150601f19603f3d011682016040523d82523d6000602084013e612ff2565b606091505b506000815103613037576040517f08c379a000000000000000000000000000000000000000000000000000000000815260040161302e90614be9565b60405180910390fd5b805181602001fd5b63150b7a0260e01b7bffffffffffffffffffffffffffffffffffffffffffffffffffffffff1916817bffffffffffffffffffffffffffffffffffffffffffffffffffffffff191614915050613094565b600190505b949350505050565b600080600090507a184f03e93ff9f4daa797ed6e38ed64bf6a1f01000000000000000083106130fa577a184f03e93ff9f4daa797ed6e38ed64bf6a1f01000000000000000083816130f0576130ef614c09565b5b0492506040810190505b6d04ee2d6d415b85acef81000000008310613137576d04ee2d6d415b85acef8100000000838161312d5761312c614c09565b5b0492506020810190505b662386f26fc10000831061316657662386f26fc10000838161315c5761315b614c09565b5b0492506010810190505b6305f5e100831061318f576305f5e100838161318557613184614c09565b5b0492506008810190505b61271083106131b45761271083816131aa576131a9614c09565b5b0492506004810190505b606483106131d757606483816131cd576131cc614c09565b5b0492506002810190505b600a83106131e6576001810190505b80915050919050565b6131f9838361326d565b6132066000848484612f15565b613245576040517f08c379a000000000000000000000000000000000000000000000000000000000815260040161323c90614be9565b60405180910390fd5b505050565b6000808273ffffffffffffffffffffffffffffffffffffffff163b119050919050565b600073ffffffffffffffffffffffffffffffffffffffff168273ffffffffffffffffffffffffffffffffffffffff16036132dc576040517f08c379a00000000000000000000000000000000000000000000000000000000081526004016132d390614e61565b60405180910390fd5b6132e581612939565b15613325576040517f08c379a000000000000000000000000000000000000000000000000000000000815260040161331c90614ecd565b60405180910390fd5b613333600083836001612d86565b61333c81612939565b1561337c576040517f08c379a000000000000000000000000000000000000000000000000000000000815260040161337390614ecd565b60405180910390fd5b6001600360008473ffffffffffffffffffffffffffffffffffffffff1673ffffffffffffffffffffffffffffffffffffffff16815260200190815260200160002060008282540192505081905550816002600083815260200190815260200160002060006101000a81548173ffffffffffffffffffffffffffffffffffffffff021916908373ffffffffffffffffffffffffffffffffffffffff160217905550808273ffffffffffffffffffffffffffffffffffffffff16600073ffffffffffffffffffffffffffffffffffffffff167fddf252ad1be2c89b69c2b068fc378daa952ba7f163c4a11628f55a4df523b3ef60405160405180910390a4613486600083836001612eac565b5050565b6040518060c00160405280606081526020016000815260200160008152602001600060ff168152602001600060ff168152602001600060ff1681525090565b60405180606001604052806060815260200160008152602001600060ff1681525090565b6000604051905090565b600080fd5b600080fd5b60007fffffffff0000000000000000000000000000000000000000000000000000000082169050919050565b61353681613501565b811461354157600080fd5b50565b6000813590506135538161352d565b92915050565b60006020828403121561356f5761356e6134f7565b5b600061357d84828501613544565b91505092915050565b60008115159050919050565b61359b81613586565b82525050565b60006020820190506135b66000830184613592565b92915050565b600081519050919050565b600082825260208201905092915050565b60005b838110156135f65780820151818401526020810190506135db565b60008484015250505050565b6000601f19601f8301169050919050565b600061361e826135bc565b61362881856135c7565b93506136388185602086016135d8565b61364181613602565b840191505092915050565b600060208201905081810360008301526136668184613613565b905092915050565b6000819050919050565b6136818161366e565b811461368c57600080fd5b50565b60008135905061369e81613678565b92915050565b6000602082840312156136ba576136b96134f7565b5b60006136c88482850161368f565b91505092915050565b600073ffffffffffffffffffffffffffffffffffffffff82169050919050565b60006136fc826136d1565b9050919050565b61370c816136f1565b82525050565b60006020820190506137276000830184613703565b92915050565b613736816136f1565b811461374157600080fd5b50565b6000813590506137538161372d565b92915050565b600080604083850312156137705761376f6134f7565b5b600061377e85828601613744565b925050602061378f8582860161368f565b9150509250929050565b6000806000606084860312156137b2576137b16134f7565b5b60006137c086828701613744565b93505060206137d186828701613744565b92505060406137e28682870161368f565b9150509250925092565b6137f58161366e565b82525050565b600060ff82169050919050565b613811816137fb565b82525050565b600060c08201905081810360008301526138318189613613565b905061384060208301886137ec565b61384d60408301876137ec565b61385a6060830186613808565b6138676080830185613808565b61387460a0830184613808565b979650505050505050565b600080fd5b600080fd5b7f4e487b7100000000000000000000000000000000000000000000000000000000600052604160045260246000fd5b6138c182613602565b810181811067ffffffffffffffff821117156138e0576138df613889565b5b80604052505050565b60006138f36134ed565b90506138ff82826138b8565b919050565b600067ffffffffffffffff82111561391f5761391e613889565b5b61392882613602565b9050602081019050919050565b82818337600083830152505050565b600061395761395284613904565b6138e9565b90508281526020810184848401111561397357613972613884565b5b61397e848285613935565b509392505050565b600082601f83011261399b5761399a61387f565b5b81356139ab848260208601613944565b91505092915050565b6000602082840312156139ca576139c96134f7565b5b600082013567ffffffffffffffff8111156139e8576139e76134fc565b5b6139f484828501613986565b91505092915050565b600060208284031215613a1357613a126134f7565b5b6000613a2184828501613744565b91505092915050565b6000602082019050613a3f60008301846137ec565b92915050565b600081519050919050565b600082825260208201905092915050565b6000819050602082019050919050565b600082825260208201905092915050565b6000613a8d826135bc565b613a978185613a71565b9350613aa78185602086016135d8565b613ab081613602565b840191505092915050565b613ac48161366e565b82525050565b613ad3816137fb565b82525050565b60006060830160008301518482036000860152613af68282613a82565b9150506020830151613b0b6020860182613abb565b506040830151613b1e6040860182613aca565b508091505092915050565b6000613b358383613ad9565b905092915050565b6000602082019050919050565b6000613b5582613a45565b613b5f8185613a50565b935083602082028501613b7185613a61565b8060005b85811015613bad5784840389528151613b8e8582613b29565b9450613b9983613b3d565b925060208a01995050600181019050613b75565b50829750879550505050505092915050565b60006020820190508181036000830152613bd98184613b4a565b905092915050565b600081519050919050565b600082825260208201905092915050565b6000819050602082019050919050565b600060c0830160008301518482036000860152613c2a8282613a82565b9150506020830151613c3f6020860182613abb565b506040830151613c526040860182613abb565b506060830151613c656060860182613aca565b506080830151613c786080860182613aca565b5060a0830151613c8b60a0860182613aca565b508091505092915050565b6000613ca28383613c0d565b905092915050565b6000602082019050919050565b6000613cc282613be1565b613ccc8185613bec565b935083602082028501613cde85613bfd565b8060005b85811015613d1a5784840389528151613cfb8582613c96565b9450613d0683613caa565b925060208a01995050600181019050613ce2565b50829750879550505050505092915050565b60006020820190508181036000830152613d468184613cb7565b905092915050565b613d5781613586565b8114613d6257600080fd5b50565b600081359050613d7481613d4e565b92915050565b60008060408385031215613d9157613d906134f7565b5b6000613d9f85828601613744565b9250506020613db085828601613d65565b9150509250929050565b600067ffffffffffffffff821115613dd557613dd4613889565b5b613dde82613602565b9050602081019050919050565b6000613dfe613df984613dba565b6138e9565b905082815260208101848484011115613e1a57613e19613884565b5b613e25848285613935565b509392505050565b600082601f830112613e4257613e4161387f565b5b8135613e52848260208601613deb565b91505092915050565b60008060008060808587031215613e7557613e746134f7565b5b6000613e8387828801613744565b9450506020613e9487828801613744565b9350506040613ea58782880161368f565b925050606085013567ffffffffffffffff811115613ec657613ec56134fc565b5b613ed287828801613e2d565b91505092959194509250565b600080600060608486031215613ef757613ef66134f7565b5b6000613f0586828701613744565b9350506020613f168682870161368f565b9250506040613f278682870161368f565b9150509250925092565b60006060820190508181036000830152613f4b8186613613565b9050613f5a60208301856137ec565b613f676040830184613808565b949350505050565b60008060408385031215613f8657613f856134f7565b5b6000613f9485828601613744565b9250506020613fa585828601613744565b9150509250929050565b7f4e487b7100000000000000000000000000000000000000000000000000000000600052602260045260246000fd5b60006002820490506001821680613ff657607f821691505b60208210810361400957614008613faf565b5b50919050565b7f4552433732313a20617070726f76616c20746f2063757272656e74206f776e6560008201527f7200000000000000000000000000000000000000000000000000000000000000602082015250565b600061406b6021836135c7565b91506140768261400f565b604082019050919050565b6000602082019050818103600083015261409a8161405e565b9050919050565b7f4552433732313a20617070726f76652063616c6c6572206973206e6f7420746f60008201527f6b656e206f776e6572206f7220617070726f76656420666f7220616c6c000000602082015250565b60006140fd603d836135c7565b9150614108826140a1565b604082019050919050565b6000602082019050818103600083015261412c816140f0565b9050919050565b7f4e487b7100000000000000000000000000000000000000000000000000000000600052603260045260246000fd5b7f4c6970206973206e6f7420726561647920746f206c6576656c20757020796574600082015250565b60006141986020836135c7565b91506141a382614162565b602082019050919050565b600060208201905081810360008301526141c78161418b565b9050919050565b7f4e487b7100000000000000000000000000000000000000000000000000000000600052601160045260246000fd5b6000614208826137fb565b915060ff820361421b5761421a6141ce565b5b600182019050919050565b7f4552433732313a2063616c6c6572206973206e6f7420746f6b656e206f776e6560008201527f72206f7220617070726f76656400000000000000000000000000000000000000602082015250565b6000614282602d836135c7565b915061428d82614226565b604082019050919050565b600060208201905081810360008301526142b181614275565b9050919050565b7f4552433732313a20696e76616c696420746f6b656e2049440000000000000000600082015250565b60006142ee6018836135c7565b91506142f9826142b8565b602082019050919050565b6000602082019050818103600083015261431d816142e1565b9050919050565b7f4552433732313a2061646472657373207a65726f206973206e6f74206120766160008201527f6c6964206f776e65720000000000000000000000000000000000000000000000602082015250565b60006143806029836135c7565b915061438b82614324565b604082019050919050565b600060208201905081810360008301526143af81614373565b9050919050565b60006143c18261366e565b91507fffffffffffffffffffffffffffffffffffffffffffffffffffffffffffffffff82036143f3576143f26141ce565b5b600182019050919050565b7f546f6f6c20646f6573206e6f742062656c6f6e6720746f2073656e6465720000600082015250565b6000614434601e836135c7565b915061443f826143fe565b602082019050919050565b6000602082019050818103600083015261446381614427565b9050919050565b7f4c697020646f6573206e6f742062656c6f6e6720746f2073656e646572000000600082015250565b60006144a0601d836135c7565b91506144ab8261446a565b602082019050919050565b600060208201905081810360008301526144cf81614493565b9050919050565b7f4d61782061626c65546f4c6576656c2072656163686564000000000000000000600082015250565b600061450c6017836135c7565b9150614517826144d6565b602082019050919050565b6000602082019050818103600083015261453b816144ff565b9050919050565b7f546f6f6c206d757374206265206f662074797065202773636973736f72270000600082015250565b6000614578601e836135c7565b915061458382614542565b602082019050919050565b600060208201905081810360008301526145a78161456b565b9050919050565b600081905092915050565b60006145c4826135bc565b6145ce81856145ae565b93506145de8185602086016135d8565b80840191505092915050565b60006145f682856145b9565b915061460282846145b9565b91508190509392505050565b60008190508160005260206000209050919050565b60006020601f8301049050919050565b600082821b905092915050565b6000600883026146707fffffffffffffffffffffffffffffffffffffffffffffffffffffffffffffffff82614633565b61467a8683614633565b95508019841693508086168417925050509392505050565b6000819050919050565b60006146b76146b26146ad8461366e565b614692565b61366e565b9050919050565b6000819050919050565b6146d18361469c565b6146e56146dd826146be565b848454614640565b825550505050565b600090565b6146fa6146ed565b6147058184846146c8565b505050565b5b818110156147295761471e6000826146f2565b60018101905061470b565b5050565b601f82111561476e5761473f8161460e565b61474884614623565b81016020851015614757578190505b61476b61476385614623565b83018261470a565b50505b505050565b600082821c905092915050565b600061479160001984600802614773565b1980831691505092915050565b60006147aa8383614780565b9150826002028217905092915050565b6147c3826135bc565b67ffffffffffffffff8111156147dc576147db613889565b5b6147e68254613fde565b6147f182828561472d565b600060209050601f8311600181146148245760008415614812578287015190505b61481c858261479e565b865550614884565b601f1984166148328661460e565b60005b8281101561485a57848901518255600182019150602085019450602081019050614835565b868310156148775784890151614873601f891682614780565b8355505b6001600288020188555050505b505050505050565b7f4f776e61626c653a206e6577206f776e657220697320746865207a65726f206160008201527f6464726573730000000000000000000000000000000000000000000000000000602082015250565b60006148e86026836135c7565b91506148f38261488c565b604082019050919050565b60006020820190508181036000830152614917816148db565b9050919050565b60006149298261366e565b91506149348361366e565b925082820390508181111561494c5761494b6141ce565b5b92915050565b7f4552433732313a207472616e736665722066726f6d20696e636f72726563742060008201527f6f776e6572000000000000000000000000000000000000000000000000000000602082015250565b60006149ae6025836135c7565b91506149b982614952565b604082019050919050565b600060208201905081810360008301526149dd816149a1565b9050919050565b7f4552433732313a207472616e7366657220746f20746865207a65726f2061646460008201527f7265737300000000000000000000000000000000000000000000000000000000602082015250565b6000614a406024836135c7565b9150614a4b826149e4565b604082019050919050565b60006020820190508181036000830152614a6f81614a33565b9050919050565b7f4f776e61626c653a2063616c6c6572206973206e6f7420746865206f776e6572600082015250565b6000614aac6020836135c7565b9150614ab782614a76565b602082019050919050565b60006020820190508181036000830152614adb81614a9f565b9050919050565b6000604082019050614af760008301856137ec565b614b0460208301846137ec565b9392505050565b7f4552433732313a20617070726f766520746f2063616c6c657200000000000000600082015250565b6000614b416019836135c7565b9150614b4c82614b0b565b602082019050919050565b60006020820190508181036000830152614b7081614b34565b9050919050565b7f4552433732313a207472616e7366657220746f206e6f6e20455243373231526560008201527f63656976657220696d706c656d656e7465720000000000000000000000000000602082015250565b6000614bd36032836135c7565b9150614bde82614b77565b604082019050919050565b60006020820190508181036000830152614c0281614bc6565b9050919050565b7f4e487b7100000000000000000000000000000000000000000000000000000000600052601260045260246000fd5b6000614c438261366e565b9150614c4e8361366e565b9250828201905080821115614c6657614c656141ce565b5b92915050565b6000819050919050565b614c87614c828261366e565b614c6c565b82525050565b60008160601b9050919050565b6000614ca582614c8d565b9050919050565b6000614cb782614c9a565b9050919050565b614ccf614cca826136f1565b614cac565b82525050565b6000614ce18285614c76565b602082019150614cf18284614cbe565b6014820191508190509392505050565b6000614d0c8261366e565b9150614d178361366e565b925082614d2757614d26614c09565b5b828206905092915050565b600081519050919050565b600082825260208201905092915050565b6000614d5982614d32565b614d638185614d3d565b9350614d738185602086016135d8565b614d7c81613602565b840191505092915050565b6000608082019050614d9c6000830187613703565b614da96020830186613703565b614db660408301856137ec565b8181036060830152614dc88184614d4e565b905095945050505050565b600081519050614de28161352d565b92915050565b600060208284031215614dfe57614dfd6134f7565b5b6000614e0c84828501614dd3565b91505092915050565b7f4552433732313a206d696e7420746f20746865207a65726f2061646472657373600082015250565b6000614e4b6020836135c7565b9150614e5682614e15565b602082019050919050565b60006020820190508181036000830152614e7a81614e3e565b9050919050565b7f4552433732313a20746f6b656e20616c7265616479206d696e74656400000000600082015250565b6000614eb7601c836135c7565b9150614ec282614e81565b602082019050919050565b60006020820190508181036000830152614ee681614eaa565b905091905056fea264697066735822122027975d2fd661511fbc335a78feee9fccb393acb100b8b0d810b791d4ebcc304c64736f6c63430008110033",
  "immutableReferences": {},
  "source": "// SPDX-License-Identifier: MIT\n\npragma solidity ^0.8.0;\n\nimport \"@openzeppelin/contracts/token/ERC721/ERC721.sol\";\nimport \"@openzeppelin/contracts/access/Ownable.sol\";\n\ncontract LipToken is ERC721, Ownable {\n  constructor(string memory _name, string memory _symbol)\n    ERC721(_name, _symbol)\n  {}\n\n  uint256 COUNTER;\n  uint256 AlreadyUsed = 0;\n\n  uint256 fee = 0 ether;\n  uint256 toolFee =  0 ether;\n  // uint256 fee = 0.01 ether;\n  // uint256 toolFee =  0.001 ether;\n  \n\n  string[] public toolType;\n  function pushString() public{\n    toolType.push(\"water\");\n    toolType.push(\"fertilizer\");\n    toolType.push(\"scissor\");\n  }\n\n  struct Lip {\n    string name;\n    uint256 id;\n    uint256 dna;\n    uint8 level;\n    uint8 rarity;\n    uint8 ableToLevel;\n  }\n\n  struct Tool{\n    string typeOfTool;\n    uint256 id;\n    uint8 rarity;\n  }\n\n  Lip[] public lips;\n  Tool[] public tools;\n\n  event NewLip(address indexed owner, uint256 id, uint256 dna);\n  event NewTool(address indexed owner, uint256 id);\n\n  // Helpers\n  function _createRandomNum(uint256 _mod) internal view returns (uint256) {\n    uint256 randomNum = uint256(\n      keccak256(abi.encodePacked(block.timestamp, msg.sender))\n    );\n    return randomNum % _mod;\n  }\n\n  function updateFee(uint256 _fee) external onlyOwner {\n    fee = _fee;\n  }\n\n  function withdraw() external payable onlyOwner {\n    address payable _owner = payable(owner());\n    _owner.transfer(address(this).balance);\n  }\n\n  // Creation of seeds\n  function _createLip(string memory _name) internal {\n    uint8 randRarity = uint8(_createRandomNum(100));\n    uint256 randDna = _createRandomNum(10**16);\n    Lip memory newLip = Lip(_name, COUNTER, randDna, 1, randRarity, 0);\n    lips.push(newLip);\n    _safeMint(msg.sender, COUNTER);\n    emit NewLip(msg.sender, COUNTER, randDna);\n    COUNTER++;\n  }\n\n  function createRandomLip(string memory _name) public payable {\n    require(msg.value >= fee);\n    _createLip(_name);\n  }\n\n  // Creation of tools\n  function _createTools() internal {\n    pushString();\n    uint8 randToolRarity = uint8(_createRandomNum(10));\n    string memory randTool = toolType[uint8(_createRandomNum(3))];\n    Tool memory newTool = Tool(randTool, COUNTER, randToolRarity);\n    tools.push(newTool);\n    _safeMint(msg.sender, COUNTER);\n    emit NewTool(msg.sender, COUNTER);\n    COUNTER++;\n  }\n\n  function createRandomTool() public payable {\n    require(msg.value >= toolFee);\n    _createTools();\n  }\n\n  // UseTool\n  function useTool(address _owner, uint256 _lipId, uint256 _toolId) public {\n    uint256 tokenIdToUse = 0;\n    uint256 counterT = 0;\n    for (uint256 i = 0; i < tools.length; i++) {\n      if(!_exists(i)){\n        continue;\n      }\n      if (ownerOf(i) == _owner) {\n        counterT++;\n      }\n      if(tools[i].id == _toolId){\n        tokenIdToUse = i;\n      }\n    }\n    uint256 tokenIdToLevel = 0;\n    uint256 counterL = 0;\n    for (uint256 c = 0; c < lips.length; c++) {\n      if(!_exists(c)){\n        continue;\n      }\n      if (ownerOf(c) == _owner) {\n        counterL++;\n      }\n      if(lips[c].id == _lipId){\n        tokenIdToLevel = c;\n      }\n    }\n    require(ownerOf(_toolId) == msg.sender, \"Tool does not belong to sender\");\n    require(ownerOf(_lipId) == msg.sender, \"Lip does not belong to sender\");\n    Lip storage lip = lips[tokenIdToLevel];\n    require(lip.ableToLevel < 3, \"Max ableToLevel reached\");\n\n    Tool memory tool = tools[tokenIdToUse];\n    require(keccak256(bytes(tool.typeOfTool)) == keccak256(bytes(\"scissor\")), \"Tool must be of type 'scissor'\");\n\n    AlreadyUsed++;\n    lip.ableToLevel++;\n    _burn(_toolId);\n    \n  }\n\n\n \n\n\n  // Getters\n  function getLips() public view returns (Lip[] memory) {\n    return lips;\n  }\n\n  function getTools() public view returns (Tool[] memory) {\n    return tools;\n  }\n\n  function getOwnerLips(address _owner) public view returns (Lip[] memory) {\n    Lip[] memory result = new Lip[](lips.length);\n    uint256 counter = 0;\n    for (uint256 i = 0; i < lips.length; i++) {\n      if (ownerOf(i) == _owner) {\n        result[counter] = lips[i];\n        counter++;\n      }\n    }\n    return result;\n  }\n\n  function getOwnerTools(address _owner) public view returns (Tool[] memory) {\n    Tool[] memory resultTool = new Tool[](tools.length-AlreadyUsed);\n    uint256 counterT = 0;\n    for (uint256 i = 0; i < tools.length; i++) {\n      if(!_exists(tools[i].id)){\n        continue;\n      }\n      if (ownerOf(tools[i].id) == _owner) {\n        resultTool[counterT] = tools[i];\n        counterT++;\n      }\n    }\n    return resultTool;\n  }\n\n \n\n\n  // Actions\n  function levelUp(uint256 _lipId) public {\n    require(ownerOf(_lipId) == msg.sender);\n    Lip storage lip = lips[_lipId];\n    require(lip.ableToLevel == 3, \"Lip is not ready to level up yet\");\n    lip.level++;\n    lip.ableToLevel = 0;\n  }\n}",
  "sourcePath": "E:\\FYP\\TreesTogether React\\nft_game\\contracts\\LipToken.sol",
  "compiler": {
    "name": "solc",
    "version": "0.8.17+commit.8df45f5f.Emscripten.clang"
  },
  "schemaVersion": "3.4.10",
  "updatedAt": "2023-03-01T11:38:05.677Z",
  "networkType": "ethereum",
  "devdoc": {
    "kind": "dev",
    "methods": {
      "approve(address,uint256)": {
        "details": "See {IERC721-approve}."
      },
      "balanceOf(address)": {
        "details": "See {IERC721-balanceOf}."
      },
      "getApproved(uint256)": {
        "details": "See {IERC721-getApproved}."
      },
      "isApprovedForAll(address,address)": {
        "details": "See {IERC721-isApprovedForAll}."
      },
      "name()": {
        "details": "See {IERC721Metadata-name}."
      },
      "owner()": {
        "details": "Returns the address of the current owner."
      },
      "ownerOf(uint256)": {
        "details": "See {IERC721-ownerOf}."
      },
      "renounceOwnership()": {
        "details": "Leaves the contract without owner. It will not be possible to call `onlyOwner` functions anymore. Can only be called by the current owner. NOTE: Renouncing ownership will leave the contract without an owner, thereby removing any functionality that is only available to the owner."
      },
      "safeTransferFrom(address,address,uint256)": {
        "details": "See {IERC721-safeTransferFrom}."
      },
      "safeTransferFrom(address,address,uint256,bytes)": {
        "details": "See {IERC721-safeTransferFrom}."
      },
      "setApprovalForAll(address,bool)": {
        "details": "See {IERC721-setApprovalForAll}."
      },
      "supportsInterface(bytes4)": {
        "details": "See {IERC165-supportsInterface}."
      },
      "symbol()": {
        "details": "See {IERC721Metadata-symbol}."
      },
      "tokenURI(uint256)": {
        "details": "See {IERC721Metadata-tokenURI}."
      },
      "transferFrom(address,address,uint256)": {
        "details": "See {IERC721-transferFrom}."
      },
      "transferOwnership(address)": {
        "details": "Transfers ownership of the contract to a new account (`newOwner`). Can only be called by the current owner."
      }
    },
    "version": 1
  },
  "userdoc": {
    "kind": "user",
    "methods": {},
    "version": 1
  }
}