{
  "contractName": "LipToken",
  "abi": [
    {
      "inputs": [
        {
          "internalType": "string",
          "name": "_name",
          "type": "string"
        },
        {
          "internalType": "string",
          "name": "_symbol",
          "type": "string"
        }
      ],
      "stateMutability": "nonpayable",
      "type": "constructor"
    },
    {
      "anonymous": false,
      "inputs": [
        {
          "indexed": true,
          "internalType": "address",
          "name": "owner",
          "type": "address"
        },
        {
          "indexed": true,
          "internalType": "address",
          "name": "approved",
          "type": "address"
        },
        {
          "indexed": true,
          "internalType": "uint256",
          "name": "tokenId",
          "type": "uint256"
        }
      ],
      "name": "Approval",
      "type": "event"
    },
    {
      "anonymous": false,
      "inputs": [
        {
          "indexed": true,
          "internalType": "address",
          "name": "owner",
          "type": "address"
        },
        {
          "indexed": true,
          "internalType": "address",
          "name": "operator",
          "type": "address"
        },
        {
          "indexed": false,
          "internalType": "bool",
          "name": "approved",
          "type": "bool"
        }
      ],
      "name": "ApprovalForAll",
      "type": "event"
    },
    {
      "anonymous": false,
      "inputs": [
        {
          "indexed": true,
          "internalType": "address",
          "name": "owner",
          "type": "address"
        },
        {
          "indexed": false,
          "internalType": "uint256",
          "name": "id",
          "type": "uint256"
        },
        {
          "indexed": false,
          "internalType": "uint256",
          "name": "dna",
          "type": "uint256"
        }
      ],
      "name": "NewLip",
      "type": "event"
    },
    {
      "anonymous": false,
      "inputs": [
        {
          "indexed": true,
          "internalType": "address",
          "name": "previousOwner",
          "type": "address"
        },
        {
          "indexed": true,
          "internalType": "address",
          "name": "newOwner",
          "type": "address"
        }
      ],
      "name": "OwnershipTransferred",
      "type": "event"
    },
    {
      "anonymous": false,
      "inputs": [
        {
          "indexed": true,
          "internalType": "address",
          "name": "from",
          "type": "address"
        },
        {
          "indexed": true,
          "internalType": "address",
          "name": "to",
          "type": "address"
        },
        {
          "indexed": true,
          "internalType": "uint256",
          "name": "tokenId",
          "type": "uint256"
        }
      ],
      "name": "Transfer",
      "type": "event"
    },
    {
      "inputs": [
        {
          "internalType": "address",
          "name": "to",
          "type": "address"
        },
        {
          "internalType": "uint256",
          "name": "tokenId",
          "type": "uint256"
        }
      ],
      "name": "approve",
      "outputs": [],
      "stateMutability": "nonpayable",
      "type": "function"
    },
    {
      "inputs": [
        {
          "internalType": "address",
          "name": "owner",
          "type": "address"
        }
      ],
      "name": "balanceOf",
      "outputs": [
        {
          "internalType": "uint256",
          "name": "",
          "type": "uint256"
        }
      ],
      "stateMutability": "view",
      "type": "function",
      "constant": true
    },
    {
      "inputs": [
        {
          "internalType": "uint256",
          "name": "tokenId",
          "type": "uint256"
        }
      ],
      "name": "getApproved",
      "outputs": [
        {
          "internalType": "address",
          "name": "",
          "type": "address"
        }
      ],
      "stateMutability": "view",
      "type": "function",
      "constant": true
    },
    {
      "inputs": [
        {
          "internalType": "address",
          "name": "owner",
          "type": "address"
        },
        {
          "internalType": "address",
          "name": "operator",
          "type": "address"
        }
      ],
      "name": "isApprovedForAll",
      "outputs": [
        {
          "internalType": "bool",
          "name": "",
          "type": "bool"
        }
      ],
      "stateMutability": "view",
      "type": "function",
      "constant": true
    },
    {
      "inputs": [
        {
          "internalType": "uint256",
          "name": "",
          "type": "uint256"
        }
      ],
      "name": "lips",
      "outputs": [
        {
          "internalType": "string",
          "name": "name",
          "type": "string"
        },
        {
          "internalType": "uint256",
          "name": "id",
          "type": "uint256"
        },
        {
          "internalType": "uint256",
          "name": "dna",
          "type": "uint256"
        },
        {
          "internalType": "uint8",
          "name": "level",
          "type": "uint8"
        },
        {
          "internalType": "uint8",
          "name": "rarity",
          "type": "uint8"
        }
      ],
      "stateMutability": "view",
      "type": "function",
      "constant": true
    },
    {
      "inputs": [],
      "name": "name",
      "outputs": [
        {
          "internalType": "string",
          "name": "",
          "type": "string"
        }
      ],
      "stateMutability": "view",
      "type": "function",
      "constant": true
    },
    {
      "inputs": [],
      "name": "owner",
      "outputs": [
        {
          "internalType": "address",
          "name": "",
          "type": "address"
        }
      ],
      "stateMutability": "view",
      "type": "function",
      "constant": true
    },
    {
      "inputs": [
        {
          "internalType": "uint256",
          "name": "tokenId",
          "type": "uint256"
        }
      ],
      "name": "ownerOf",
      "outputs": [
        {
          "internalType": "address",
          "name": "",
          "type": "address"
        }
      ],
      "stateMutability": "view",
      "type": "function",
      "constant": true
    },
    {
      "inputs": [],
      "name": "renounceOwnership",
      "outputs": [],
      "stateMutability": "nonpayable",
      "type": "function"
    },
    {
      "inputs": [
        {
          "internalType": "address",
          "name": "from",
          "type": "address"
        },
        {
          "internalType": "address",
          "name": "to",
          "type": "address"
        },
        {
          "internalType": "uint256",
          "name": "tokenId",
          "type": "uint256"
        }
      ],
      "name": "safeTransferFrom",
      "outputs": [],
      "stateMutability": "nonpayable",
      "type": "function"
    },
    {
      "inputs": [
        {
          "internalType": "address",
          "name": "from",
          "type": "address"
        },
        {
          "internalType": "address",
          "name": "to",
          "type": "address"
        },
        {
          "internalType": "uint256",
          "name": "tokenId",
          "type": "uint256"
        },
        {
          "internalType": "bytes",
          "name": "data",
          "type": "bytes"
        }
      ],
      "name": "safeTransferFrom",
      "outputs": [],
      "stateMutability": "nonpayable",
      "type": "function"
    },
    {
      "inputs": [
        {
          "internalType": "address",
          "name": "operator",
          "type": "address"
        },
        {
          "internalType": "bool",
          "name": "approved",
          "type": "bool"
        }
      ],
      "name": "setApprovalForAll",
      "outputs": [],
      "stateMutability": "nonpayable",
      "type": "function"
    },
    {
      "inputs": [
        {
          "internalType": "bytes4",
          "name": "interfaceId",
          "type": "bytes4"
        }
      ],
      "name": "supportsInterface",
      "outputs": [
        {
          "internalType": "bool",
          "name": "",
          "type": "bool"
        }
      ],
      "stateMutability": "view",
      "type": "function",
      "constant": true
    },
    {
      "inputs": [],
      "name": "symbol",
      "outputs": [
        {
          "internalType": "string",
          "name": "",
          "type": "string"
        }
      ],
      "stateMutability": "view",
      "type": "function",
      "constant": true
    },
    {
      "inputs": [
        {
          "internalType": "uint256",
          "name": "tokenId",
          "type": "uint256"
        }
      ],
      "name": "tokenURI",
      "outputs": [
        {
          "internalType": "string",
          "name": "",
          "type": "string"
        }
      ],
      "stateMutability": "view",
      "type": "function",
      "constant": true
    },
    {
      "inputs": [
        {
          "internalType": "address",
          "name": "from",
          "type": "address"
        },
        {
          "internalType": "address",
          "name": "to",
          "type": "address"
        },
        {
          "internalType": "uint256",
          "name": "tokenId",
          "type": "uint256"
        }
      ],
      "name": "transferFrom",
      "outputs": [],
      "stateMutability": "nonpayable",
      "type": "function"
    },
    {
      "inputs": [
        {
          "internalType": "address",
          "name": "newOwner",
          "type": "address"
        }
      ],
      "name": "transferOwnership",
      "outputs": [],
      "stateMutability": "nonpayable",
      "type": "function"
    },
    {
      "inputs": [
        {
          "internalType": "uint256",
          "name": "_fee",
          "type": "uint256"
        }
      ],
      "name": "updateFee",
      "outputs": [],
      "stateMutability": "nonpayable",
      "type": "function"
    },
    {
      "inputs": [],
      "name": "withdraw",
      "outputs": [],
      "stateMutability": "payable",
      "type": "function",
      "payable": true
    },
    {
      "inputs": [
        {
          "internalType": "string",
          "name": "_name",
          "type": "string"
        }
      ],
      "name": "createRandomLip",
      "outputs": [],
      "stateMutability": "payable",
      "type": "function",
      "payable": true
    },
    {
      "inputs": [],
      "name": "getLips",
      "outputs": [
        {
          "components": [
            {
              "internalType": "string",
              "name": "name",
              "type": "string"
            },
            {
              "internalType": "uint256",
              "name": "id",
              "type": "uint256"
            },
            {
              "internalType": "uint256",
              "name": "dna",
              "type": "uint256"
            },
            {
              "internalType": "uint8",
              "name": "level",
              "type": "uint8"
            },
            {
              "internalType": "uint8",
              "name": "rarity",
              "type": "uint8"
            }
          ],
          "internalType": "struct LipToken.Lip[]",
          "name": "",
          "type": "tuple[]"
        }
      ],
      "stateMutability": "view",
      "type": "function",
      "constant": true
    },
    {
      "inputs": [
        {
          "internalType": "address",
          "name": "_owner",
          "type": "address"
        }
      ],
      "name": "getOwnerLips",
      "outputs": [
        {
          "components": [
            {
              "internalType": "string",
              "name": "name",
              "type": "string"
            },
            {
              "internalType": "uint256",
              "name": "id",
              "type": "uint256"
            },
            {
              "internalType": "uint256",
              "name": "dna",
              "type": "uint256"
            },
            {
              "internalType": "uint8",
              "name": "level",
              "type": "uint8"
            },
            {
              "internalType": "uint8",
              "name": "rarity",
              "type": "uint8"
            }
          ],
          "internalType": "struct LipToken.Lip[]",
          "name": "",
          "type": "tuple[]"
        }
      ],
      "stateMutability": "view",
      "type": "function",
      "constant": true
    },
    {
      "inputs": [
        {
          "internalType": "uint256",
          "name": "_lipId",
          "type": "uint256"
        }
      ],
      "name": "levelUp",
      "outputs": [],
      "stateMutability": "nonpayable",
      "type": "function"
    }
  ],
  "bytecode": "0x6080604052662386f26fc100006008553480156200001c57600080fd5b5060405162004119380380620041198339818101604052810190620000429190620002f3565b81818160009081620000559190620005c3565b508060019081620000679190620005c3565b5050506200008a6200007e6200009260201b60201c565b6200009a60201b60201c565b5050620006aa565b600033905090565b6000600660009054906101000a900473ffffffffffffffffffffffffffffffffffffffff16905081600660006101000a81548173ffffffffffffffffffffffffffffffffffffffff021916908373ffffffffffffffffffffffffffffffffffffffff1602179055508173ffffffffffffffffffffffffffffffffffffffff168173ffffffffffffffffffffffffffffffffffffffff167f8be0079c531659141344cd1fd0a4f28419497f9722a3daafe3b4186f6b6457e060405160405180910390a35050565b6000604051905090565b600080fd5b600080fd5b600080fd5b600080fd5b6000601f19601f8301169050919050565b7f4e487b7100000000000000000000000000000000000000000000000000000000600052604160045260246000fd5b620001c9826200017e565b810181811067ffffffffffffffff82111715620001eb57620001ea6200018f565b5b80604052505050565b60006200020062000160565b90506200020e8282620001be565b919050565b600067ffffffffffffffff8211156200023157620002306200018f565b5b6200023c826200017e565b9050602081019050919050565b60005b83811015620002695780820151818401526020810190506200024c565b60008484015250505050565b60006200028c620002868462000213565b620001f4565b905082815260208101848484011115620002ab57620002aa62000179565b5b620002b884828562000249565b509392505050565b600082601f830112620002d857620002d762000174565b5b8151620002ea84826020860162000275565b91505092915050565b600080604083850312156200030d576200030c6200016a565b5b600083015167ffffffffffffffff8111156200032e576200032d6200016f565b5b6200033c85828601620002c0565b925050602083015167ffffffffffffffff81111562000360576200035f6200016f565b5b6200036e85828601620002c0565b9150509250929050565b600081519050919050565b7f4e487b7100000000000000000000000000000000000000000000000000000000600052602260045260246000fd5b60006002820490506001821680620003cb57607f821691505b602082108103620003e157620003e062000383565b5b50919050565b60008190508160005260206000209050919050565b60006020601f8301049050919050565b600082821b905092915050565b6000600883026200044b7fffffffffffffffffffffffffffffffffffffffffffffffffffffffffffffffff826200040c565b6200045786836200040c565b95508019841693508086168417925050509392505050565b6000819050919050565b6000819050919050565b6000620004a46200049e62000498846200046f565b62000479565b6200046f565b9050919050565b6000819050919050565b620004c08362000483565b620004d8620004cf82620004ab565b84845462000419565b825550505050565b600090565b620004ef620004e0565b620004fc818484620004b5565b505050565b5b81811015620005245762000518600082620004e5565b60018101905062000502565b5050565b601f82111562000573576200053d81620003e7565b6200054884620003fc565b8101602085101562000558578190505b620005706200056785620003fc565b83018262000501565b50505b505050565b600082821c905092915050565b6000620005986000198460080262000578565b1980831691505092915050565b6000620005b3838362000585565b9150826002028217905092915050565b620005ce8262000378565b67ffffffffffffffff811115620005ea57620005e96200018f565b5b620005f68254620003b2565b6200060382828562000528565b600060209050601f8311600181146200063b576000841562000626578287015190505b620006328582620005a5565b865550620006a2565b601f1984166200064b86620003e7565b60005b8281101562000675578489015182556001820191506020850194506020810190506200064e565b8683101562000695578489015162000691601f89168262000585565b8355505b6001600288020188555050505b505050505050565b613a5f80620006ba6000396000f3fe6080604052600436106101405760003560e01c806370a08231116100b657806395d89b411161006f57806395d89b4114610442578063a22cb4651461046d578063b88d4fde14610496578063c87b56dd146104bf578063e985e9c5146104fc578063f2fde38b1461053957610140565b806370a0823114610332578063715018a61461036f57806383b5daf7146103865780638c0b9c54146103b15780638da5cb5b146103ee5780639012c4a81461041957610140565b806323b872dd1161010857806323b872dd1461023c5780633ccfd60b1461026557806342842e0e1461026f5780635ec163db146102985780636352211e146102d9578063698d640c1461031657610140565b806301ffc9a71461014557806306fdde0314610182578063081812fc146101ad578063095ea7b3146101ea5780630ce90ec214610213575b600080fd5b34801561015157600080fd5b5061016c60048036038101906101679190612497565b610562565b60405161017991906124df565b60405180910390f35b34801561018e57600080fd5b50610197610644565b6040516101a4919061258a565b60405180910390f35b3480156101b957600080fd5b506101d460048036038101906101cf91906125e2565b6106d6565b6040516101e19190612650565b60405180910390f35b3480156101f657600080fd5b50610211600480360381019061020c9190612697565b61071c565b005b34801561021f57600080fd5b5061023a600480360381019061023591906125e2565b610833565b005b34801561024857600080fd5b50610263600480360381019061025e91906126d7565b6108d7565b005b61026d610937565b005b34801561027b57600080fd5b50610296600480360381019061029191906126d7565b610995565b005b3480156102a457600080fd5b506102bf60048036038101906102ba91906125e2565b6109b5565b6040516102d0959493929190612755565b60405180910390f35b3480156102e557600080fd5b5061030060048036038101906102fb91906125e2565b610a9d565b60405161030d9190612650565b60405180910390f35b610330600480360381019061032b91906128e4565b610b23565b005b34801561033e57600080fd5b506103596004803603810190610354919061292d565b610b3e565b604051610366919061295a565b60405180910390f35b34801561037b57600080fd5b50610384610bf5565b005b34801561039257600080fd5b5061039b610c09565b6040516103a89190612b15565b60405180910390f35b3480156103bd57600080fd5b506103d860048036038101906103d3919061292d565b610d48565b6040516103e59190612b15565b60405180910390f35b3480156103fa57600080fd5b50610403610f4e565b6040516104109190612650565b60405180910390f35b34801561042557600080fd5b50610440600480360381019061043b91906125e2565b610f78565b005b34801561044e57600080fd5b50610457610f8a565b604051610464919061258a565b60405180910390f35b34801561047957600080fd5b50610494600480360381019061048f9190612b63565b61101c565b005b3480156104a257600080fd5b506104bd60048036038101906104b89190612c44565b611032565b005b3480156104cb57600080fd5b506104e660048036038101906104e191906125e2565b611094565b6040516104f3919061258a565b60405180910390f35b34801561050857600080fd5b50610523600480360381019061051e9190612cc7565b6110fc565b60405161053091906124df565b60405180910390f35b34801561054557600080fd5b50610560600480360381019061055b919061292d565b611190565b005b60007f80ac58cd000000000000000000000000000000000000000000000000000000007bffffffffffffffffffffffffffffffffffffffffffffffffffffffff1916827bffffffffffffffffffffffffffffffffffffffffffffffffffffffff1916148061062d57507f5b5e139f000000000000000000000000000000000000000000000000000000007bffffffffffffffffffffffffffffffffffffffffffffffffffffffff1916827bffffffffffffffffffffffffffffffffffffffffffffffffffffffff1916145b8061063d575061063c82611213565b5b9050919050565b60606000805461065390612d36565b80601f016020809104026020016040519081016040528092919081815260200182805461067f90612d36565b80156106cc5780601f106106a1576101008083540402835291602001916106cc565b820191906000526020600020905b8154815290600101906020018083116106af57829003601f168201915b5050505050905090565b60006106e18261127d565b6004600083815260200190815260200160002060009054906101000a900473ffffffffffffffffffffffffffffffffffffffff169050919050565b600061072782610a9d565b90508073ffffffffffffffffffffffffffffffffffffffff168373ffffffffffffffffffffffffffffffffffffffff1603610797576040517f08c379a000000000000000000000000000000000000000000000000000000000815260040161078e90612dd9565b60405180910390fd5b8073ffffffffffffffffffffffffffffffffffffffff166107b66112c8565b73ffffffffffffffffffffffffffffffffffffffff1614806107e557506107e4816107df6112c8565b6110fc565b5b610824576040517f08c379a000000000000000000000000000000000000000000000000000000000815260040161081b90612e6b565b60405180910390fd5b61082e83836112d0565b505050565b3373ffffffffffffffffffffffffffffffffffffffff1661085382610a9d565b73ffffffffffffffffffffffffffffffffffffffff161461087357600080fd5b60006009828154811061088957610888612e8b565b5b9060005260206000209060040201905080600301600081819054906101000a900460ff16809291906108ba90612ee9565b91906101000a81548160ff021916908360ff160217905550505050565b6108e86108e26112c8565b82611389565b610927576040517f08c379a000000000000000000000000000000000000000000000000000000000815260040161091e90612f84565b60405180910390fd5b61093283838361141e565b505050565b61093f611717565b6000610949610f4e565b90508073ffffffffffffffffffffffffffffffffffffffff166108fc479081150290604051600060405180830381858888f19350505050158015610991573d6000803e3d6000fd5b5050565b6109b083838360405180602001604052806000815250611032565b505050565b600981815481106109c557600080fd5b90600052602060002090600402016000915090508060000180546109e890612d36565b80601f0160208091040260200160405190810160405280929190818152602001828054610a1490612d36565b8015610a615780601f10610a3657610100808354040283529160200191610a61565b820191906000526020600020905b815481529060010190602001808311610a4457829003601f168201915b5050505050908060010154908060020154908060030160009054906101000a900460ff16908060030160019054906101000a900460ff16905085565b600080610aa983611795565b9050600073ffffffffffffffffffffffffffffffffffffffff168173ffffffffffffffffffffffffffffffffffffffff1603610b1a576040517f08c379a0000000000000000000000000000000000000000000000000000000008152600401610b1190612ff0565b60405180910390fd5b80915050919050565b600854341015610b3257600080fd5b610b3b816117d2565b50565b60008073ffffffffffffffffffffffffffffffffffffffff168273ffffffffffffffffffffffffffffffffffffffff1603610bae576040517f08c379a0000000000000000000000000000000000000000000000000000000008152600401610ba590613082565b60405180910390fd5b600360008373ffffffffffffffffffffffffffffffffffffffff1673ffffffffffffffffffffffffffffffffffffffff168152602001908152602001600020549050919050565b610bfd611717565b610c07600061193e565b565b60606009805480602002602001604051908101604052809291908181526020016000905b82821015610d3f57838290600052602060002090600402016040518060a0016040529081600082018054610c6090612d36565b80601f0160208091040260200160405190810160405280929190818152602001828054610c8c90612d36565b8015610cd95780601f10610cae57610100808354040283529160200191610cd9565b820191906000526020600020905b815481529060010190602001808311610cbc57829003601f168201915b5050505050815260200160018201548152602001600282015481526020016003820160009054906101000a900460ff1660ff1660ff1681526020016003820160019054906101000a900460ff1660ff1660ff168152505081526020019060010190610c2d565b50505050905090565b60606000610d5583610b3e565b67ffffffffffffffff811115610d6e57610d6d6127b9565b5b604051908082528060200260200182016040528015610da757816020015b610d946123f6565b815260200190600190039081610d8c5790505b5090506000805b600980549050811015610f43578473ffffffffffffffffffffffffffffffffffffffff16610ddb82610a9d565b73ffffffffffffffffffffffffffffffffffffffff1603610f305760098181548110610e0a57610e09612e8b565b5b90600052602060002090600402016040518060a0016040529081600082018054610e3390612d36565b80601f0160208091040260200160405190810160405280929190818152602001828054610e5f90612d36565b8015610eac5780601f10610e8157610100808354040283529160200191610eac565b820191906000526020600020905b815481529060010190602001808311610e8f57829003601f168201915b5050505050815260200160018201548152602001600282015481526020016003820160009054906101000a900460ff1660ff1660ff1681526020016003820160019054906101000a900460ff1660ff1660ff1681525050838381518110610f1657610f15612e8b565b5b60200260200101819052508180610f2c906130a2565b9250505b8080610f3b906130a2565b915050610dae565b508192505050919050565b6000600660009054906101000a900473ffffffffffffffffffffffffffffffffffffffff16905090565b610f80611717565b8060088190555050565b606060018054610f9990612d36565b80601f0160208091040260200160405190810160405280929190818152602001828054610fc590612d36565b80156110125780601f10610fe757610100808354040283529160200191611012565b820191906000526020600020905b815481529060010190602001808311610ff557829003601f168201915b5050505050905090565b61102e6110276112c8565b8383611a04565b5050565b61104361103d6112c8565b83611389565b611082576040517f08c379a000000000000000000000000000000000000000000000000000000000815260040161107990612f84565b60405180910390fd5b61108e84848484611b70565b50505050565b606061109f8261127d565b60006110a9611bcc565b905060008151116110c957604051806020016040528060008152506110f4565b806110d384611be3565b6040516020016110e4929190613126565b6040516020818303038152906040525b915050919050565b6000600560008473ffffffffffffffffffffffffffffffffffffffff1673ffffffffffffffffffffffffffffffffffffffff16815260200190815260200160002060008373ffffffffffffffffffffffffffffffffffffffff1673ffffffffffffffffffffffffffffffffffffffff16815260200190815260200160002060009054906101000a900460ff16905092915050565b611198611717565b600073ffffffffffffffffffffffffffffffffffffffff168173ffffffffffffffffffffffffffffffffffffffff1603611207576040517f08c379a00000000000000000000000000000000000000000000000000000000081526004016111fe906131bc565b60405180910390fd5b6112108161193e565b50565b60007f01ffc9a7000000000000000000000000000000000000000000000000000000007bffffffffffffffffffffffffffffffffffffffffffffffffffffffff1916827bffffffffffffffffffffffffffffffffffffffffffffffffffffffff1916149050919050565b61128681611cb1565b6112c5576040517f08c379a00000000000000000000000000000000000000000000000000000000081526004016112bc90612ff0565b60405180910390fd5b50565b600033905090565b816004600083815260200190815260200160002060006101000a81548173ffffffffffffffffffffffffffffffffffffffff021916908373ffffffffffffffffffffffffffffffffffffffff160217905550808273ffffffffffffffffffffffffffffffffffffffff1661134383610a9d565b73ffffffffffffffffffffffffffffffffffffffff167f8c5be1e5ebec7d5bd14f71427d1e84f3dd0314c0f7b2291e5b200ac8c7c3b92560405160405180910390a45050565b60008061139583610a9d565b90508073ffffffffffffffffffffffffffffffffffffffff168473ffffffffffffffffffffffffffffffffffffffff1614806113d757506113d681856110fc565b5b8061141557508373ffffffffffffffffffffffffffffffffffffffff166113fd846106d6565b73ffffffffffffffffffffffffffffffffffffffff16145b91505092915050565b8273ffffffffffffffffffffffffffffffffffffffff1661143e82610a9d565b73ffffffffffffffffffffffffffffffffffffffff1614611494576040517f08c379a000000000000000000000000000000000000000000000000000000000815260040161148b9061324e565b60405180910390fd5b600073ffffffffffffffffffffffffffffffffffffffff168273ffffffffffffffffffffffffffffffffffffffff1603611503576040517f08c379a00000000000000000000000000000000000000000000000000000000081526004016114fa906132e0565b60405180910390fd5b6115108383836001611cf2565b8273ffffffffffffffffffffffffffffffffffffffff1661153082610a9d565b73ffffffffffffffffffffffffffffffffffffffff1614611586576040517f08c379a000000000000000000000000000000000000000000000000000000000815260040161157d9061324e565b60405180910390fd5b6004600082815260200190815260200160002060006101000a81549073ffffffffffffffffffffffffffffffffffffffff02191690556001600360008573ffffffffffffffffffffffffffffffffffffffff1673ffffffffffffffffffffffffffffffffffffffff168152602001908152602001600020600082825403925050819055506001600360008473ffffffffffffffffffffffffffffffffffffffff1673ffffffffffffffffffffffffffffffffffffffff16815260200190815260200160002060008282540192505081905550816002600083815260200190815260200160002060006101000a81548173ffffffffffffffffffffffffffffffffffffffff021916908373ffffffffffffffffffffffffffffffffffffffff160217905550808273ffffffffffffffffffffffffffffffffffffffff168473ffffffffffffffffffffffffffffffffffffffff167fddf252ad1be2c89b69c2b068fc378daa952ba7f163c4a11628f55a4df523b3ef60405160405180910390a46117128383836001611e18565b505050565b61171f6112c8565b73ffffffffffffffffffffffffffffffffffffffff1661173d610f4e565b73ffffffffffffffffffffffffffffffffffffffff1614611793576040517f08c379a000000000000000000000000000000000000000000000000000000000815260040161178a9061334c565b60405180910390fd5b565b60006002600083815260200190815260200160002060009054906101000a900473ffffffffffffffffffffffffffffffffffffffff169050919050565b60006117de6064611e1e565b905060006117f2662386f26fc10000611e1e565b905060006040518060a001604052808581526020016007548152602001838152602001600160ff1681526020018460ff168152509050600981908060018154018082558091505060019003906000526020600020906004020160009091909190915060008201518160000190816118699190613518565b50602082015181600101556040820151816002015560608201518160030160006101000a81548160ff021916908360ff16021790555060808201518160030160016101000a81548160ff021916908360ff16021790555050506118ce33600754611e63565b3373ffffffffffffffffffffffffffffffffffffffff167f24d2d558f98bdd9d21339e119fc0b03e213c7d05affd838ac2ee136d90e3bbeb600754846040516119189291906135ea565b60405180910390a260076000815480929190611933906130a2565b919050555050505050565b6000600660009054906101000a900473ffffffffffffffffffffffffffffffffffffffff16905081600660006101000a81548173ffffffffffffffffffffffffffffffffffffffff021916908373ffffffffffffffffffffffffffffffffffffffff1602179055508173ffffffffffffffffffffffffffffffffffffffff168173ffffffffffffffffffffffffffffffffffffffff167f8be0079c531659141344cd1fd0a4f28419497f9722a3daafe3b4186f6b6457e060405160405180910390a35050565b8173ffffffffffffffffffffffffffffffffffffffff168373ffffffffffffffffffffffffffffffffffffffff1603611a72576040517f08c379a0000000000000000000000000000000000000000000000000000000008152600401611a699061365f565b60405180910390fd5b80600560008573ffffffffffffffffffffffffffffffffffffffff1673ffffffffffffffffffffffffffffffffffffffff16815260200190815260200160002060008473ffffffffffffffffffffffffffffffffffffffff1673ffffffffffffffffffffffffffffffffffffffff16815260200190815260200160002060006101000a81548160ff0219169083151502179055508173ffffffffffffffffffffffffffffffffffffffff168373ffffffffffffffffffffffffffffffffffffffff167f17307eab39ab6107e8899845ad3d59bd9653f200f220920489ca2b5937696c3183604051611b6391906124df565b60405180910390a3505050565b611b7b84848461141e565b611b8784848484611e81565b611bc6576040517f08c379a0000000000000000000000000000000000000000000000000000000008152600401611bbd906136f1565b60405180910390fd5b50505050565b606060405180602001604052806000815250905090565b606060006001611bf284612008565b01905060008167ffffffffffffffff811115611c1157611c106127b9565b5b6040519080825280601f01601f191660200182016040528015611c435781602001600182028036833780820191505090505b509050600082602001820190505b600115611ca6578080600190039150507f3031323334353637383961626364656600000000000000000000000000000000600a86061a8153600a8581611c9a57611c99613711565b5b04945060008503611c51575b819350505050919050565b60008073ffffffffffffffffffffffffffffffffffffffff16611cd383611795565b73ffffffffffffffffffffffffffffffffffffffff1614159050919050565b6001811115611e1257600073ffffffffffffffffffffffffffffffffffffffff168473ffffffffffffffffffffffffffffffffffffffff1614611d865780600360008673ffffffffffffffffffffffffffffffffffffffff1673ffffffffffffffffffffffffffffffffffffffff1681526020019081526020016000206000828254611d7e9190613740565b925050819055505b600073ffffffffffffffffffffffffffffffffffffffff168373ffffffffffffffffffffffffffffffffffffffff1614611e115780600360008573ffffffffffffffffffffffffffffffffffffffff1673ffffffffffffffffffffffffffffffffffffffff1681526020019081526020016000206000828254611e099190613774565b925050819055505b5b50505050565b50505050565b6000804233604051602001611e34929190613811565b6040516020818303038152906040528051906020012060001c90508281611e5b919061383d565b915050919050565b611e7d82826040518060200160405280600081525061215b565b5050565b6000611ea28473ffffffffffffffffffffffffffffffffffffffff166121b6565b15611ffb578373ffffffffffffffffffffffffffffffffffffffff1663150b7a02611ecb6112c8565b8786866040518563ffffffff1660e01b8152600401611eed94939291906138c3565b6020604051808303816000875af1925050508015611f2957506040513d601f19601f82011682018060405250810190611f269190613924565b60015b611fab573d8060008114611f59576040519150601f19603f3d011682016040523d82523d6000602084013e611f5e565b606091505b506000815103611fa3576040517f08c379a0000000000000000000000000000000000000000000000000000000008152600401611f9a906136f1565b60405180910390fd5b805181602001fd5b63150b7a0260e01b7bffffffffffffffffffffffffffffffffffffffffffffffffffffffff1916817bffffffffffffffffffffffffffffffffffffffffffffffffffffffff191614915050612000565b600190505b949350505050565b600080600090507a184f03e93ff9f4daa797ed6e38ed64bf6a1f0100000000000000008310612066577a184f03e93ff9f4daa797ed6e38ed64bf6a1f010000000000000000838161205c5761205b613711565b5b0492506040810190505b6d04ee2d6d415b85acef810000000083106120a3576d04ee2d6d415b85acef8100000000838161209957612098613711565b5b0492506020810190505b662386f26fc1000083106120d257662386f26fc1000083816120c8576120c7613711565b5b0492506010810190505b6305f5e10083106120fb576305f5e10083816120f1576120f0613711565b5b0492506008810190505b612710831061212057612710838161211657612115613711565b5b0492506004810190505b60648310612143576064838161213957612138613711565b5b0492506002810190505b600a8310612152576001810190505b80915050919050565b61216583836121d9565b6121726000848484611e81565b6121b1576040517f08c379a00000000000000000000000000000000000000000000000000000000081526004016121a8906136f1565b60405180910390fd5b505050565b6000808273ffffffffffffffffffffffffffffffffffffffff163b119050919050565b600073ffffffffffffffffffffffffffffffffffffffff168273ffffffffffffffffffffffffffffffffffffffff1603612248576040517f08c379a000000000000000000000000000000000000000000000000000000000815260040161223f9061399d565b60405180910390fd5b61225181611cb1565b15612291576040517f08c379a000000000000000000000000000000000000000000000000000000000815260040161228890613a09565b60405180910390fd5b61229f600083836001611cf2565b6122a881611cb1565b156122e8576040517f08c379a00000000000000000000000000000000000000000000000000000000081526004016122df90613a09565b60405180910390fd5b6001600360008473ffffffffffffffffffffffffffffffffffffffff1673ffffffffffffffffffffffffffffffffffffffff16815260200190815260200160002060008282540192505081905550816002600083815260200190815260200160002060006101000a81548173ffffffffffffffffffffffffffffffffffffffff021916908373ffffffffffffffffffffffffffffffffffffffff160217905550808273ffffffffffffffffffffffffffffffffffffffff16600073ffffffffffffffffffffffffffffffffffffffff167fddf252ad1be2c89b69c2b068fc378daa952ba7f163c4a11628f55a4df523b3ef60405160405180910390a46123f2600083836001611e18565b5050565b6040518060a00160405280606081526020016000815260200160008152602001600060ff168152602001600060ff1681525090565b6000604051905090565b600080fd5b600080fd5b60007fffffffff0000000000000000000000000000000000000000000000000000000082169050919050565b6124748161243f565b811461247f57600080fd5b50565b6000813590506124918161246b565b92915050565b6000602082840312156124ad576124ac612435565b5b60006124bb84828501612482565b91505092915050565b60008115159050919050565b6124d9816124c4565b82525050565b60006020820190506124f460008301846124d0565b92915050565b600081519050919050565b600082825260208201905092915050565b60005b83811015612534578082015181840152602081019050612519565b60008484015250505050565b6000601f19601f8301169050919050565b600061255c826124fa565b6125668185612505565b9350612576818560208601612516565b61257f81612540565b840191505092915050565b600060208201905081810360008301526125a48184612551565b905092915050565b6000819050919050565b6125bf816125ac565b81146125ca57600080fd5b50565b6000813590506125dc816125b6565b92915050565b6000602082840312156125f8576125f7612435565b5b6000612606848285016125cd565b91505092915050565b600073ffffffffffffffffffffffffffffffffffffffff82169050919050565b600061263a8261260f565b9050919050565b61264a8161262f565b82525050565b60006020820190506126656000830184612641565b92915050565b6126748161262f565b811461267f57600080fd5b50565b6000813590506126918161266b565b92915050565b600080604083850312156126ae576126ad612435565b5b60006126bc85828601612682565b92505060206126cd858286016125cd565b9150509250929050565b6000806000606084860312156126f0576126ef612435565b5b60006126fe86828701612682565b935050602061270f86828701612682565b9250506040612720868287016125cd565b9150509250925092565b612733816125ac565b82525050565b600060ff82169050919050565b61274f81612739565b82525050565b600060a082019050818103600083015261276f8188612551565b905061277e602083018761272a565b61278b604083018661272a565b6127986060830185612746565b6127a56080830184612746565b9695505050505050565b600080fd5b600080fd5b7f4e487b7100000000000000000000000000000000000000000000000000000000600052604160045260246000fd5b6127f182612540565b810181811067ffffffffffffffff821117156128105761280f6127b9565b5b80604052505050565b600061282361242b565b905061282f82826127e8565b919050565b600067ffffffffffffffff82111561284f5761284e6127b9565b5b61285882612540565b9050602081019050919050565b82818337600083830152505050565b600061288761288284612834565b612819565b9050828152602081018484840111156128a3576128a26127b4565b5b6128ae848285612865565b509392505050565b600082601f8301126128cb576128ca6127af565b5b81356128db848260208601612874565b91505092915050565b6000602082840312156128fa576128f9612435565b5b600082013567ffffffffffffffff8111156129185761291761243a565b5b612924848285016128b6565b91505092915050565b60006020828403121561294357612942612435565b5b600061295184828501612682565b91505092915050565b600060208201905061296f600083018461272a565b92915050565b600081519050919050565b600082825260208201905092915050565b6000819050602082019050919050565b600082825260208201905092915050565b60006129bd826124fa565b6129c781856129a1565b93506129d7818560208601612516565b6129e081612540565b840191505092915050565b6129f4816125ac565b82525050565b612a0381612739565b82525050565b600060a0830160008301518482036000860152612a2682826129b2565b9150506020830151612a3b60208601826129eb565b506040830151612a4e60408601826129eb565b506060830151612a6160608601826129fa565b506080830151612a7460808601826129fa565b508091505092915050565b6000612a8b8383612a09565b905092915050565b6000602082019050919050565b6000612aab82612975565b612ab58185612980565b935083602082028501612ac785612991565b8060005b85811015612b035784840389528151612ae48582612a7f565b9450612aef83612a93565b925060208a01995050600181019050612acb565b50829750879550505050505092915050565b60006020820190508181036000830152612b2f8184612aa0565b905092915050565b612b40816124c4565b8114612b4b57600080fd5b50565b600081359050612b5d81612b37565b92915050565b60008060408385031215612b7a57612b79612435565b5b6000612b8885828601612682565b9250506020612b9985828601612b4e565b9150509250929050565b600067ffffffffffffffff821115612bbe57612bbd6127b9565b5b612bc782612540565b9050602081019050919050565b6000612be7612be284612ba3565b612819565b905082815260208101848484011115612c0357612c026127b4565b5b612c0e848285612865565b509392505050565b600082601f830112612c2b57612c2a6127af565b5b8135612c3b848260208601612bd4565b91505092915050565b60008060008060808587031215612c5e57612c5d612435565b5b6000612c6c87828801612682565b9450506020612c7d87828801612682565b9350506040612c8e878288016125cd565b925050606085013567ffffffffffffffff811115612caf57612cae61243a565b5b612cbb87828801612c16565b91505092959194509250565b60008060408385031215612cde57612cdd612435565b5b6000612cec85828601612682565b9250506020612cfd85828601612682565b9150509250929050565b7f4e487b7100000000000000000000000000000000000000000000000000000000600052602260045260246000fd5b60006002820490506001821680612d4e57607f821691505b602082108103612d6157612d60612d07565b5b50919050565b7f4552433732313a20617070726f76616c20746f2063757272656e74206f776e6560008201527f7200000000000000000000000000000000000000000000000000000000000000602082015250565b6000612dc3602183612505565b9150612dce82612d67565b604082019050919050565b60006020820190508181036000830152612df281612db6565b9050919050565b7f4552433732313a20617070726f76652063616c6c6572206973206e6f7420746f60008201527f6b656e206f776e6572206f7220617070726f76656420666f7220616c6c000000602082015250565b6000612e55603d83612505565b9150612e6082612df9565b604082019050919050565b60006020820190508181036000830152612e8481612e48565b9050919050565b7f4e487b7100000000000000000000000000000000000000000000000000000000600052603260045260246000fd5b7f4e487b7100000000000000000000000000000000000000000000000000000000600052601160045260246000fd5b6000612ef482612739565b915060ff8203612f0757612f06612eba565b5b600182019050919050565b7f4552433732313a2063616c6c6572206973206e6f7420746f6b656e206f776e6560008201527f72206f7220617070726f76656400000000000000000000000000000000000000602082015250565b6000612f6e602d83612505565b9150612f7982612f12565b604082019050919050565b60006020820190508181036000830152612f9d81612f61565b9050919050565b7f4552433732313a20696e76616c696420746f6b656e2049440000000000000000600082015250565b6000612fda601883612505565b9150612fe582612fa4565b602082019050919050565b6000602082019050818103600083015261300981612fcd565b9050919050565b7f4552433732313a2061646472657373207a65726f206973206e6f74206120766160008201527f6c6964206f776e65720000000000000000000000000000000000000000000000602082015250565b600061306c602983612505565b915061307782613010565b604082019050919050565b6000602082019050818103600083015261309b8161305f565b9050919050565b60006130ad826125ac565b91507fffffffffffffffffffffffffffffffffffffffffffffffffffffffffffffffff82036130df576130de612eba565b5b600182019050919050565b600081905092915050565b6000613100826124fa565b61310a81856130ea565b935061311a818560208601612516565b80840191505092915050565b600061313282856130f5565b915061313e82846130f5565b91508190509392505050565b7f4f776e61626c653a206e6577206f776e657220697320746865207a65726f206160008201527f6464726573730000000000000000000000000000000000000000000000000000602082015250565b60006131a6602683612505565b91506131b18261314a565b604082019050919050565b600060208201905081810360008301526131d581613199565b9050919050565b7f4552433732313a207472616e736665722066726f6d20696e636f72726563742060008201527f6f776e6572000000000000000000000000000000000000000000000000000000602082015250565b6000613238602583612505565b9150613243826131dc565b604082019050919050565b600060208201905081810360008301526132678161322b565b9050919050565b7f4552433732313a207472616e7366657220746f20746865207a65726f2061646460008201527f7265737300000000000000000000000000000000000000000000000000000000602082015250565b60006132ca602483612505565b91506132d58261326e565b604082019050919050565b600060208201905081810360008301526132f9816132bd565b9050919050565b7f4f776e61626c653a2063616c6c6572206973206e6f7420746865206f776e6572600082015250565b6000613336602083612505565b915061334182613300565b602082019050919050565b6000602082019050818103600083015261336581613329565b9050919050565b60008190508160005260206000209050919050565b60006020601f8301049050919050565b600082821b905092915050565b6000600883026133ce7fffffffffffffffffffffffffffffffffffffffffffffffffffffffffffffffff82613391565b6133d88683613391565b95508019841693508086168417925050509392505050565b6000819050919050565b600061341561341061340b846125ac565b6133f0565b6125ac565b9050919050565b6000819050919050565b61342f836133fa565b61344361343b8261341c565b84845461339e565b825550505050565b600090565b61345861344b565b613463818484613426565b505050565b5b818110156134875761347c600082613450565b600181019050613469565b5050565b601f8211156134cc5761349d8161336c565b6134a684613381565b810160208510156134b5578190505b6134c96134c185613381565b830182613468565b50505b505050565b600082821c905092915050565b60006134ef600019846008026134d1565b1980831691505092915050565b600061350883836134de565b9150826002028217905092915050565b613521826124fa565b67ffffffffffffffff81111561353a576135396127b9565b5b6135448254612d36565b61354f82828561348b565b600060209050601f8311600181146135825760008415613570578287015190505b61357a85826134fc565b8655506135e2565b601f1984166135908661336c565b60005b828110156135b857848901518255600182019150602085019450602081019050613593565b868310156135d557848901516135d1601f8916826134de565b8355505b6001600288020188555050505b505050505050565b60006040820190506135ff600083018561272a565b61360c602083018461272a565b9392505050565b7f4552433732313a20617070726f766520746f2063616c6c657200000000000000600082015250565b6000613649601983612505565b915061365482613613565b602082019050919050565b600060208201905081810360008301526136788161363c565b9050919050565b7f4552433732313a207472616e7366657220746f206e6f6e20455243373231526560008201527f63656976657220696d706c656d656e7465720000000000000000000000000000602082015250565b60006136db603283612505565b91506136e68261367f565b604082019050919050565b6000602082019050818103600083015261370a816136ce565b9050919050565b7f4e487b7100000000000000000000000000000000000000000000000000000000600052601260045260246000fd5b600061374b826125ac565b9150613756836125ac565b925082820390508181111561376e5761376d612eba565b5b92915050565b600061377f826125ac565b915061378a836125ac565b92508282019050808211156137a2576137a1612eba565b5b92915050565b6000819050919050565b6137c36137be826125ac565b6137a8565b82525050565b60008160601b9050919050565b60006137e1826137c9565b9050919050565b60006137f3826137d6565b9050919050565b61380b6138068261262f565b6137e8565b82525050565b600061381d82856137b2565b60208201915061382d82846137fa565b6014820191508190509392505050565b6000613848826125ac565b9150613853836125ac565b92508261386357613862613711565b5b828206905092915050565b600081519050919050565b600082825260208201905092915050565b60006138958261386e565b61389f8185613879565b93506138af818560208601612516565b6138b881612540565b840191505092915050565b60006080820190506138d86000830187612641565b6138e56020830186612641565b6138f2604083018561272a565b8181036060830152613904818461388a565b905095945050505050565b60008151905061391e8161246b565b92915050565b60006020828403121561393a57613939612435565b5b60006139488482850161390f565b91505092915050565b7f4552433732313a206d696e7420746f20746865207a65726f2061646472657373600082015250565b6000613987602083612505565b915061399282613951565b602082019050919050565b600060208201905081810360008301526139b68161397a565b9050919050565b7f4552433732313a20746f6b656e20616c7265616479206d696e74656400000000600082015250565b60006139f3601c83612505565b91506139fe826139bd565b602082019050919050565b60006020820190508181036000830152613a22816139e6565b905091905056fea26469706673582212202f9ecf27bd3582793320aa2d0199f6eaa51429b61462ad06186fd9532c0f641964736f6c63430008110033",
  "immutableReferences": {},
  "source": "// SPDX-License-Identifier: MIT\n\npragma solidity ^0.8.0;\n\nimport \"@openzeppelin/contracts/token/ERC721/ERC721.sol\";\nimport \"@openzeppelin/contracts/access/Ownable.sol\";\n\ncontract LipToken is ERC721, Ownable {\n  constructor(string memory _name, string memory _symbol)\n    ERC721(_name, _symbol)\n  {}\n\n  uint256 COUNTER;\n\n  uint256 fee = 0.01 ether;\n\n  struct Lip {\n    string name;\n    uint256 id;\n    uint256 dna;\n    uint8 level;\n    uint8 rarity;\n  }\n\n  Lip[] public lips;\n\n  event NewLip(address indexed owner, uint256 id, uint256 dna);\n\n  // Helpers\n  function _createRandomNum(uint256 _mod) internal view returns (uint256) {\n    uint256 randomNum = uint256(\n      keccak256(abi.encodePacked(block.timestamp, msg.sender))\n    );\n    return randomNum % _mod;\n  }\n\n  function updateFee(uint256 _fee) external onlyOwner {\n    fee = _fee;\n  }\n\n  function withdraw() external payable onlyOwner {\n    address payable _owner = payable(owner());\n    _owner.transfer(address(this).balance);\n  }\n\n  // Creation\n  function _createLip(string memory _name) internal {\n    uint8 randRarity = uint8(_createRandomNum(100));\n    uint256 randDna = _createRandomNum(10**16);\n    Lip memory newLip = Lip(_name, COUNTER, randDna, 1, randRarity);\n    lips.push(newLip);\n    _safeMint(msg.sender, COUNTER);\n    emit NewLip(msg.sender, COUNTER, randDna);\n    COUNTER++;\n  }\n\n  function createRandomLip(string memory _name) public payable {\n    require(msg.value >= fee);\n    _createLip(_name);\n  }\n\n  // Getters\n  function getLips() public view returns (Lip[] memory) {\n    return lips;\n  }\n\n  function getOwnerLips(address _owner) public view returns (Lip[] memory) {\n    Lip[] memory result = new Lip[](balanceOf(_owner));\n    uint256 counter = 0;\n    for (uint256 i = 0; i < lips.length; i++) {\n      if (ownerOf(i) == _owner) {\n        result[counter] = lips[i];\n        counter++;\n      }\n    }\n    return result;\n  }\n\n  // Actions\n  function levelUp(uint256 _lipId) public {\n    require(ownerOf(_lipId) == msg.sender);\n    Lip storage lip = lips[_lipId];\n    lip.level++;\n  }\n}\n",
  "sourcePath": "E:\\FYP\\NFT_GAMES\\nft_game\\contracts\\LipToken.sol",
  "compiler": {
    "name": "solc",
    "version": "0.8.17+commit.8df45f5f.Emscripten.clang"
  },
  "schemaVersion": "3.4.10",
  "updatedAt": "2023-01-27T08:25:38.883Z",
  "networkType": "ethereum",
  "devdoc": {
    "kind": "dev",
    "methods": {
      "approve(address,uint256)": {
        "details": "See {IERC721-approve}."
      },
      "balanceOf(address)": {
        "details": "See {IERC721-balanceOf}."
      },
      "getApproved(uint256)": {
        "details": "See {IERC721-getApproved}."
      },
      "isApprovedForAll(address,address)": {
        "details": "See {IERC721-isApprovedForAll}."
      },
      "name()": {
        "details": "See {IERC721Metadata-name}."
      },
      "owner()": {
        "details": "Returns the address of the current owner."
      },
      "ownerOf(uint256)": {
        "details": "See {IERC721-ownerOf}."
      },
      "renounceOwnership()": {
        "details": "Leaves the contract without owner. It will not be possible to call `onlyOwner` functions anymore. Can only be called by the current owner. NOTE: Renouncing ownership will leave the contract without an owner, thereby removing any functionality that is only available to the owner."
      },
      "safeTransferFrom(address,address,uint256)": {
        "details": "See {IERC721-safeTransferFrom}."
      },
      "safeTransferFrom(address,address,uint256,bytes)": {
        "details": "See {IERC721-safeTransferFrom}."
      },
      "setApprovalForAll(address,bool)": {
        "details": "See {IERC721-setApprovalForAll}."
      },
      "supportsInterface(bytes4)": {
        "details": "See {IERC165-supportsInterface}."
      },
      "symbol()": {
        "details": "See {IERC721Metadata-symbol}."
      },
      "tokenURI(uint256)": {
        "details": "See {IERC721Metadata-tokenURI}."
      },
      "transferFrom(address,address,uint256)": {
        "details": "See {IERC721-transferFrom}."
      },
      "transferOwnership(address)": {
        "details": "Transfers ownership of the contract to a new account (`newOwner`). Can only be called by the current owner."
      }
    },
    "version": 1
  },
  "userdoc": {
    "kind": "user",
    "methods": {},
    "version": 1
  }
}