{
  "contractName": "PlantNFT",
  "abi": [
    {
      "inputs": [
        {
          "internalType": "string",
          "name": "_name",
          "type": "string"
        },
        {
          "internalType": "string",
          "name": "_symbol",
          "type": "string"
        }
      ],
      "stateMutability": "nonpayable",
      "type": "constructor"
    },
    {
      "anonymous": false,
      "inputs": [
        {
          "indexed": true,
          "internalType": "address",
          "name": "owner",
          "type": "address"
        },
        {
          "indexed": true,
          "internalType": "address",
          "name": "approved",
          "type": "address"
        },
        {
          "indexed": true,
          "internalType": "uint256",
          "name": "tokenId",
          "type": "uint256"
        }
      ],
      "name": "Approval",
      "type": "event"
    },
    {
      "anonymous": false,
      "inputs": [
        {
          "indexed": true,
          "internalType": "address",
          "name": "owner",
          "type": "address"
        },
        {
          "indexed": true,
          "internalType": "address",
          "name": "operator",
          "type": "address"
        },
        {
          "indexed": false,
          "internalType": "bool",
          "name": "approved",
          "type": "bool"
        }
      ],
      "name": "ApprovalForAll",
      "type": "event"
    },
    {
      "anonymous": false,
      "inputs": [
        {
          "indexed": true,
          "internalType": "address",
          "name": "owner",
          "type": "address"
        },
        {
          "indexed": false,
          "internalType": "uint256",
          "name": "id",
          "type": "uint256"
        },
        {
          "indexed": false,
          "internalType": "uint256",
          "name": "dna",
          "type": "uint256"
        }
      ],
      "name": "NewPlant",
      "type": "event"
    },
    {
      "anonymous": false,
      "inputs": [
        {
          "indexed": true,
          "internalType": "address",
          "name": "owner",
          "type": "address"
        },
        {
          "indexed": false,
          "internalType": "uint256",
          "name": "id",
          "type": "uint256"
        }
      ],
      "name": "NewTool",
      "type": "event"
    },
    {
      "anonymous": false,
      "inputs": [
        {
          "indexed": true,
          "internalType": "address",
          "name": "previousOwner",
          "type": "address"
        },
        {
          "indexed": true,
          "internalType": "address",
          "name": "newOwner",
          "type": "address"
        }
      ],
      "name": "OwnershipTransferred",
      "type": "event"
    },
    {
      "anonymous": false,
      "inputs": [
        {
          "indexed": true,
          "internalType": "address",
          "name": "from",
          "type": "address"
        },
        {
          "indexed": true,
          "internalType": "address",
          "name": "to",
          "type": "address"
        },
        {
          "indexed": true,
          "internalType": "uint256",
          "name": "tokenId",
          "type": "uint256"
        }
      ],
      "name": "Transfer",
      "type": "event"
    },
    {
      "inputs": [
        {
          "internalType": "address",
          "name": "to",
          "type": "address"
        },
        {
          "internalType": "uint256",
          "name": "tokenId",
          "type": "uint256"
        }
      ],
      "name": "approve",
      "outputs": [],
      "stateMutability": "nonpayable",
      "type": "function"
    },
    {
      "inputs": [
        {
          "internalType": "address",
          "name": "owner",
          "type": "address"
        }
      ],
      "name": "balanceOf",
      "outputs": [
        {
          "internalType": "uint256",
          "name": "",
          "type": "uint256"
        }
      ],
      "stateMutability": "view",
      "type": "function",
      "constant": true
    },
    {
      "inputs": [
        {
          "internalType": "uint256",
          "name": "tokenId",
          "type": "uint256"
        }
      ],
      "name": "getApproved",
      "outputs": [
        {
          "internalType": "address",
          "name": "",
          "type": "address"
        }
      ],
      "stateMutability": "view",
      "type": "function",
      "constant": true
    },
    {
      "inputs": [
        {
          "internalType": "address",
          "name": "owner",
          "type": "address"
        },
        {
          "internalType": "address",
          "name": "operator",
          "type": "address"
        }
      ],
      "name": "isApprovedForAll",
      "outputs": [
        {
          "internalType": "bool",
          "name": "",
          "type": "bool"
        }
      ],
      "stateMutability": "view",
      "type": "function",
      "constant": true
    },
    {
      "inputs": [],
      "name": "name",
      "outputs": [
        {
          "internalType": "string",
          "name": "",
          "type": "string"
        }
      ],
      "stateMutability": "view",
      "type": "function",
      "constant": true
    },
    {
      "inputs": [],
      "name": "owner",
      "outputs": [
        {
          "internalType": "address",
          "name": "",
          "type": "address"
        }
      ],
      "stateMutability": "view",
      "type": "function",
      "constant": true
    },
    {
      "inputs": [
        {
          "internalType": "uint256",
          "name": "tokenId",
          "type": "uint256"
        }
      ],
      "name": "ownerOf",
      "outputs": [
        {
          "internalType": "address",
          "name": "",
          "type": "address"
        }
      ],
      "stateMutability": "view",
      "type": "function",
      "constant": true
    },
    {
      "inputs": [
        {
          "internalType": "uint256",
          "name": "",
          "type": "uint256"
        }
      ],
      "name": "plants",
      "outputs": [
        {
          "internalType": "string",
          "name": "name",
          "type": "string"
        },
        {
          "internalType": "uint256",
          "name": "id",
          "type": "uint256"
        },
        {
          "internalType": "uint256",
          "name": "dna",
          "type": "uint256"
        },
        {
          "internalType": "uint8",
          "name": "level",
          "type": "uint8"
        },
        {
          "internalType": "uint8",
          "name": "rarity",
          "type": "uint8"
        },
        {
          "internalType": "uint8",
          "name": "ableToLevel",
          "type": "uint8"
        }
      ],
      "stateMutability": "view",
      "type": "function",
      "constant": true
    },
    {
      "inputs": [],
      "name": "renounceOwnership",
      "outputs": [],
      "stateMutability": "nonpayable",
      "type": "function"
    },
    {
      "inputs": [
        {
          "internalType": "address",
          "name": "from",
          "type": "address"
        },
        {
          "internalType": "address",
          "name": "to",
          "type": "address"
        },
        {
          "internalType": "uint256",
          "name": "tokenId",
          "type": "uint256"
        }
      ],
      "name": "safeTransferFrom",
      "outputs": [],
      "stateMutability": "nonpayable",
      "type": "function"
    },
    {
      "inputs": [
        {
          "internalType": "address",
          "name": "from",
          "type": "address"
        },
        {
          "internalType": "address",
          "name": "to",
          "type": "address"
        },
        {
          "internalType": "uint256",
          "name": "tokenId",
          "type": "uint256"
        },
        {
          "internalType": "bytes",
          "name": "data",
          "type": "bytes"
        }
      ],
      "name": "safeTransferFrom",
      "outputs": [],
      "stateMutability": "nonpayable",
      "type": "function"
    },
    {
      "inputs": [
        {
          "internalType": "address",
          "name": "operator",
          "type": "address"
        },
        {
          "internalType": "bool",
          "name": "approved",
          "type": "bool"
        }
      ],
      "name": "setApprovalForAll",
      "outputs": [],
      "stateMutability": "nonpayable",
      "type": "function"
    },
    {
      "inputs": [
        {
          "internalType": "bytes4",
          "name": "interfaceId",
          "type": "bytes4"
        }
      ],
      "name": "supportsInterface",
      "outputs": [
        {
          "internalType": "bool",
          "name": "",
          "type": "bool"
        }
      ],
      "stateMutability": "view",
      "type": "function",
      "constant": true
    },
    {
      "inputs": [],
      "name": "symbol",
      "outputs": [
        {
          "internalType": "string",
          "name": "",
          "type": "string"
        }
      ],
      "stateMutability": "view",
      "type": "function",
      "constant": true
    },
    {
      "inputs": [
        {
          "internalType": "uint256",
          "name": "tokenId",
          "type": "uint256"
        }
      ],
      "name": "tokenURI",
      "outputs": [
        {
          "internalType": "string",
          "name": "",
          "type": "string"
        }
      ],
      "stateMutability": "view",
      "type": "function",
      "constant": true
    },
    {
      "inputs": [
        {
          "internalType": "uint256",
          "name": "",
          "type": "uint256"
        }
      ],
      "name": "toolType",
      "outputs": [
        {
          "internalType": "string",
          "name": "",
          "type": "string"
        }
      ],
      "stateMutability": "view",
      "type": "function",
      "constant": true
    },
    {
      "inputs": [
        {
          "internalType": "uint256",
          "name": "",
          "type": "uint256"
        }
      ],
      "name": "tools",
      "outputs": [
        {
          "internalType": "string",
          "name": "typeOfTool",
          "type": "string"
        },
        {
          "internalType": "uint256",
          "name": "id",
          "type": "uint256"
        },
        {
          "internalType": "uint8",
          "name": "rarity",
          "type": "uint8"
        }
      ],
      "stateMutability": "view",
      "type": "function",
      "constant": true
    },
    {
      "inputs": [
        {
          "internalType": "address",
          "name": "from",
          "type": "address"
        },
        {
          "internalType": "address",
          "name": "to",
          "type": "address"
        },
        {
          "internalType": "uint256",
          "name": "tokenId",
          "type": "uint256"
        }
      ],
      "name": "transferFrom",
      "outputs": [],
      "stateMutability": "nonpayable",
      "type": "function"
    },
    {
      "inputs": [
        {
          "internalType": "address",
          "name": "newOwner",
          "type": "address"
        }
      ],
      "name": "transferOwnership",
      "outputs": [],
      "stateMutability": "nonpayable",
      "type": "function"
    },
    {
      "inputs": [],
      "name": "pushString",
      "outputs": [],
      "stateMutability": "nonpayable",
      "type": "function"
    },
    {
      "inputs": [
        {
          "internalType": "uint256",
          "name": "_fee",
          "type": "uint256"
        }
      ],
      "name": "updateFee",
      "outputs": [],
      "stateMutability": "nonpayable",
      "type": "function"
    },
    {
      "inputs": [],
      "name": "withdraw",
      "outputs": [],
      "stateMutability": "payable",
      "type": "function",
      "payable": true
    },
    {
      "inputs": [
        {
          "internalType": "string",
          "name": "_name",
          "type": "string"
        }
      ],
      "name": "createRandomPlant",
      "outputs": [],
      "stateMutability": "payable",
      "type": "function",
      "payable": true
    },
    {
      "inputs": [],
      "name": "createRandomTool",
      "outputs": [],
      "stateMutability": "payable",
      "type": "function",
      "payable": true
    },
    {
      "inputs": [
        {
          "internalType": "address",
          "name": "_owner",
          "type": "address"
        },
        {
          "internalType": "uint256",
          "name": "_plantId",
          "type": "uint256"
        },
        {
          "internalType": "uint256",
          "name": "_toolId",
          "type": "uint256"
        }
      ],
      "name": "useTool",
      "outputs": [],
      "stateMutability": "nonpayable",
      "type": "function"
    },
    {
      "inputs": [],
      "name": "getPlants",
      "outputs": [
        {
          "components": [
            {
              "internalType": "string",
              "name": "name",
              "type": "string"
            },
            {
              "internalType": "uint256",
              "name": "id",
              "type": "uint256"
            },
            {
              "internalType": "uint256",
              "name": "dna",
              "type": "uint256"
            },
            {
              "internalType": "uint8",
              "name": "level",
              "type": "uint8"
            },
            {
              "internalType": "uint8",
              "name": "rarity",
              "type": "uint8"
            },
            {
              "internalType": "uint8",
              "name": "ableToLevel",
              "type": "uint8"
            }
          ],
          "internalType": "struct PlantNFT.Plant[]",
          "name": "",
          "type": "tuple[]"
        }
      ],
      "stateMutability": "view",
      "type": "function",
      "constant": true
    },
    {
      "inputs": [],
      "name": "getTools",
      "outputs": [
        {
          "components": [
            {
              "internalType": "string",
              "name": "typeOfTool",
              "type": "string"
            },
            {
              "internalType": "uint256",
              "name": "id",
              "type": "uint256"
            },
            {
              "internalType": "uint8",
              "name": "rarity",
              "type": "uint8"
            }
          ],
          "internalType": "struct PlantNFT.Tool[]",
          "name": "",
          "type": "tuple[]"
        }
      ],
      "stateMutability": "view",
      "type": "function",
      "constant": true
    },
    {
      "inputs": [
        {
          "internalType": "address",
          "name": "_owner",
          "type": "address"
        }
      ],
      "name": "getOwnerPlants",
      "outputs": [
        {
          "components": [
            {
              "internalType": "string",
              "name": "name",
              "type": "string"
            },
            {
              "internalType": "uint256",
              "name": "id",
              "type": "uint256"
            },
            {
              "internalType": "uint256",
              "name": "dna",
              "type": "uint256"
            },
            {
              "internalType": "uint8",
              "name": "level",
              "type": "uint8"
            },
            {
              "internalType": "uint8",
              "name": "rarity",
              "type": "uint8"
            },
            {
              "internalType": "uint8",
              "name": "ableToLevel",
              "type": "uint8"
            }
          ],
          "internalType": "struct PlantNFT.Plant[]",
          "name": "",
          "type": "tuple[]"
        }
      ],
      "stateMutability": "view",
      "type": "function",
      "constant": true
    },
    {
      "inputs": [
        {
          "internalType": "address",
          "name": "_owner",
          "type": "address"
        }
      ],
      "name": "getOwnerTools",
      "outputs": [
        {
          "components": [
            {
              "internalType": "string",
              "name": "typeOfTool",
              "type": "string"
            },
            {
              "internalType": "uint256",
              "name": "id",
              "type": "uint256"
            },
            {
              "internalType": "uint8",
              "name": "rarity",
              "type": "uint8"
            }
          ],
          "internalType": "struct PlantNFT.Tool[]",
          "name": "",
          "type": "tuple[]"
        }
      ],
      "stateMutability": "view",
      "type": "function",
      "constant": true
    },
    {
      "inputs": [
        {
          "internalType": "uint256",
          "name": "_plantId",
          "type": "uint256"
        }
      ],
      "name": "levelUp",
      "outputs": [],
      "stateMutability": "nonpayable",
      "type": "function"
    }
  ],
  "bytecode": "0x60806040526000600855662386f26fc1000060095566038d7ea4c68000600a553480156200002c57600080fd5b50604051620059af380380620059af833981810160405281019062000052919062000303565b81818160009081620000659190620005d3565b508060019081620000779190620005d3565b5050506200009a6200008e620000a260201b60201c565b620000aa60201b60201c565b5050620006ba565b600033905090565b6000600660009054906101000a900473ffffffffffffffffffffffffffffffffffffffff16905081600660006101000a81548173ffffffffffffffffffffffffffffffffffffffff021916908373ffffffffffffffffffffffffffffffffffffffff1602179055508173ffffffffffffffffffffffffffffffffffffffff168173ffffffffffffffffffffffffffffffffffffffff167f8be0079c531659141344cd1fd0a4f28419497f9722a3daafe3b4186f6b6457e060405160405180910390a35050565b6000604051905090565b600080fd5b600080fd5b600080fd5b600080fd5b6000601f19601f8301169050919050565b7f4e487b7100000000000000000000000000000000000000000000000000000000600052604160045260246000fd5b620001d9826200018e565b810181811067ffffffffffffffff82111715620001fb57620001fa6200019f565b5b80604052505050565b60006200021062000170565b90506200021e8282620001ce565b919050565b600067ffffffffffffffff8211156200024157620002406200019f565b5b6200024c826200018e565b9050602081019050919050565b60005b83811015620002795780820151818401526020810190506200025c565b60008484015250505050565b60006200029c620002968462000223565b62000204565b905082815260208101848484011115620002bb57620002ba62000189565b5b620002c884828562000259565b509392505050565b600082601f830112620002e857620002e762000184565b5b8151620002fa84826020860162000285565b91505092915050565b600080604083850312156200031d576200031c6200017a565b5b600083015167ffffffffffffffff8111156200033e576200033d6200017f565b5b6200034c85828601620002d0565b925050602083015167ffffffffffffffff81111562000370576200036f6200017f565b5b6200037e85828601620002d0565b9150509250929050565b600081519050919050565b7f4e487b7100000000000000000000000000000000000000000000000000000000600052602260045260246000fd5b60006002820490506001821680620003db57607f821691505b602082108103620003f157620003f062000393565b5b50919050565b60008190508160005260206000209050919050565b60006020601f8301049050919050565b600082821b905092915050565b6000600883026200045b7fffffffffffffffffffffffffffffffffffffffffffffffffffffffffffffffff826200041c565b6200046786836200041c565b95508019841693508086168417925050509392505050565b6000819050919050565b6000819050919050565b6000620004b4620004ae620004a8846200047f565b62000489565b6200047f565b9050919050565b6000819050919050565b620004d08362000493565b620004e8620004df82620004bb565b84845462000429565b825550505050565b600090565b620004ff620004f0565b6200050c818484620004c5565b505050565b5b81811015620005345762000528600082620004f5565b60018101905062000512565b5050565b601f82111562000583576200054d81620003f7565b62000558846200040c565b8101602085101562000568578190505b6200058062000577856200040c565b83018262000511565b50505b505050565b600082821c905092915050565b6000620005a86000198460080262000588565b1980831691505092915050565b6000620005c3838362000595565b9150826002028217905092915050565b620005de8262000388565b67ffffffffffffffff811115620005fa57620005f96200019f565b5b620006068254620003c2565b6200061382828562000538565b600060209050601f8311600181146200064b576000841562000636578287015190505b620006428582620005b5565b865550620006b2565b601f1984166200065b86620003f7565b60005b8281101562000685578489015182556001820191506020850194506020810190506200065e565b86831015620006a55784890151620006a1601f89168262000595565b8355505b6001600288020188555050505b505050505050565b6152e580620006ca6000396000f3fe6080604052600436106101cd5760003560e01c80638da5cb5b116100f7578063bc60c31d11610095578063e985e9c511610064578063e985e9c514610664578063eb7932c8146106a1578063f2fde38b146106b8578063f6abb217146106e1576101cd565b8063bc60c31d146105b3578063c87b56dd146105f2578063d8c620411461062f578063e68b2b9a1461065a576101cd565b806395d89b41116100d157806395d89b411461050d578063a22cb46514610538578063b88d4fde14610561578063b8d650061461058a576101cd565b80638da5cb5b146104775780638dd2361c146104a25780639012c4a8146104e4576101cd565b80633ccfd60b1161016f5780636ff7c88d1161013e5780636ff7c88d146103dc57806370a08231146103f8578063715018a6146104355780637c455b8b1461044c576101cd565b80633ccfd60b1461032f57806342842e0e1461033957806348a9a560146103625780636352211e1461039f576101cd565b8063081812fc116101ab578063081812fc14610277578063095ea7b3146102b45780630ce90ec2146102dd57806323b872dd14610306576101cd565b806301ffc9a7146101d2578063036fc5981461020f57806306fdde031461024c575b600080fd5b3480156101de57600080fd5b506101f960048036038101906101f491906138cf565b61071e565b6040516102069190613917565b60405180910390f35b34801561021b57600080fd5b5061023660048036038101906102319190613990565b610800565b6040516102439190613bcd565b60405180910390f35b34801561025857600080fd5b50610261610a20565b60405161026e9190613c39565b60405180910390f35b34801561028357600080fd5b5061029e60048036038101906102999190613c87565b610ab2565b6040516102ab9190613cc3565b60405180910390f35b3480156102c057600080fd5b506102db60048036038101906102d69190613cde565b610af8565b005b3480156102e957600080fd5b5061030460048036038101906102ff9190613c87565b610c0f565b005b34801561031257600080fd5b5061032d60048036038101906103289190613d1e565b610f9d565b005b610337610ffd565b005b34801561034557600080fd5b50610360600480360381019061035b9190613d1e565b61105b565b005b34801561036e57600080fd5b5061038960048036038101906103849190613c87565b61107b565b6040516103969190613c39565b60405180910390f35b3480156103ab57600080fd5b506103c660048036038101906103c19190613c87565b611127565b6040516103d39190613cc3565b60405180910390f35b6103f660048036038101906103f19190613ea6565b6111ad565b005b34801561040457600080fd5b5061041f600480360381019061041a9190613990565b6111c8565b60405161042c9190613efe565b60405180910390f35b34801561044157600080fd5b5061044a61127f565b005b34801561045857600080fd5b50610461611293565b60405161046e919061402b565b60405180910390f35b34801561048357600080fd5b5061048c6113ab565b6040516104999190613cc3565b60405180910390f35b3480156104ae57600080fd5b506104c960048036038101906104c49190613c87565b6113d5565b6040516104db9695949392919061405c565b60405180910390f35b3480156104f057600080fd5b5061050b60048036038101906105069190613c87565b6114d0565b005b34801561051957600080fd5b506105226114e2565b60405161052f9190613c39565b60405180910390f35b34801561054457600080fd5b5061055f600480360381019061055a91906140f0565b611574565b005b34801561056d57600080fd5b50610588600480360381019061058391906141d1565b61158a565b005b34801561059657600080fd5b506105b160048036038101906105ac9190614254565b6115ec565b005b3480156105bf57600080fd5b506105da60048036038101906105d59190613c87565b611b8f565b6040516105e9939291906142a7565b60405180910390f35b3480156105fe57600080fd5b5061061960048036038101906106149190613c87565b611c5e565b6040516106269190613c39565b60405180910390f35b34801561063b57600080fd5b50610644611cc6565b6040516106519190613bcd565b60405180910390f35b610662611e22565b005b34801561067057600080fd5b5061068b600480360381019061068691906142e5565b611e3b565b6040516106989190613917565b60405180910390f35b3480156106ad57600080fd5b506106b6611ecf565b005b3480156106c457600080fd5b506106df60048036038101906106da9190613990565b612006565b005b3480156106ed57600080fd5b5061070860048036038101906107039190613990565b612089565b604051610715919061402b565b60405180910390f35b60007f80ac58cd000000000000000000000000000000000000000000000000000000007bffffffffffffffffffffffffffffffffffffffffffffffffffffffff1916827bffffffffffffffffffffffffffffffffffffffffffffffffffffffff191614806107e957507f5b5e139f000000000000000000000000000000000000000000000000000000007bffffffffffffffffffffffffffffffffffffffffffffffffffffffff1916827bffffffffffffffffffffffffffffffffffffffffffffffffffffffff1916145b806107f957506107f8826122cb565b5b9050919050565b60606000600c8054905067ffffffffffffffff81111561082357610822613d7b565b5b60405190808252806020026020018201604052801561085c57816020015b610849613800565b8152602001906001900390816108415790505b5090506000805b600c80549050811015610a15578473ffffffffffffffffffffffffffffffffffffffff1661089082611127565b73ffffffffffffffffffffffffffffffffffffffff1603610a0257600c81815481106108bf576108be614325565b5b90600052602060002090600402016040518060c00160405290816000820180546108e890614383565b80601f016020809104026020016040519081016040528092919081815260200182805461091490614383565b80156109615780601f1061093657610100808354040283529160200191610961565b820191906000526020600020905b81548152906001019060200180831161094457829003601f168201915b5050505050815260200160018201548152602001600282015481526020016003820160009054906101000a900460ff1660ff1660ff1681526020016003820160019054906101000a900460ff1660ff1660ff1681526020016003820160029054906101000a900460ff1660ff1660ff16815250508383815181106109e8576109e7614325565b5b602002602001018190525081806109fe906143e3565b9250505b8080610a0d906143e3565b915050610863565b508192505050919050565b606060008054610a2f90614383565b80601f0160208091040260200160405190810160405280929190818152602001828054610a5b90614383565b8015610aa85780601f10610a7d57610100808354040283529160200191610aa8565b820191906000526020600020905b815481529060010190602001808311610a8b57829003601f168201915b5050505050905090565b6000610abd82612335565b6004600083815260200190815260200160002060009054906101000a900473ffffffffffffffffffffffffffffffffffffffff169050919050565b6000610b0382611127565b90508073ffffffffffffffffffffffffffffffffffffffff168373ffffffffffffffffffffffffffffffffffffffff1603610b73576040517f08c379a0000000000000000000000000000000000000000000000000000000008152600401610b6a9061449d565b60405180910390fd5b8073ffffffffffffffffffffffffffffffffffffffff16610b92612380565b73ffffffffffffffffffffffffffffffffffffffff161480610bc15750610bc081610bbb612380565b611e3b565b5b610c00576040517f08c379a0000000000000000000000000000000000000000000000000000000008152600401610bf79061452f565b60405180910390fd5b610c0a8383612388565b505050565b3373ffffffffffffffffffffffffffffffffffffffff16610c2f82611127565b73ffffffffffffffffffffffffffffffffffffffff1614610c4f57600080fd5b6000600c8281548110610c6557610c64614325565b5b9060005260206000209060040201905060148160030160019054906101000a900460ff1660ff1611610ce957600a8160030160029054906101000a900460ff1660ff1614610ce8576040517f08c379a0000000000000000000000000000000000000000000000000000000008152600401610cdf906145c1565b60405180910390fd5b5b60148160030160019054906101000a900460ff1660ff16118015610d22575060288160030160019054906101000a900460ff1660ff1611155b15610d7f5760088160030160029054906101000a900460ff1660ff1614610d7e576040517f08c379a0000000000000000000000000000000000000000000000000000000008152600401610d75906145c1565b60405180910390fd5b5b60288160030160019054906101000a900460ff1660ff16118015610db85750603c8160030160019054906101000a900460ff1660ff1611155b15610e155760068160030160029054906101000a900460ff1660ff1614610e14576040517f08c379a0000000000000000000000000000000000000000000000000000000008152600401610e0b906145c1565b60405180910390fd5b5b603c8160030160019054906101000a900460ff1660ff16118015610e4e575060508160030160019054906101000a900460ff1660ff1611155b15610eab5760048160030160029054906101000a900460ff1660ff1614610eaa576040517f08c379a0000000000000000000000000000000000000000000000000000000008152600401610ea1906145c1565b60405180910390fd5b5b60508160030160019054906101000a900460ff1660ff16118015610ee4575060648160030160019054906101000a900460ff1660ff1611155b15610f415760038160030160029054906101000a900460ff1660ff1614610f40576040517f08c379a0000000000000000000000000000000000000000000000000000000008152600401610f37906145c1565b60405180910390fd5b5b80600301600081819054906101000a900460ff1680929190610f62906145e1565b91906101000a81548160ff021916908360ff1602179055505060008160030160026101000a81548160ff021916908360ff1602179055505050565b610fae610fa8612380565b82612441565b610fed576040517f08c379a0000000000000000000000000000000000000000000000000000000008152600401610fe49061467c565b60405180910390fd5b610ff88383836124d6565b505050565b6110056127cf565b600061100f6113ab565b90508073ffffffffffffffffffffffffffffffffffffffff166108fc479081150290604051600060405180830381858888f19350505050158015611057573d6000803e3d6000fd5b5050565b6110768383836040518060200160405280600081525061158a565b505050565b600b818154811061108b57600080fd5b9060005260206000200160009150905080546110a690614383565b80601f01602080910402602001604051908101604052809291908181526020018280546110d290614383565b801561111f5780601f106110f45761010080835404028352916020019161111f565b820191906000526020600020905b81548152906001019060200180831161110257829003601f168201915b505050505081565b6000806111338361284d565b9050600073ffffffffffffffffffffffffffffffffffffffff168173ffffffffffffffffffffffffffffffffffffffff16036111a4576040517f08c379a000000000000000000000000000000000000000000000000000000000815260040161119b906146e8565b60405180910390fd5b80915050919050565b6009543410156111bc57600080fd5b6111c58161288a565b50565b60008073ffffffffffffffffffffffffffffffffffffffff168273ffffffffffffffffffffffffffffffffffffffff1603611238576040517f08c379a000000000000000000000000000000000000000000000000000000000815260040161122f9061477a565b60405180910390fd5b600360008373ffffffffffffffffffffffffffffffffffffffff1673ffffffffffffffffffffffffffffffffffffffff168152602001908152602001600020549050919050565b6112876127cf565b6112916000612a21565b565b6060600d805480602002602001604051908101604052809291908181526020016000905b828210156113a257838290600052602060002090600302016040518060600160405290816000820180546112ea90614383565b80601f016020809104026020016040519081016040528092919081815260200182805461131690614383565b80156113635780601f1061133857610100808354040283529160200191611363565b820191906000526020600020905b81548152906001019060200180831161134657829003601f168201915b50505050508152602001600182015481526020016002820160009054906101000a900460ff1660ff1660ff1681525050815260200190600101906112b7565b50505050905090565b6000600660009054906101000a900473ffffffffffffffffffffffffffffffffffffffff16905090565b600c81815481106113e557600080fd5b906000526020600020906004020160009150905080600001805461140890614383565b80601f016020809104026020016040519081016040528092919081815260200182805461143490614383565b80156114815780601f1061145657610100808354040283529160200191611481565b820191906000526020600020905b81548152906001019060200180831161146457829003601f168201915b5050505050908060010154908060020154908060030160009054906101000a900460ff16908060030160019054906101000a900460ff16908060030160029054906101000a900460ff16905086565b6114d86127cf565b8060098190555050565b6060600180546114f190614383565b80601f016020809104026020016040519081016040528092919081815260200182805461151d90614383565b801561156a5780601f1061153f5761010080835404028352916020019161156a565b820191906000526020600020905b81548152906001019060200180831161154d57829003601f168201915b5050505050905090565b61158661157f612380565b8383612ae7565b5050565b61159b611595612380565b83612441565b6115da576040517f08c379a00000000000000000000000000000000000000000000000000000000081526004016115d19061467c565b60405180910390fd5b6115e684848484612c53565b50505050565b60008060005b600d8054905081101561169b5761160881612caf565b15611688578573ffffffffffffffffffffffffffffffffffffffff1661162d82611127565b73ffffffffffffffffffffffffffffffffffffffff1603611657578180611653906143e3565b9250505b83600d828154811061166c5761166b614325565b5b90600052602060002090600302016001015403611687578092505b5b8080611693906143e3565b9150506115f2565b5060008060005b600c8054905081101561174b576116b881612caf565b15611738578773ffffffffffffffffffffffffffffffffffffffff166116dd82611127565b73ffffffffffffffffffffffffffffffffffffffff1603611707578180611703906143e3565b9250505b86600c828154811061171c5761171b614325565b5b90600052602060002090600402016001015403611737578092505b5b8080611743906143e3565b9150506116a2565b503373ffffffffffffffffffffffffffffffffffffffff1661176c86611127565b73ffffffffffffffffffffffffffffffffffffffff16146117c2576040517f08c379a00000000000000000000000000000000000000000000000000000000081526004016117b9906147e6565b60405180910390fd5b3373ffffffffffffffffffffffffffffffffffffffff166117e287611127565b73ffffffffffffffffffffffffffffffffffffffff1614611838576040517f08c379a000000000000000000000000000000000000000000000000000000000815260040161182f90614852565b60405180910390fd5b6000600c838154811061184e5761184d614325565b5b9060005260206000209060040201905060148160030160019054906101000a900460ff1660ff16116118d257600a8160030160029054906101000a900460ff1660ff16146118d1576040517f08c379a00000000000000000000000000000000000000000000000000000000081526004016118c8906148e4565b60405180910390fd5b5b60148160030160019054906101000a900460ff1660ff1611801561190b575060288160030160019054906101000a900460ff1660ff1611155b156119685760088160030160029054906101000a900460ff1660ff1610611967576040517f08c379a000000000000000000000000000000000000000000000000000000000815260040161195e90614950565b60405180910390fd5b5b60288160030160019054906101000a900460ff1660ff161180156119a15750603c8160030160019054906101000a900460ff1660ff1611155b156119fe5760068160030160029054906101000a900460ff1660ff16106119fd576040517f08c379a00000000000000000000000000000000000000000000000000000000081526004016119f490614950565b60405180910390fd5b5b603c8160030160019054906101000a900460ff1660ff16118015611a37575060508160030160019054906101000a900460ff1660ff1611155b15611a945760048160030160029054906101000a900460ff1660ff1610611a93576040517f08c379a0000000000000000000000000000000000000000000000000000000008152600401611a8a90614950565b60405180910390fd5b5b60508160030160019054906101000a900460ff1660ff16118015611acd575060648160030160019054906101000a900460ff1660ff1611155b15611b2a5760038160030160029054906101000a900460ff1660ff1610611b29576040517f08c379a0000000000000000000000000000000000000000000000000000000008152600401611b2090614950565b60405180910390fd5b5b60086000815480929190611b3d906143e3565b919050555080600301600281819054906101000a900460ff1680929190611b63906145e1565b91906101000a81548160ff021916908360ff16021790555050611b8586612cf0565b5050505050505050565b600d8181548110611b9f57600080fd5b9060005260206000209060030201600091509050806000018054611bc290614383565b80601f0160208091040260200160405190810160405280929190818152602001828054611bee90614383565b8015611c3b5780601f10611c1057610100808354040283529160200191611c3b565b820191906000526020600020905b815481529060010190602001808311611c1e57829003601f168201915b5050505050908060010154908060020160009054906101000a900460ff16905083565b6060611c6982612335565b6000611c73612e3e565b90506000815111611c935760405180602001604052806000815250611cbe565b80611c9d84612e55565b604051602001611cae9291906149ac565b6040516020818303038152906040525b915050919050565b6060600c805480602002602001604051908101604052809291908181526020016000905b82821015611e1957838290600052602060002090600402016040518060c0016040529081600082018054611d1d90614383565b80601f0160208091040260200160405190810160405280929190818152602001828054611d4990614383565b8015611d965780601f10611d6b57610100808354040283529160200191611d96565b820191906000526020600020905b815481529060010190602001808311611d7957829003601f168201915b5050505050815260200160018201548152602001600282015481526020016003820160009054906101000a900460ff1660ff1660ff1681526020016003820160019054906101000a900460ff1660ff1660ff1681526020016003820160029054906101000a900460ff1660ff1660ff168152505081526020019060010190611cea565b50505050905090565b600a54341015611e3157600080fd5b611e39612f23565b565b6000600560008473ffffffffffffffffffffffffffffffffffffffff1673ffffffffffffffffffffffffffffffffffffffff16815260200190815260200160002060008373ffffffffffffffffffffffffffffffffffffffff1673ffffffffffffffffffffffffffffffffffffffff16815260200190815260200160002060009054906101000a900460ff16905092915050565b600b80600181540180825580915050600190039060005260206000200160006040518060400160405280600581526020017f776174657200000000000000000000000000000000000000000000000000000081525090919091509081611f359190614b7c565b50600b80600181540180825580915050600190039060005260206000200160006040518060400160405280600a81526020017f66657274696c697a65720000000000000000000000000000000000000000000081525090919091509081611f9c9190614b7c565b50600b80600181540180825580915050600190039060005260206000200160006040518060400160405280600781526020017f73636973736f7200000000000000000000000000000000000000000000000000815250909190915090816120039190614b7c565b50565b61200e6127cf565b600073ffffffffffffffffffffffffffffffffffffffff168173ffffffffffffffffffffffffffffffffffffffff160361207d576040517f08c379a000000000000000000000000000000000000000000000000000000000815260040161207490614cc0565b60405180910390fd5b61208681612a21565b50565b60606000600854600d805490506120a09190614ce0565b67ffffffffffffffff8111156120b9576120b8613d7b565b5b6040519080825280602002602001820160405280156120f257816020015b6120df61383f565b8152602001906001900390816120d75790505b5090506000805b600d805490508110156122c057612134600d828154811061211d5761211c614325565b5b906000526020600020906003020160010154612caf565b156122ad578473ffffffffffffffffffffffffffffffffffffffff1661217e600d838154811061216757612166614325565b5b906000526020600020906003020160010154611127565b73ffffffffffffffffffffffffffffffffffffffff16036122ac57600d81815481106121ad576121ac614325565b5b90600052602060002090600302016040518060600160405290816000820180546121d690614383565b80601f016020809104026020016040519081016040528092919081815260200182805461220290614383565b801561224f5780601f106122245761010080835404028352916020019161224f565b820191906000526020600020905b81548152906001019060200180831161223257829003601f168201915b50505050508152602001600182015481526020016002820160009054906101000a900460ff1660ff1660ff168152505083838151811061229257612291614325565b5b602002602001018190525081806122a8906143e3565b9250505b5b80806122b8906143e3565b9150506120f9565b508192505050919050565b60007f01ffc9a7000000000000000000000000000000000000000000000000000000007bffffffffffffffffffffffffffffffffffffffffffffffffffffffff1916827bffffffffffffffffffffffffffffffffffffffffffffffffffffffff1916149050919050565b61233e81612caf565b61237d576040517f08c379a0000000000000000000000000000000000000000000000000000000008152600401612374906146e8565b60405180910390fd5b50565b600033905090565b816004600083815260200190815260200160002060006101000a81548173ffffffffffffffffffffffffffffffffffffffff021916908373ffffffffffffffffffffffffffffffffffffffff160217905550808273ffffffffffffffffffffffffffffffffffffffff166123fb83611127565b73ffffffffffffffffffffffffffffffffffffffff167f8c5be1e5ebec7d5bd14f71427d1e84f3dd0314c0f7b2291e5b200ac8c7c3b92560405160405180910390a45050565b60008061244d83611127565b90508073ffffffffffffffffffffffffffffffffffffffff168473ffffffffffffffffffffffffffffffffffffffff16148061248f575061248e8185611e3b565b5b806124cd57508373ffffffffffffffffffffffffffffffffffffffff166124b584610ab2565b73ffffffffffffffffffffffffffffffffffffffff16145b91505092915050565b8273ffffffffffffffffffffffffffffffffffffffff166124f682611127565b73ffffffffffffffffffffffffffffffffffffffff161461254c576040517f08c379a000000000000000000000000000000000000000000000000000000000815260040161254390614d86565b60405180910390fd5b600073ffffffffffffffffffffffffffffffffffffffff168273ffffffffffffffffffffffffffffffffffffffff16036125bb576040517f08c379a00000000000000000000000000000000000000000000000000000000081526004016125b290614e18565b60405180910390fd5b6125c883838360016130fc565b8273ffffffffffffffffffffffffffffffffffffffff166125e882611127565b73ffffffffffffffffffffffffffffffffffffffff161461263e576040517f08c379a000000000000000000000000000000000000000000000000000000000815260040161263590614d86565b60405180910390fd5b6004600082815260200190815260200160002060006101000a81549073ffffffffffffffffffffffffffffffffffffffff02191690556001600360008573ffffffffffffffffffffffffffffffffffffffff1673ffffffffffffffffffffffffffffffffffffffff168152602001908152602001600020600082825403925050819055506001600360008473ffffffffffffffffffffffffffffffffffffffff1673ffffffffffffffffffffffffffffffffffffffff16815260200190815260200160002060008282540192505081905550816002600083815260200190815260200160002060006101000a81548173ffffffffffffffffffffffffffffffffffffffff021916908373ffffffffffffffffffffffffffffffffffffffff160217905550808273ffffffffffffffffffffffffffffffffffffffff168473ffffffffffffffffffffffffffffffffffffffff167fddf252ad1be2c89b69c2b068fc378daa952ba7f163c4a11628f55a4df523b3ef60405160405180910390a46127ca8383836001613222565b505050565b6127d7612380565b73ffffffffffffffffffffffffffffffffffffffff166127f56113ab565b73ffffffffffffffffffffffffffffffffffffffff161461284b576040517f08c379a000000000000000000000000000000000000000000000000000000000815260040161284290614e84565b60405180910390fd5b565b60006002600083815260200190815260200160002060009054906101000a900473ffffffffffffffffffffffffffffffffffffffff169050919050565b60006128966064613228565b905060006128aa662386f26fc10000613228565b905060006040518060c001604052808581526020016007548152602001838152602001600160ff1681526020018460ff168152602001600060ff168152509050600c819080600181540180825580915050600190039060005260206000209060040201600090919091909150600082015181600001908161292b9190614b7c565b50602082015181600101556040820151816002015560608201518160030160006101000a81548160ff021916908360ff16021790555060808201518160030160016101000a81548160ff021916908360ff16021790555060a08201518160030160026101000a81548160ff021916908360ff16021790555050506129b13360075461326d565b3373ffffffffffffffffffffffffffffffffffffffff167f7140a0857fa6c7e1d6cab1d5603c9f1db9e759906eb0617b83614815665b12dc600754846040516129fb929190614ea4565b60405180910390a260076000815480929190612a16906143e3565b919050555050505050565b6000600660009054906101000a900473ffffffffffffffffffffffffffffffffffffffff16905081600660006101000a81548173ffffffffffffffffffffffffffffffffffffffff021916908373ffffffffffffffffffffffffffffffffffffffff1602179055508173ffffffffffffffffffffffffffffffffffffffff168173ffffffffffffffffffffffffffffffffffffffff167f8be0079c531659141344cd1fd0a4f28419497f9722a3daafe3b4186f6b6457e060405160405180910390a35050565b8173ffffffffffffffffffffffffffffffffffffffff168373ffffffffffffffffffffffffffffffffffffffff1603612b55576040517f08c379a0000000000000000000000000000000000000000000000000000000008152600401612b4c90614f19565b60405180910390fd5b80600560008573ffffffffffffffffffffffffffffffffffffffff1673ffffffffffffffffffffffffffffffffffffffff16815260200190815260200160002060008473ffffffffffffffffffffffffffffffffffffffff1673ffffffffffffffffffffffffffffffffffffffff16815260200190815260200160002060006101000a81548160ff0219169083151502179055508173ffffffffffffffffffffffffffffffffffffffff168373ffffffffffffffffffffffffffffffffffffffff167f17307eab39ab6107e8899845ad3d59bd9653f200f220920489ca2b5937696c3183604051612c469190613917565b60405180910390a3505050565b612c5e8484846124d6565b612c6a8484848461328b565b612ca9576040517f08c379a0000000000000000000000000000000000000000000000000000000008152600401612ca090614fab565b60405180910390fd5b50505050565b60008073ffffffffffffffffffffffffffffffffffffffff16612cd18361284d565b73ffffffffffffffffffffffffffffffffffffffff1614159050919050565b6000612cfb82611127565b9050612d0b8160008460016130fc565b612d1482611127565b90506004600083815260200190815260200160002060006101000a81549073ffffffffffffffffffffffffffffffffffffffff02191690556001600360008373ffffffffffffffffffffffffffffffffffffffff1673ffffffffffffffffffffffffffffffffffffffff168152602001908152602001600020600082825403925050819055506002600083815260200190815260200160002060006101000a81549073ffffffffffffffffffffffffffffffffffffffff021916905581600073ffffffffffffffffffffffffffffffffffffffff168273ffffffffffffffffffffffffffffffffffffffff167fddf252ad1be2c89b69c2b068fc378daa952ba7f163c4a11628f55a4df523b3ef60405160405180910390a4612e3a816000846001613222565b5050565b606060405180602001604052806000815250905090565b606060006001612e6484613412565b01905060008167ffffffffffffffff811115612e8357612e82613d7b565b5b6040519080825280601f01601f191660200182016040528015612eb55781602001600182028036833780820191505090505b509050600082602001820190505b600115612f18578080600190039150507f3031323334353637383961626364656600000000000000000000000000000000600a86061a8153600a8581612f0c57612f0b614fcb565b5b04945060008503612ec3575b819350505050919050565b612f2b611ecf565b6000612f37600a613228565b90506000600b612f476003613228565b60ff1681548110612f5b57612f5a614325565b5b906000526020600020018054612f7090614383565b80601f0160208091040260200160405190810160405280929190818152602001828054612f9c90614383565b8015612fe95780601f10612fbe57610100808354040283529160200191612fe9565b820191906000526020600020905b815481529060010190602001808311612fcc57829003601f168201915b505050505090506000604051806060016040528083815260200160075481526020018460ff168152509050600d81908060018154018082558091505060019003906000526020600020906003020160009091909190915060008201518160000190816130559190614b7c565b506020820151816001015560408201518160020160006101000a81548160ff021916908360ff160217905550505061308f3360075461326d565b3373ffffffffffffffffffffffffffffffffffffffff167f2677635a56817fc92b34099ae5ad556fbb7baf80e593c4e79f15a9037b367d6c6007546040516130d79190613efe565b60405180910390a2600760008154809291906130f2906143e3565b9190505550505050565b600181111561321c57600073ffffffffffffffffffffffffffffffffffffffff168473ffffffffffffffffffffffffffffffffffffffff16146131905780600360008673ffffffffffffffffffffffffffffffffffffffff1673ffffffffffffffffffffffffffffffffffffffff16815260200190815260200160002060008282546131889190614ce0565b925050819055505b600073ffffffffffffffffffffffffffffffffffffffff168373ffffffffffffffffffffffffffffffffffffffff161461321b5780600360008573ffffffffffffffffffffffffffffffffffffffff1673ffffffffffffffffffffffffffffffffffffffff16815260200190815260200160002060008282546132139190614ffa565b925050819055505b5b50505050565b50505050565b600080423360405160200161323e929190615097565b6040516020818303038152906040528051906020012060001c9050828161326591906150c3565b915050919050565b613287828260405180602001604052806000815250613565565b5050565b60006132ac8473ffffffffffffffffffffffffffffffffffffffff166135c0565b15613405578373ffffffffffffffffffffffffffffffffffffffff1663150b7a026132d5612380565b8786866040518563ffffffff1660e01b81526004016132f79493929190615149565b6020604051808303816000875af192505050801561333357506040513d601f19601f8201168201806040525081019061333091906151aa565b60015b6133b5573d8060008114613363576040519150601f19603f3d011682016040523d82523d6000602084013e613368565b606091505b5060008151036133ad576040517f08c379a00000000000000000000000000000000000000000000000000000000081526004016133a490614fab565b60405180910390fd5b805181602001fd5b63150b7a0260e01b7bffffffffffffffffffffffffffffffffffffffffffffffffffffffff1916817bffffffffffffffffffffffffffffffffffffffffffffffffffffffff19161491505061340a565b600190505b949350505050565b600080600090507a184f03e93ff9f4daa797ed6e38ed64bf6a1f0100000000000000008310613470577a184f03e93ff9f4daa797ed6e38ed64bf6a1f010000000000000000838161346657613465614fcb565b5b0492506040810190505b6d04ee2d6d415b85acef810000000083106134ad576d04ee2d6d415b85acef810000000083816134a3576134a2614fcb565b5b0492506020810190505b662386f26fc1000083106134dc57662386f26fc1000083816134d2576134d1614fcb565b5b0492506010810190505b6305f5e1008310613505576305f5e10083816134fb576134fa614fcb565b5b0492506008810190505b612710831061352a5761271083816135205761351f614fcb565b5b0492506004810190505b6064831061354d576064838161354357613542614fcb565b5b0492506002810190505b600a831061355c576001810190505b80915050919050565b61356f83836135e3565b61357c600084848461328b565b6135bb576040517f08c379a00000000000000000000000000000000000000000000000000000000081526004016135b290614fab565b60405180910390fd5b505050565b6000808273ffffffffffffffffffffffffffffffffffffffff163b119050919050565b600073ffffffffffffffffffffffffffffffffffffffff168273ffffffffffffffffffffffffffffffffffffffff1603613652576040517f08c379a000000000000000000000000000000000000000000000000000000000815260040161364990615223565b60405180910390fd5b61365b81612caf565b1561369b576040517f08c379a00000000000000000000000000000000000000000000000000000000081526004016136929061528f565b60405180910390fd5b6136a96000838360016130fc565b6136b281612caf565b156136f2576040517f08c379a00000000000000000000000000000000000000000000000000000000081526004016136e99061528f565b60405180910390fd5b6001600360008473ffffffffffffffffffffffffffffffffffffffff1673ffffffffffffffffffffffffffffffffffffffff16815260200190815260200160002060008282540192505081905550816002600083815260200190815260200160002060006101000a81548173ffffffffffffffffffffffffffffffffffffffff021916908373ffffffffffffffffffffffffffffffffffffffff160217905550808273ffffffffffffffffffffffffffffffffffffffff16600073ffffffffffffffffffffffffffffffffffffffff167fddf252ad1be2c89b69c2b068fc378daa952ba7f163c4a11628f55a4df523b3ef60405160405180910390a46137fc600083836001613222565b5050565b6040518060c00160405280606081526020016000815260200160008152602001600060ff168152602001600060ff168152602001600060ff1681525090565b60405180606001604052806060815260200160008152602001600060ff1681525090565b6000604051905090565b600080fd5b600080fd5b60007fffffffff0000000000000000000000000000000000000000000000000000000082169050919050565b6138ac81613877565b81146138b757600080fd5b50565b6000813590506138c9816138a3565b92915050565b6000602082840312156138e5576138e461386d565b5b60006138f3848285016138ba565b91505092915050565b60008115159050919050565b613911816138fc565b82525050565b600060208201905061392c6000830184613908565b92915050565b600073ffffffffffffffffffffffffffffffffffffffff82169050919050565b600061395d82613932565b9050919050565b61396d81613952565b811461397857600080fd5b50565b60008135905061398a81613964565b92915050565b6000602082840312156139a6576139a561386d565b5b60006139b48482850161397b565b91505092915050565b600081519050919050565b600082825260208201905092915050565b6000819050602082019050919050565b600081519050919050565b600082825260208201905092915050565b60005b83811015613a23578082015181840152602081019050613a08565b60008484015250505050565b6000601f19601f8301169050919050565b6000613a4b826139e9565b613a5581856139f4565b9350613a65818560208601613a05565b613a6e81613a2f565b840191505092915050565b6000819050919050565b613a8c81613a79565b82525050565b600060ff82169050919050565b613aa881613a92565b82525050565b600060c0830160008301518482036000860152613acb8282613a40565b9150506020830151613ae06020860182613a83565b506040830151613af36040860182613a83565b506060830151613b066060860182613a9f565b506080830151613b196080860182613a9f565b5060a0830151613b2c60a0860182613a9f565b508091505092915050565b6000613b438383613aae565b905092915050565b6000602082019050919050565b6000613b63826139bd565b613b6d81856139c8565b935083602082028501613b7f856139d9565b8060005b85811015613bbb5784840389528151613b9c8582613b37565b9450613ba783613b4b565b925060208a01995050600181019050613b83565b50829750879550505050505092915050565b60006020820190508181036000830152613be78184613b58565b905092915050565b600082825260208201905092915050565b6000613c0b826139e9565b613c158185613bef565b9350613c25818560208601613a05565b613c2e81613a2f565b840191505092915050565b60006020820190508181036000830152613c538184613c00565b905092915050565b613c6481613a79565b8114613c6f57600080fd5b50565b600081359050613c8181613c5b565b92915050565b600060208284031215613c9d57613c9c61386d565b5b6000613cab84828501613c72565b91505092915050565b613cbd81613952565b82525050565b6000602082019050613cd86000830184613cb4565b92915050565b60008060408385031215613cf557613cf461386d565b5b6000613d038582860161397b565b9250506020613d1485828601613c72565b9150509250929050565b600080600060608486031215613d3757613d3661386d565b5b6000613d458682870161397b565b9350506020613d568682870161397b565b9250506040613d6786828701613c72565b9150509250925092565b600080fd5b600080fd5b7f4e487b7100000000000000000000000000000000000000000000000000000000600052604160045260246000fd5b613db382613a2f565b810181811067ffffffffffffffff82111715613dd257613dd1613d7b565b5b80604052505050565b6000613de5613863565b9050613df18282613daa565b919050565b600067ffffffffffffffff821115613e1157613e10613d7b565b5b613e1a82613a2f565b9050602081019050919050565b82818337600083830152505050565b6000613e49613e4484613df6565b613ddb565b905082815260208101848484011115613e6557613e64613d76565b5b613e70848285613e27565b509392505050565b600082601f830112613e8d57613e8c613d71565b5b8135613e9d848260208601613e36565b91505092915050565b600060208284031215613ebc57613ebb61386d565b5b600082013567ffffffffffffffff811115613eda57613ed9613872565b5b613ee684828501613e78565b91505092915050565b613ef881613a79565b82525050565b6000602082019050613f136000830184613eef565b92915050565b600081519050919050565b600082825260208201905092915050565b6000819050602082019050919050565b60006060830160008301518482036000860152613f628282613a40565b9150506020830151613f776020860182613a83565b506040830151613f8a6040860182613a9f565b508091505092915050565b6000613fa18383613f45565b905092915050565b6000602082019050919050565b6000613fc182613f19565b613fcb8185613f24565b935083602082028501613fdd85613f35565b8060005b858110156140195784840389528151613ffa8582613f95565b945061400583613fa9565b925060208a01995050600181019050613fe1565b50829750879550505050505092915050565b600060208201905081810360008301526140458184613fb6565b905092915050565b61405681613a92565b82525050565b600060c08201905081810360008301526140768189613c00565b90506140856020830188613eef565b6140926040830187613eef565b61409f606083018661404d565b6140ac608083018561404d565b6140b960a083018461404d565b979650505050505050565b6140cd816138fc565b81146140d857600080fd5b50565b6000813590506140ea816140c4565b92915050565b600080604083850312156141075761410661386d565b5b60006141158582860161397b565b9250506020614126858286016140db565b9150509250929050565b600067ffffffffffffffff82111561414b5761414a613d7b565b5b61415482613a2f565b9050602081019050919050565b600061417461416f84614130565b613ddb565b9050828152602081018484840111156141905761418f613d76565b5b61419b848285613e27565b509392505050565b600082601f8301126141b8576141b7613d71565b5b81356141c8848260208601614161565b91505092915050565b600080600080608085870312156141eb576141ea61386d565b5b60006141f98782880161397b565b945050602061420a8782880161397b565b935050604061421b87828801613c72565b925050606085013567ffffffffffffffff81111561423c5761423b613872565b5b614248878288016141a3565b91505092959194509250565b60008060006060848603121561426d5761426c61386d565b5b600061427b8682870161397b565b935050602061428c86828701613c72565b925050604061429d86828701613c72565b9150509250925092565b600060608201905081810360008301526142c18186613c00565b90506142d06020830185613eef565b6142dd604083018461404d565b949350505050565b600080604083850312156142fc576142fb61386d565b5b600061430a8582860161397b565b925050602061431b8582860161397b565b9150509250929050565b7f4e487b7100000000000000000000000000000000000000000000000000000000600052603260045260246000fd5b7f4e487b7100000000000000000000000000000000000000000000000000000000600052602260045260246000fd5b6000600282049050600182168061439b57607f821691505b6020821081036143ae576143ad614354565b5b50919050565b7f4e487b7100000000000000000000000000000000000000000000000000000000600052601160045260246000fd5b60006143ee82613a79565b91507fffffffffffffffffffffffffffffffffffffffffffffffffffffffffffffffff82036144205761441f6143b4565b5b600182019050919050565b7f4552433732313a20617070726f76616c20746f2063757272656e74206f776e6560008201527f7200000000000000000000000000000000000000000000000000000000000000602082015250565b6000614487602183613bef565b91506144928261442b565b604082019050919050565b600060208201905081810360008301526144b68161447a565b9050919050565b7f4552433732313a20617070726f76652063616c6c6572206973206e6f7420746f60008201527f6b656e206f776e6572206f7220617070726f76656420666f7220616c6c000000602082015250565b6000614519603d83613bef565b9150614524826144bd565b604082019050919050565b600060208201905081810360008301526145488161450c565b9050919050565b7f706c616e74206973206e6f7420726561647920746f206c6576656c207570207960008201527f6574000000000000000000000000000000000000000000000000000000000000602082015250565b60006145ab602283613bef565b91506145b68261454f565b604082019050919050565b600060208201905081810360008301526145da8161459e565b9050919050565b60006145ec82613a92565b915060ff82036145ff576145fe6143b4565b5b600182019050919050565b7f4552433732313a2063616c6c6572206973206e6f7420746f6b656e206f776e6560008201527f72206f7220617070726f76656400000000000000000000000000000000000000602082015250565b6000614666602d83613bef565b91506146718261460a565b604082019050919050565b6000602082019050818103600083015261469581614659565b9050919050565b7f4552433732313a20696e76616c696420746f6b656e2049440000000000000000600082015250565b60006146d2601883613bef565b91506146dd8261469c565b602082019050919050565b60006020820190508181036000830152614701816146c5565b9050919050565b7f4552433732313a2061646472657373207a65726f206973206e6f74206120766160008201527f6c6964206f776e65720000000000000000000000000000000000000000000000602082015250565b6000614764602983613bef565b915061476f82614708565b604082019050919050565b6000602082019050818103600083015261479381614757565b9050919050565b7f546f6f6c20646f6573206e6f742062656c6f6e6720746f2073656e6465720000600082015250565b60006147d0601e83613bef565b91506147db8261479a565b602082019050919050565b600060208201905081810360008301526147ff816147c3565b9050919050565b7f506c616e7420646f6573206e6f742062656c6f6e6720746f2073656e64657200600082015250565b600061483c601f83613bef565b915061484782614806565b602082019050919050565b6000602082019050818103600083015261486b8161482f565b9050919050565b7f506c616e74206973206e6f7420726561647920746f206c6576656c207570207960008201527f6574000000000000000000000000000000000000000000000000000000000000602082015250565b60006148ce602283613bef565b91506148d982614872565b604082019050919050565b600060208201905081810360008301526148fd816148c1565b9050919050565b7f4d61782061626c65546f4c6576656c2072656163686564000000000000000000600082015250565b600061493a601783613bef565b915061494582614904565b602082019050919050565b600060208201905081810360008301526149698161492d565b9050919050565b600081905092915050565b6000614986826139e9565b6149908185614970565b93506149a0818560208601613a05565b80840191505092915050565b60006149b8828561497b565b91506149c4828461497b565b91508190509392505050565b60008190508160005260206000209050919050565b60006020601f8301049050919050565b600082821b905092915050565b600060088302614a327fffffffffffffffffffffffffffffffffffffffffffffffffffffffffffffffff826149f5565b614a3c86836149f5565b95508019841693508086168417925050509392505050565b6000819050919050565b6000614a79614a74614a6f84613a79565b614a54565b613a79565b9050919050565b6000819050919050565b614a9383614a5e565b614aa7614a9f82614a80565b848454614a02565b825550505050565b600090565b614abc614aaf565b614ac7818484614a8a565b505050565b5b81811015614aeb57614ae0600082614ab4565b600181019050614acd565b5050565b601f821115614b3057614b01816149d0565b614b0a846149e5565b81016020851015614b19578190505b614b2d614b25856149e5565b830182614acc565b50505b505050565b600082821c905092915050565b6000614b5360001984600802614b35565b1980831691505092915050565b6000614b6c8383614b42565b9150826002028217905092915050565b614b85826139e9565b67ffffffffffffffff811115614b9e57614b9d613d7b565b5b614ba88254614383565b614bb3828285614aef565b600060209050601f831160018114614be65760008415614bd4578287015190505b614bde8582614b60565b865550614c46565b601f198416614bf4866149d0565b60005b82811015614c1c57848901518255600182019150602085019450602081019050614bf7565b86831015614c395784890151614c35601f891682614b42565b8355505b6001600288020188555050505b505050505050565b7f4f776e61626c653a206e6577206f776e657220697320746865207a65726f206160008201527f6464726573730000000000000000000000000000000000000000000000000000602082015250565b6000614caa602683613bef565b9150614cb582614c4e565b604082019050919050565b60006020820190508181036000830152614cd981614c9d565b9050919050565b6000614ceb82613a79565b9150614cf683613a79565b9250828203905081811115614d0e57614d0d6143b4565b5b92915050565b7f4552433732313a207472616e736665722066726f6d20696e636f72726563742060008201527f6f776e6572000000000000000000000000000000000000000000000000000000602082015250565b6000614d70602583613bef565b9150614d7b82614d14565b604082019050919050565b60006020820190508181036000830152614d9f81614d63565b9050919050565b7f4552433732313a207472616e7366657220746f20746865207a65726f2061646460008201527f7265737300000000000000000000000000000000000000000000000000000000602082015250565b6000614e02602483613bef565b9150614e0d82614da6565b604082019050919050565b60006020820190508181036000830152614e3181614df5565b9050919050565b7f4f776e61626c653a2063616c6c6572206973206e6f7420746865206f776e6572600082015250565b6000614e6e602083613bef565b9150614e7982614e38565b602082019050919050565b60006020820190508181036000830152614e9d81614e61565b9050919050565b6000604082019050614eb96000830185613eef565b614ec66020830184613eef565b9392505050565b7f4552433732313a20617070726f766520746f2063616c6c657200000000000000600082015250565b6000614f03601983613bef565b9150614f0e82614ecd565b602082019050919050565b60006020820190508181036000830152614f3281614ef6565b9050919050565b7f4552433732313a207472616e7366657220746f206e6f6e20455243373231526560008201527f63656976657220696d706c656d656e7465720000000000000000000000000000602082015250565b6000614f95603283613bef565b9150614fa082614f39565b604082019050919050565b60006020820190508181036000830152614fc481614f88565b9050919050565b7f4e487b7100000000000000000000000000000000000000000000000000000000600052601260045260246000fd5b600061500582613a79565b915061501083613a79565b9250828201905080821115615028576150276143b4565b5b92915050565b6000819050919050565b61504961504482613a79565b61502e565b82525050565b60008160601b9050919050565b60006150678261504f565b9050919050565b60006150798261505c565b9050919050565b61509161508c82613952565b61506e565b82525050565b60006150a38285615038565b6020820191506150b38284615080565b6014820191508190509392505050565b60006150ce82613a79565b91506150d983613a79565b9250826150e9576150e8614fcb565b5b828206905092915050565b600081519050919050565b600082825260208201905092915050565b600061511b826150f4565b61512581856150ff565b9350615135818560208601613a05565b61513e81613a2f565b840191505092915050565b600060808201905061515e6000830187613cb4565b61516b6020830186613cb4565b6151786040830185613eef565b818103606083015261518a8184615110565b905095945050505050565b6000815190506151a4816138a3565b92915050565b6000602082840312156151c0576151bf61386d565b5b60006151ce84828501615195565b91505092915050565b7f4552433732313a206d696e7420746f20746865207a65726f2061646472657373600082015250565b600061520d602083613bef565b9150615218826151d7565b602082019050919050565b6000602082019050818103600083015261523c81615200565b9050919050565b7f4552433732313a20746f6b656e20616c7265616479206d696e74656400000000600082015250565b6000615279601c83613bef565b915061528482615243565b602082019050919050565b600060208201905081810360008301526152a88161526c565b905091905056fea2646970667358221220c71a19ab1e668c29e80d8ebac352be8d6f786357786f65afc38e296cd031586d64736f6c63430008110033",
  "immutableReferences": {},
  "source": "// SPDX-License-Identifier: MIT\n\npragma solidity ^0.8.0;\n\nimport \"@openzeppelin/contracts/token/ERC721/ERC721.sol\";\nimport \"@openzeppelin/contracts/access/Ownable.sol\";\n\ncontract PlantNFT is ERC721, Ownable {\n  constructor(string memory _name, string memory _symbol)\n    ERC721(_name, _symbol)\n  {}\n\n  uint256 COUNTER;\n  uint256 AlreadyUsed = 0;\n\n  uint256 fee = 0.01 ether;\n  uint256 toolFee =  0.001 ether;\n  \n\n  string[] public toolType;\n  function pushString() public{\n    toolType.push(\"water\");\n    toolType.push(\"fertilizer\");\n    toolType.push(\"scissor\");\n  }\n\n  struct Plant {\n    string name;\n    uint256 id;\n    uint256 dna;\n    uint8 level;\n    uint8 rarity;\n    uint8 ableToLevel;\n  }\n\n  struct Tool{\n    string typeOfTool;\n    uint256 id;\n    uint8 rarity;\n  }\n\n  Plant[] public plants;\n  Tool[] public tools;\n\n  event NewPlant(address indexed owner, uint256 id, uint256 dna);\n  event NewTool(address indexed owner, uint256 id);\n\n  // Helpers\n  function _createRandomNum(uint256 _mod) internal view returns (uint256) {\n    uint256 randomNum = uint256(\n      keccak256(abi.encodePacked(block.timestamp, msg.sender))\n    );\n    return randomNum % _mod;\n  }\n\n  function updateFee(uint256 _fee) external onlyOwner {\n    fee = _fee;\n  }\n\n  function withdraw() external payable onlyOwner {\n    address payable _owner = payable(owner());\n    _owner.transfer(address(this).balance);\n  }\n\n  // Creation of seeds\n  function _createPlant(string memory _name) internal {\n    uint8 randRarity = uint8(_createRandomNum(100));\n    uint256 randDna = _createRandomNum(10**16);\n    Plant memory newPlant = Plant(_name, COUNTER, randDna, 1, randRarity, 0);\n    plants.push(newPlant);\n    _safeMint(msg.sender, COUNTER);\n    emit NewPlant(msg.sender, COUNTER, randDna);\n    COUNTER++;\n  }\n\n  function createRandomPlant(string memory _name) public payable {\n    require(msg.value >= fee);\n    _createPlant(_name);\n  }\n\n  // Creation of tools\n  function _createTools() internal {\n    pushString();\n    uint8 randToolRarity = uint8(_createRandomNum(10));\n    string memory randTool = toolType[uint8(_createRandomNum(3))];\n    Tool memory newTool = Tool(randTool, COUNTER, randToolRarity);\n    tools.push(newTool);\n    _safeMint(msg.sender, COUNTER);\n    emit NewTool(msg.sender, COUNTER);\n    COUNTER++;\n  }\n\n  function createRandomTool() public payable {\n    require(msg.value >= toolFee);\n    _createTools();\n  }\n\n  // UseTool\n  function useTool(address _owner, uint256 _plantId, uint256 _toolId) public {\n    uint256 tokenIdToUse = 0;\n    uint256 counterT = 0;\n    for (uint256 i = 0; i < tools.length; i++) {\n      if(!_exists(i)){\n        continue;\n      }\n      if (ownerOf(i) == _owner) {\n        counterT++;\n      }\n      if(tools[i].id == _toolId){\n        tokenIdToUse = i;\n      }\n    }\n    uint256 tokenIdToLevel = 0;\n    uint256 counterL = 0;\n    for (uint256 c = 0; c < plants.length; c++) {\n      if(!_exists(c)){\n        continue;\n      }\n      if (ownerOf(c) == _owner) {\n        counterL++;\n      }\n      if(plants[c].id == _plantId){\n        tokenIdToLevel = c;\n      }\n    }\n    require(ownerOf(_toolId) == msg.sender, \"Tool does not belong to sender\");\n    require(ownerOf(_plantId) == msg.sender, \"Plant does not belong to sender\");\n    Plant storage plant = plants[tokenIdToLevel];\n    // require(lip.ableToLevel < 3, \"Max ableToLevel reached\");\n\n    // Tool memory tool = tools[tokenIdToUse];\n    // require(keccak256(bytes(tool.typeOfTool)) == keccak256(bytes(\"scissor\")), \"Tool must be of type 'scissor'\");\n\n    if(plant.rarity<=20){\n      require(plant.ableToLevel == 10, \"Plant is not ready to level up yet\");\n    }\n    if(plant.rarity>20 && plant.rarity<=40){\n      require(plant.ableToLevel < 8, \"Max ableToLevel reached\");\n    }\n    if(plant.rarity>40 && plant.rarity<=60){\n      require(plant.ableToLevel < 6, \"Max ableToLevel reached\");\n    }\n    if(plant.rarity>60 && plant.rarity<=80){\n      require(plant.ableToLevel < 4, \"Max ableToLevel reached\");\n    }\n    if(plant.rarity>80 && plant.rarity<=100){\n      require(plant.ableToLevel < 3, \"Max ableToLevel reached\");\n    }\n    AlreadyUsed++;\n    plant.ableToLevel++;\n    _burn(_toolId);\n    \n  }\n\n\n \n\n\n  // Getters\n  function getPlants() public view returns (Plant[] memory) {\n    return plants;\n  }\n\n  function getTools() public view returns (Tool[] memory) {\n    return tools;\n  }\n\n  function getOwnerPlants(address _owner) public view returns (Plant[] memory) {\n    Plant[] memory result = new Plant[](plants.length);\n    uint256 counter = 0;\n    for (uint256 i = 0; i < plants.length; i++) {\n      if (ownerOf(i) == _owner) {\n        result[counter] = plants[i];\n        counter++;\n      }\n    }\n    return result;\n  }\n\n  function getOwnerTools(address _owner) public view returns (Tool[] memory) {\n    Tool[] memory resultTool = new Tool[](tools.length-AlreadyUsed);\n    uint256 counterT = 0;\n    for (uint256 i = 0; i < tools.length; i++) {\n      if(!_exists(tools[i].id)){\n        continue;\n      }\n      if (ownerOf(tools[i].id) == _owner) {\n        resultTool[counterT] = tools[i];\n        counterT++;\n      }\n    }\n    return resultTool;\n  }\n\n \n\n\n  // Actions\n  function levelUp(uint256 _plantId) public {\n    require(ownerOf(_plantId) == msg.sender);\n    Plant storage plant = plants[_plantId];\n    if(plant.rarity<=20){\n      require(plant.ableToLevel == 10, \"plant is not ready to level up yet\");\n     \n    }\n    if(plant.rarity>20 && plant.rarity<=40){\n      require(plant.ableToLevel == 8, \"plant is not ready to level up yet\");\n     \n    }\n    if(plant.rarity>40 && plant.rarity<=60){\n      require(plant.ableToLevel == 6, \"plant is not ready to level up yet\");\n      \n    }\n    if(plant.rarity>60 && plant.rarity<=80){\n      require(plant.ableToLevel == 4, \"plant is not ready to level up yet\");\n      \n    }\n    if(plant.rarity>80 && plant.rarity<=100){\n      require(plant.ableToLevel == 3, \"plant is not ready to level up yet\");\n      \n    }\n    plant.level++;\n    plant.ableToLevel = 0;\n  }\n}",
  "sourcePath": "E:\\FYP\\TreesTogether React\\nft_game\\contracts\\PlantNFT.sol",
  "compiler": {
    "name": "solc",
    "version": "0.8.17+commit.8df45f5f.Emscripten.clang"
  },
  "schemaVersion": "3.4.10",
  "updatedAt": "2023-04-04T19:36:17.842Z",
  "networkType": "ethereum",
  "devdoc": {
    "kind": "dev",
    "methods": {
      "approve(address,uint256)": {
        "details": "See {IERC721-approve}."
      },
      "balanceOf(address)": {
        "details": "See {IERC721-balanceOf}."
      },
      "getApproved(uint256)": {
        "details": "See {IERC721-getApproved}."
      },
      "isApprovedForAll(address,address)": {
        "details": "See {IERC721-isApprovedForAll}."
      },
      "name()": {
        "details": "See {IERC721Metadata-name}."
      },
      "owner()": {
        "details": "Returns the address of the current owner."
      },
      "ownerOf(uint256)": {
        "details": "See {IERC721-ownerOf}."
      },
      "renounceOwnership()": {
        "details": "Leaves the contract without owner. It will not be possible to call `onlyOwner` functions anymore. Can only be called by the current owner. NOTE: Renouncing ownership will leave the contract without an owner, thereby removing any functionality that is only available to the owner."
      },
      "safeTransferFrom(address,address,uint256)": {
        "details": "See {IERC721-safeTransferFrom}."
      },
      "safeTransferFrom(address,address,uint256,bytes)": {
        "details": "See {IERC721-safeTransferFrom}."
      },
      "setApprovalForAll(address,bool)": {
        "details": "See {IERC721-setApprovalForAll}."
      },
      "supportsInterface(bytes4)": {
        "details": "See {IERC165-supportsInterface}."
      },
      "symbol()": {
        "details": "See {IERC721Metadata-symbol}."
      },
      "tokenURI(uint256)": {
        "details": "See {IERC721Metadata-tokenURI}."
      },
      "transferFrom(address,address,uint256)": {
        "details": "See {IERC721-transferFrom}."
      },
      "transferOwnership(address)": {
        "details": "Transfers ownership of the contract to a new account (`newOwner`). Can only be called by the current owner."
      }
    },
    "version": 1
  },
  "userdoc": {
    "kind": "user",
    "methods": {},
    "version": 1
  }
}