{
  "contractName": "Reward",
  "abi": [
    {
      "inputs": [
        {
          "internalType": "address",
          "name": "_lipTokenAddress",
          "type": "address"
        }
      ],
      "stateMutability": "nonpayable",
      "type": "constructor"
    },
    {
      "anonymous": false,
      "inputs": [
        {
          "indexed": true,
          "internalType": "address",
          "name": "owner",
          "type": "address"
        },
        {
          "indexed": true,
          "internalType": "address",
          "name": "spender",
          "type": "address"
        },
        {
          "indexed": false,
          "internalType": "uint256",
          "name": "value",
          "type": "uint256"
        }
      ],
      "name": "Approval",
      "type": "event"
    },
    {
      "anonymous": false,
      "inputs": [
        {
          "indexed": true,
          "internalType": "address",
          "name": "from",
          "type": "address"
        },
        {
          "indexed": true,
          "internalType": "address",
          "name": "to",
          "type": "address"
        },
        {
          "indexed": false,
          "internalType": "uint256",
          "name": "value",
          "type": "uint256"
        }
      ],
      "name": "Transfer",
      "type": "event"
    },
    {
      "inputs": [
        {
          "internalType": "address",
          "name": "owner",
          "type": "address"
        },
        {
          "internalType": "address",
          "name": "spender",
          "type": "address"
        }
      ],
      "name": "allowance",
      "outputs": [
        {
          "internalType": "uint256",
          "name": "",
          "type": "uint256"
        }
      ],
      "stateMutability": "view",
      "type": "function",
      "constant": true
    },
    {
      "inputs": [
        {
          "internalType": "address",
          "name": "spender",
          "type": "address"
        },
        {
          "internalType": "uint256",
          "name": "amount",
          "type": "uint256"
        }
      ],
      "name": "approve",
      "outputs": [
        {
          "internalType": "bool",
          "name": "",
          "type": "bool"
        }
      ],
      "stateMutability": "nonpayable",
      "type": "function"
    },
    {
      "inputs": [
        {
          "internalType": "address",
          "name": "account",
          "type": "address"
        }
      ],
      "name": "balanceOf",
      "outputs": [
        {
          "internalType": "uint256",
          "name": "",
          "type": "uint256"
        }
      ],
      "stateMutability": "view",
      "type": "function",
      "constant": true
    },
    {
      "inputs": [],
      "name": "decimals",
      "outputs": [
        {
          "internalType": "uint8",
          "name": "",
          "type": "uint8"
        }
      ],
      "stateMutability": "view",
      "type": "function",
      "constant": true
    },
    {
      "inputs": [
        {
          "internalType": "address",
          "name": "spender",
          "type": "address"
        },
        {
          "internalType": "uint256",
          "name": "subtractedValue",
          "type": "uint256"
        }
      ],
      "name": "decreaseAllowance",
      "outputs": [
        {
          "internalType": "bool",
          "name": "",
          "type": "bool"
        }
      ],
      "stateMutability": "nonpayable",
      "type": "function"
    },
    {
      "inputs": [
        {
          "internalType": "address",
          "name": "spender",
          "type": "address"
        },
        {
          "internalType": "uint256",
          "name": "addedValue",
          "type": "uint256"
        }
      ],
      "name": "increaseAllowance",
      "outputs": [
        {
          "internalType": "bool",
          "name": "",
          "type": "bool"
        }
      ],
      "stateMutability": "nonpayable",
      "type": "function"
    },
    {
      "inputs": [],
      "name": "lipToken",
      "outputs": [
        {
          "internalType": "contract LipToken",
          "name": "",
          "type": "address"
        }
      ],
      "stateMutability": "view",
      "type": "function",
      "constant": true
    },
    {
      "inputs": [],
      "name": "name",
      "outputs": [
        {
          "internalType": "string",
          "name": "",
          "type": "string"
        }
      ],
      "stateMutability": "view",
      "type": "function",
      "constant": true
    },
    {
      "inputs": [],
      "name": "symbol",
      "outputs": [
        {
          "internalType": "string",
          "name": "",
          "type": "string"
        }
      ],
      "stateMutability": "view",
      "type": "function",
      "constant": true
    },
    {
      "inputs": [],
      "name": "totalSupply",
      "outputs": [
        {
          "internalType": "uint256",
          "name": "",
          "type": "uint256"
        }
      ],
      "stateMutability": "view",
      "type": "function",
      "constant": true
    },
    {
      "inputs": [
        {
          "internalType": "address",
          "name": "to",
          "type": "address"
        },
        {
          "internalType": "uint256",
          "name": "amount",
          "type": "uint256"
        }
      ],
      "name": "transfer",
      "outputs": [
        {
          "internalType": "bool",
          "name": "",
          "type": "bool"
        }
      ],
      "stateMutability": "nonpayable",
      "type": "function"
    },
    {
      "inputs": [
        {
          "internalType": "address",
          "name": "from",
          "type": "address"
        },
        {
          "internalType": "address",
          "name": "to",
          "type": "address"
        },
        {
          "internalType": "uint256",
          "name": "amount",
          "type": "uint256"
        }
      ],
      "name": "transferFrom",
      "outputs": [
        {
          "internalType": "bool",
          "name": "",
          "type": "bool"
        }
      ],
      "stateMutability": "nonpayable",
      "type": "function"
    },
    {
      "inputs": [
        {
          "internalType": "address",
          "name": "_owner",
          "type": "address"
        }
      ],
      "name": "getLips",
      "outputs": [
        {
          "components": [
            {
              "internalType": "string",
              "name": "name",
              "type": "string"
            },
            {
              "internalType": "uint256",
              "name": "id",
              "type": "uint256"
            },
            {
              "internalType": "uint256",
              "name": "dna",
              "type": "uint256"
            },
            {
              "internalType": "uint8",
              "name": "level",
              "type": "uint8"
            },
            {
              "internalType": "uint8",
              "name": "rarity",
              "type": "uint8"
            },
            {
              "internalType": "uint8",
              "name": "ableToLevel",
              "type": "uint8"
            }
          ],
          "internalType": "struct LipToken.Lip[]",
          "name": "",
          "type": "tuple[]"
        }
      ],
      "stateMutability": "view",
      "type": "function",
      "constant": true
    },
    {
      "inputs": [
        {
          "internalType": "address",
          "name": "_owner",
          "type": "address"
        },
        {
          "internalType": "uint256",
          "name": "_lipId",
          "type": "uint256"
        }
      ],
      "name": "getLevel",
      "outputs": [
        {
          "internalType": "uint256",
          "name": "",
          "type": "uint256"
        }
      ],
      "stateMutability": "view",
      "type": "function",
      "constant": true
    },
    {
      "inputs": [
        {
          "internalType": "address",
          "name": "_owner",
          "type": "address"
        },
        {
          "internalType": "uint256",
          "name": "_lipId",
          "type": "uint256"
        }
      ],
      "name": "getRarity",
      "outputs": [
        {
          "internalType": "uint256",
          "name": "",
          "type": "uint256"
        }
      ],
      "stateMutability": "view",
      "type": "function",
      "constant": true
    },
    {
      "inputs": [
        {
          "internalType": "address",
          "name": "_owner",
          "type": "address"
        },
        {
          "internalType": "uint256",
          "name": "_tokenId",
          "type": "uint256"
        }
      ],
      "name": "claimRewards",
      "outputs": [],
      "stateMutability": "nonpayable",
      "type": "function"
    },
    {
      "inputs": [
        {
          "internalType": "uint256",
          "name": "_rarity",
          "type": "uint256"
        },
        {
          "internalType": "uint256",
          "name": "_level",
          "type": "uint256"
        }
      ],
      "name": "calculateReward",
      "outputs": [
        {
          "internalType": "uint256",
          "name": "",
          "type": "uint256"
        }
      ],
      "stateMutability": "pure",
      "type": "function",
      "constant": true
    }
  ],
  "bytecode": "0x608060405230600660006101000a81548173ffffffffffffffffffffffffffffffffffffffff021916908373ffffffffffffffffffffffffffffffffffffffff1602179055503480156200005257600080fd5b50604051620028c9380380620028c983398181016040528101906200007891906200034e565b6040518060400160405280600381526020017f54535400000000000000000000000000000000000000000000000000000000008152506040518060400160405280600381526020017f54535400000000000000000000000000000000000000000000000000000000008152508160039081620000f59190620005fa565b508060049081620001079190620005fa565b5050506200012530683635c9adc5dea000006200016d60201b60201c565b80600560006101000a81548173ffffffffffffffffffffffffffffffffffffffff021916908373ffffffffffffffffffffffffffffffffffffffff16021790555050620007fc565b600073ffffffffffffffffffffffffffffffffffffffff168273ffffffffffffffffffffffffffffffffffffffff1603620001df576040517f08c379a0000000000000000000000000000000000000000000000000000000008152600401620001d69062000742565b60405180910390fd5b620001f360008383620002da60201b60201c565b806002600082825462000207919062000793565b92505081905550806000808473ffffffffffffffffffffffffffffffffffffffff1673ffffffffffffffffffffffffffffffffffffffff168152602001908152602001600020600082825401925050819055508173ffffffffffffffffffffffffffffffffffffffff16600073ffffffffffffffffffffffffffffffffffffffff167fddf252ad1be2c89b69c2b068fc378daa952ba7f163c4a11628f55a4df523b3ef83604051620002ba9190620007df565b60405180910390a3620002d660008383620002df60201b60201c565b5050565b505050565b505050565b600080fd5b600073ffffffffffffffffffffffffffffffffffffffff82169050919050565b60006200031682620002e9565b9050919050565b620003288162000309565b81146200033457600080fd5b50565b60008151905062000348816200031d565b92915050565b600060208284031215620003675762000366620002e4565b5b6000620003778482850162000337565b91505092915050565b600081519050919050565b7f4e487b7100000000000000000000000000000000000000000000000000000000600052604160045260246000fd5b7f4e487b7100000000000000000000000000000000000000000000000000000000600052602260045260246000fd5b600060028204905060018216806200040257607f821691505b602082108103620004185762000417620003ba565b5b50919050565b60008190508160005260206000209050919050565b60006020601f8301049050919050565b600082821b905092915050565b600060088302620004827fffffffffffffffffffffffffffffffffffffffffffffffffffffffffffffffff8262000443565b6200048e868362000443565b95508019841693508086168417925050509392505050565b6000819050919050565b6000819050919050565b6000620004db620004d5620004cf84620004a6565b620004b0565b620004a6565b9050919050565b6000819050919050565b620004f783620004ba565b6200050f6200050682620004e2565b84845462000450565b825550505050565b600090565b6200052662000517565b62000533818484620004ec565b505050565b5b818110156200055b576200054f6000826200051c565b60018101905062000539565b5050565b601f821115620005aa5762000574816200041e565b6200057f8462000433565b810160208510156200058f578190505b620005a76200059e8562000433565b83018262000538565b50505b505050565b600082821c905092915050565b6000620005cf60001984600802620005af565b1980831691505092915050565b6000620005ea8383620005bc565b9150826002028217905092915050565b620006058262000380565b67ffffffffffffffff8111156200062157620006206200038b565b5b6200062d8254620003e9565b6200063a8282856200055f565b600060209050601f8311600181146200067257600084156200065d578287015190505b620006698582620005dc565b865550620006d9565b601f19841662000682866200041e565b60005b82811015620006ac5784890151825560018201915060208501945060208101905062000685565b86831015620006cc5784890151620006c8601f891682620005bc565b8355505b6001600288020188555050505b505050505050565b600082825260208201905092915050565b7f45524332303a206d696e7420746f20746865207a65726f206164647265737300600082015250565b60006200072a601f83620006e1565b91506200073782620006f2565b602082019050919050565b600060208201905081810360008301526200075d816200071b565b9050919050565b7f4e487b7100000000000000000000000000000000000000000000000000000000600052601160045260246000fd5b6000620007a082620004a6565b9150620007ad83620004a6565b9250828201905080821115620007c857620007c762000764565b5b92915050565b620007d981620004a6565b82525050565b6000602082019050620007f66000830184620007ce565b92915050565b6120bd806200080c6000396000f3fe608060405234801561001057600080fd5b506004361061010b5760003560e01c806339509351116100a25780639a99b4f0116100715780639a99b4f0146102f6578063a457c2d714610312578063a9059cbb14610342578063b121f2ac14610372578063dd62ed3e146103a25761010b565b8063395093511461025a57806370a082311461028a578063849e06bd146102ba57806395d89b41146102d85761010b565b806323b872dd116100de57806323b872dd146101ac5780632473f6d0146101dc5780633069fa421461020c578063313ce5671461023c5761010b565b806306fdde0314610110578063095ea7b31461012e57806313ed08461461015e57806318160ddd1461018e575b600080fd5b6101186103d2565b6040516101259190611163565b60405180910390f35b6101486004803603810190610143919061122d565b610464565b6040516101559190611288565b60405180910390f35b610178600480360381019061017391906112a3565b610487565b60405161018591906112f2565b60405180910390f35b6101966104b5565b6040516101a391906112f2565b60405180910390f35b6101c660048036038101906101c1919061130d565b6104bf565b6040516101d39190611288565b60405180910390f35b6101f660048036038101906101f19190611360565b6104ee565b604051610203919061154d565b60405180910390f35b6102266004803603810190610221919061122d565b610598565b60405161023391906112f2565b60405180910390f35b610244610664565b604051610251919061157e565b60405180910390f35b610274600480360381019061026f919061122d565b61066d565b6040516102819190611288565b60405180910390f35b6102a4600480360381019061029f9190611360565b6106a4565b6040516102b191906112f2565b60405180910390f35b6102c26106ec565b6040516102cf91906115f8565b60405180910390f35b6102e0610712565b6040516102ed9190611163565b60405180910390f35b610310600480360381019061030b919061122d565b6107a4565b005b61032c6004803603810190610327919061122d565b610a09565b6040516103399190611288565b60405180910390f35b61035c6004803603810190610357919061122d565b610a80565b6040516103699190611288565b60405180910390f35b61038c6004803603810190610387919061122d565b610aa3565b60405161039991906112f2565b60405180910390f35b6103bc60048036038101906103b79190611613565b610b6f565b6040516103c991906112f2565b60405180910390f35b6060600380546103e190611682565b80601f016020809104026020016040519081016040528092919081815260200182805461040d90611682565b801561045a5780601f1061042f5761010080835404028352916020019161045a565b820191906000526020600020905b81548152906001019060200180831161043d57829003601f168201915b5050505050905090565b60008061046f610bf6565b905061047c818585610bfe565b600191505092915050565b600080670de0b6b3a7640000848461049f91906116e2565b6104a991906116e2565b90508091505092915050565b6000600254905090565b6000806104ca610bf6565b90506104d7858285610dc7565b6104e2858585610e53565b60019150509392505050565b6060600560009054906101000a900473ffffffffffffffffffffffffffffffffffffffff1673ffffffffffffffffffffffffffffffffffffffff16638c0b9c54836040518263ffffffff1660e01b815260040161054b9190611733565b600060405180830381865afa158015610568573d6000803e3d6000fd5b505050506040513d6000823e3d601f19601f820116820180604052508101906105919190611a61565b9050919050565b6000600560009054906101000a900473ffffffffffffffffffffffffffffffffffffffff1673ffffffffffffffffffffffffffffffffffffffff16638c0b9c54846040518263ffffffff1660e01b81526004016105f59190611733565b600060405180830381865afa158015610612573d6000803e3d6000fd5b505050506040513d6000823e3d601f19601f8201168201806040525081019061063b9190611a61565b828151811061064d5761064c611aaa565b5b60200260200101516080015160ff16905092915050565b60006012905090565b600080610678610bf6565b905061069981858561068a8589610b6f565b6106949190611ad9565b610bfe565b600191505092915050565b60008060008373ffffffffffffffffffffffffffffffffffffffff1673ffffffffffffffffffffffffffffffffffffffff168152602001908152602001600020549050919050565b600560009054906101000a900473ffffffffffffffffffffffffffffffffffffffff1681565b60606004805461072190611682565b80601f016020809104026020016040519081016040528092919081815260200182805461074d90611682565b801561079a5780601f1061076f5761010080835404028352916020019161079a565b820191906000526020600020905b81548152906001019060200180831161077d57829003601f168201915b5050505050905090565b3373ffffffffffffffffffffffffffffffffffffffff16600560009054906101000a900473ffffffffffffffffffffffffffffffffffffffff1673ffffffffffffffffffffffffffffffffffffffff16636352211e836040518263ffffffff1660e01b815260040161081691906112f2565b602060405180830381865afa158015610833573d6000803e3d6000fd5b505050506040513d601f19601f820116820180604052508101906108579190611b22565b73ffffffffffffffffffffffffffffffffffffffff16146108ad576040517f08c379a00000000000000000000000000000000000000000000000000000000081526004016108a490611b9b565b60405180910390fd5b600660009054906101000a900473ffffffffffffffffffffffffffffffffffffffff1673ffffffffffffffffffffffffffffffffffffffff1663095ea7b330683635c9adc5dea000006040518363ffffffff1660e01b8152600401610913929190611bf6565b6020604051808303816000875af1158015610932573d6000803e3d6000fd5b505050506040513d601f19601f820116820180604052508101906109569190611c4b565b5060006109638383610598565b905060006109718484610aa3565b9050600061097f8383610487565b90503073ffffffffffffffffffffffffffffffffffffffff166323b872dd3033846040518463ffffffff1660e01b81526004016109be93929190611c78565b6020604051808303816000875af11580156109dd573d6000803e3d6000fd5b505050506040513d601f19601f82011682018060405250810190610a019190611c4b565b505050505050565b600080610a14610bf6565b90506000610a228286610b6f565b905083811015610a67576040517f08c379a0000000000000000000000000000000000000000000000000000000008152600401610a5e90611d21565b60405180910390fd5b610a748286868403610bfe565b60019250505092915050565b600080610a8b610bf6565b9050610a98818585610e53565b600191505092915050565b6000600560009054906101000a900473ffffffffffffffffffffffffffffffffffffffff1673ffffffffffffffffffffffffffffffffffffffff16638c0b9c54846040518263ffffffff1660e01b8152600401610b009190611733565b600060405180830381865afa158015610b1d573d6000803e3d6000fd5b505050506040513d6000823e3d601f19601f82011682018060405250810190610b469190611a61565b8281518110610b5857610b57611aaa565b5b60200260200101516060015160ff16905092915050565b6000600160008473ffffffffffffffffffffffffffffffffffffffff1673ffffffffffffffffffffffffffffffffffffffff16815260200190815260200160002060008373ffffffffffffffffffffffffffffffffffffffff1673ffffffffffffffffffffffffffffffffffffffff16815260200190815260200160002054905092915050565b600033905090565b600073ffffffffffffffffffffffffffffffffffffffff168373ffffffffffffffffffffffffffffffffffffffff1603610c6d576040517f08c379a0000000000000000000000000000000000000000000000000000000008152600401610c6490611db3565b60405180910390fd5b600073ffffffffffffffffffffffffffffffffffffffff168273ffffffffffffffffffffffffffffffffffffffff1603610cdc576040517f08c379a0000000000000000000000000000000000000000000000000000000008152600401610cd390611e45565b60405180910390fd5b80600160008573ffffffffffffffffffffffffffffffffffffffff1673ffffffffffffffffffffffffffffffffffffffff16815260200190815260200160002060008473ffffffffffffffffffffffffffffffffffffffff1673ffffffffffffffffffffffffffffffffffffffff168152602001908152602001600020819055508173ffffffffffffffffffffffffffffffffffffffff168373ffffffffffffffffffffffffffffffffffffffff167f8c5be1e5ebec7d5bd14f71427d1e84f3dd0314c0f7b2291e5b200ac8c7c3b92583604051610dba91906112f2565b60405180910390a3505050565b6000610dd38484610b6f565b90507fffffffffffffffffffffffffffffffffffffffffffffffffffffffffffffffff8114610e4d5781811015610e3f576040517f08c379a0000000000000000000000000000000000000000000000000000000008152600401610e3690611eb1565b60405180910390fd5b610e4c8484848403610bfe565b5b50505050565b600073ffffffffffffffffffffffffffffffffffffffff168373ffffffffffffffffffffffffffffffffffffffff1603610ec2576040517f08c379a0000000000000000000000000000000000000000000000000000000008152600401610eb990611f43565b60405180910390fd5b600073ffffffffffffffffffffffffffffffffffffffff168273ffffffffffffffffffffffffffffffffffffffff1603610f31576040517f08c379a0000000000000000000000000000000000000000000000000000000008152600401610f2890611fd5565b60405180910390fd5b610f3c8383836110c9565b60008060008573ffffffffffffffffffffffffffffffffffffffff1673ffffffffffffffffffffffffffffffffffffffff16815260200190815260200160002054905081811015610fc2576040517f08c379a0000000000000000000000000000000000000000000000000000000008152600401610fb990612067565b60405180910390fd5b8181036000808673ffffffffffffffffffffffffffffffffffffffff1673ffffffffffffffffffffffffffffffffffffffff16815260200190815260200160002081905550816000808573ffffffffffffffffffffffffffffffffffffffff1673ffffffffffffffffffffffffffffffffffffffff168152602001908152602001600020600082825401925050819055508273ffffffffffffffffffffffffffffffffffffffff168473ffffffffffffffffffffffffffffffffffffffff167fddf252ad1be2c89b69c2b068fc378daa952ba7f163c4a11628f55a4df523b3ef846040516110b091906112f2565b60405180910390a36110c38484846110ce565b50505050565b505050565b505050565b600081519050919050565b600082825260208201905092915050565b60005b8381101561110d5780820151818401526020810190506110f2565b60008484015250505050565b6000601f19601f8301169050919050565b6000611135826110d3565b61113f81856110de565b935061114f8185602086016110ef565b61115881611119565b840191505092915050565b6000602082019050818103600083015261117d818461112a565b905092915050565b6000604051905090565b600080fd5b600080fd5b600073ffffffffffffffffffffffffffffffffffffffff82169050919050565b60006111c482611199565b9050919050565b6111d4816111b9565b81146111df57600080fd5b50565b6000813590506111f1816111cb565b92915050565b6000819050919050565b61120a816111f7565b811461121557600080fd5b50565b60008135905061122781611201565b92915050565b600080604083850312156112445761124361118f565b5b6000611252858286016111e2565b925050602061126385828601611218565b9150509250929050565b60008115159050919050565b6112828161126d565b82525050565b600060208201905061129d6000830184611279565b92915050565b600080604083850312156112ba576112b961118f565b5b60006112c885828601611218565b92505060206112d985828601611218565b9150509250929050565b6112ec816111f7565b82525050565b600060208201905061130760008301846112e3565b92915050565b6000806000606084860312156113265761132561118f565b5b6000611334868287016111e2565b9350506020611345868287016111e2565b925050604061135686828701611218565b9150509250925092565b6000602082840312156113765761137561118f565b5b6000611384848285016111e2565b91505092915050565b600081519050919050565b600082825260208201905092915050565b6000819050602082019050919050565b600082825260208201905092915050565b60006113d5826110d3565b6113df81856113b9565b93506113ef8185602086016110ef565b6113f881611119565b840191505092915050565b61140c816111f7565b82525050565b600060ff82169050919050565b61142881611412565b82525050565b600060c083016000830151848203600086015261144b82826113ca565b91505060208301516114606020860182611403565b5060408301516114736040860182611403565b506060830151611486606086018261141f565b506080830151611499608086018261141f565b5060a08301516114ac60a086018261141f565b508091505092915050565b60006114c3838361142e565b905092915050565b6000602082019050919050565b60006114e38261138d565b6114ed8185611398565b9350836020820285016114ff856113a9565b8060005b8581101561153b578484038952815161151c85826114b7565b9450611527836114cb565b925060208a01995050600181019050611503565b50829750879550505050505092915050565b6000602082019050818103600083015261156781846114d8565b905092915050565b61157881611412565b82525050565b6000602082019050611593600083018461156f565b92915050565b6000819050919050565b60006115be6115b96115b484611199565b611599565b611199565b9050919050565b60006115d0826115a3565b9050919050565b60006115e2826115c5565b9050919050565b6115f2816115d7565b82525050565b600060208201905061160d60008301846115e9565b92915050565b6000806040838503121561162a5761162961118f565b5b6000611638858286016111e2565b9250506020611649858286016111e2565b9150509250929050565b7f4e487b7100000000000000000000000000000000000000000000000000000000600052602260045260246000fd5b6000600282049050600182168061169a57607f821691505b6020821081036116ad576116ac611653565b5b50919050565b7f4e487b7100000000000000000000000000000000000000000000000000000000600052601160045260246000fd5b60006116ed826111f7565b91506116f8836111f7565b9250828202611706816111f7565b9150828204841483151761171d5761171c6116b3565b5b5092915050565b61172d816111b9565b82525050565b60006020820190506117486000830184611724565b92915050565b600080fd5b7f4e487b7100000000000000000000000000000000000000000000000000000000600052604160045260246000fd5b61178b82611119565b810181811067ffffffffffffffff821117156117aa576117a9611753565b5b80604052505050565b60006117bd611185565b90506117c98282611782565b919050565b600067ffffffffffffffff8211156117e9576117e8611753565b5b602082029050602081019050919050565b600080fd5b600080fd5b600080fd5b600080fd5b600067ffffffffffffffff82111561182957611828611753565b5b61183282611119565b9050602081019050919050565b600061185261184d8461180e565b6117b3565b90508281526020810184848401111561186e5761186d611809565b5b6118798482856110ef565b509392505050565b600082601f8301126118965761189561174e565b5b81516118a684826020860161183f565b91505092915050565b6000815190506118be81611201565b92915050565b6118cd81611412565b81146118d857600080fd5b50565b6000815190506118ea816118c4565b92915050565b600060c08284031215611906576119056117ff565b5b61191060c06117b3565b9050600082015167ffffffffffffffff8111156119305761192f611804565b5b61193c84828501611881565b6000830152506020611950848285016118af565b6020830152506040611964848285016118af565b6040830152506060611978848285016118db565b606083015250608061198c848285016118db565b60808301525060a06119a0848285016118db565b60a08301525092915050565b60006119bf6119ba846117ce565b6117b3565b905080838252602082019050602084028301858111156119e2576119e16117fa565b5b835b81811015611a2957805167ffffffffffffffff811115611a0757611a0661174e565b5b808601611a1489826118f0565b855260208501945050506020810190506119e4565b5050509392505050565b600082601f830112611a4857611a4761174e565b5b8151611a588482602086016119ac565b91505092915050565b600060208284031215611a7757611a7661118f565b5b600082015167ffffffffffffffff811115611a9557611a94611194565b5b611aa184828501611a33565b91505092915050565b7f4e487b7100000000000000000000000000000000000000000000000000000000600052603260045260246000fd5b6000611ae4826111f7565b9150611aef836111f7565b9250828201905080821115611b0757611b066116b3565b5b92915050565b600081519050611b1c816111cb565b92915050565b600060208284031215611b3857611b3761118f565b5b6000611b4684828501611b0d565b91505092915050565b7f4f6e6c79204e4654206f776e65722063616e20636c61696d2072657761726400600082015250565b6000611b85601f836110de565b9150611b9082611b4f565b602082019050919050565b60006020820190508181036000830152611bb481611b78565b9050919050565b6000819050919050565b6000611be0611bdb611bd684611bbb565b611599565b6111f7565b9050919050565b611bf081611bc5565b82525050565b6000604082019050611c0b6000830185611724565b611c186020830184611be7565b9392505050565b611c288161126d565b8114611c3357600080fd5b50565b600081519050611c4581611c1f565b92915050565b600060208284031215611c6157611c6061118f565b5b6000611c6f84828501611c36565b91505092915050565b6000606082019050611c8d6000830186611724565b611c9a6020830185611724565b611ca760408301846112e3565b949350505050565b7f45524332303a2064656372656173656420616c6c6f77616e63652062656c6f7760008201527f207a65726f000000000000000000000000000000000000000000000000000000602082015250565b6000611d0b6025836110de565b9150611d1682611caf565b604082019050919050565b60006020820190508181036000830152611d3a81611cfe565b9050919050565b7f45524332303a20617070726f76652066726f6d20746865207a65726f2061646460008201527f7265737300000000000000000000000000000000000000000000000000000000602082015250565b6000611d9d6024836110de565b9150611da882611d41565b604082019050919050565b60006020820190508181036000830152611dcc81611d90565b9050919050565b7f45524332303a20617070726f766520746f20746865207a65726f20616464726560008201527f7373000000000000000000000000000000000000000000000000000000000000602082015250565b6000611e2f6022836110de565b9150611e3a82611dd3565b604082019050919050565b60006020820190508181036000830152611e5e81611e22565b9050919050565b7f45524332303a20696e73756666696369656e7420616c6c6f77616e6365000000600082015250565b6000611e9b601d836110de565b9150611ea682611e65565b602082019050919050565b60006020820190508181036000830152611eca81611e8e565b9050919050565b7f45524332303a207472616e736665722066726f6d20746865207a65726f20616460008201527f6472657373000000000000000000000000000000000000000000000000000000602082015250565b6000611f2d6025836110de565b9150611f3882611ed1565b604082019050919050565b60006020820190508181036000830152611f5c81611f20565b9050919050565b7f45524332303a207472616e7366657220746f20746865207a65726f206164647260008201527f6573730000000000000000000000000000000000000000000000000000000000602082015250565b6000611fbf6023836110de565b9150611fca82611f63565b604082019050919050565b60006020820190508181036000830152611fee81611fb2565b9050919050565b7f45524332303a207472616e7366657220616d6f756e742065786365656473206260008201527f616c616e63650000000000000000000000000000000000000000000000000000602082015250565b60006120516026836110de565b915061205c82611ff5565b604082019050919050565b6000602082019050818103600083015261208081612044565b905091905056fea2646970667358221220dafd7320eca8568d2df55e274f291696d52980e90b14c34d082bb6c53a4dc13a64736f6c63430008110033",
  "immutableReferences": {},
  "source": "// SPDX-License-Identifier: MIT\r\n\r\npragma solidity ^0.8.0;\r\n\r\nimport \"@openzeppelin/contracts/token/ERC20/IERC20.sol\";\r\nimport \"@openzeppelin/contracts/token/ERC20/ERC20.sol\";\r\nimport \"./LipToken.sol\";\r\n\r\ncontract Reward is ERC20{\r\n    LipToken public lipToken;\r\n    IERC20 erc20Token = IERC20(address(this));\r\n    \r\n\r\n    constructor(address _lipTokenAddress) ERC20(\"TST\", \"TST\"){\r\n        _mint(address(this), 1000 ether);\r\n        lipToken = LipToken(_lipTokenAddress);\r\n        \r\n    }\r\n\r\n    function getLips(address _owner) public view returns (LipToken.Lip[] memory) {\r\n        return lipToken.getOwnerLips(_owner);\r\n    }\r\n\r\n    function getLevel(address _owner, uint256 _lipId) public view returns(uint256){\r\n\r\n        return lipToken.getOwnerLips(_owner)[_lipId].level;\r\n    }\r\n\r\n    function getRarity(address _owner, uint256 _lipId) public view returns(uint256){\r\n        \r\n        return lipToken.getOwnerLips(_owner)[_lipId].rarity;\r\n    }\r\n    \r\n\r\n    function claimRewards(address _owner, uint256 _tokenId) external {\r\n        require(lipToken.ownerOf(_tokenId) == msg.sender, \"Only NFT owner can claim reward\");\r\n        erc20Token.approve(address(this), 1000 ether);\r\n        uint256 _rarity = getRarity(_owner, _tokenId);\r\n        uint256 _level = getLevel(_owner, _tokenId);\r\n        uint256 reward = calculateReward(_rarity, _level);\r\n        // require(totalReward > 0, \"No rewards available\");\r\n        \r\n        this.transferFrom(address(this),msg.sender, reward);\r\n        // this.transfer(msg.sender, _amount);\r\n    }\r\n\r\n    \r\n\r\n    function calculateReward(uint256 _rarity, uint256 _level) public pure returns (uint256) {\r\n        uint256 reward = _level *_rarity * 1000000000000000000 ;\r\n        return reward;\r\n}\r\n}\r\n",
  "sourcePath": "E:\\FYP\\TreesTogether React\\nft_game\\contracts\\Reward.sol",
  "compiler": {
    "name": "solc",
    "version": "0.8.17+commit.8df45f5f.Emscripten.clang"
  },
  "schemaVersion": "3.4.10",
  "updatedAt": "2023-03-09T16:41:42.226Z",
  "networkType": "ethereum",
  "devdoc": {
    "kind": "dev",
    "methods": {
      "allowance(address,address)": {
        "details": "See {IERC20-allowance}."
      },
      "approve(address,uint256)": {
        "details": "See {IERC20-approve}. NOTE: If `amount` is the maximum `uint256`, the allowance is not updated on `transferFrom`. This is semantically equivalent to an infinite approval. Requirements: - `spender` cannot be the zero address."
      },
      "balanceOf(address)": {
        "details": "See {IERC20-balanceOf}."
      },
      "decimals()": {
        "details": "Returns the number of decimals used to get its user representation. For example, if `decimals` equals `2`, a balance of `505` tokens should be displayed to a user as `5.05` (`505 / 10 ** 2`). Tokens usually opt for a value of 18, imitating the relationship between Ether and Wei. This is the value {ERC20} uses, unless this function is overridden; NOTE: This information is only used for _display_ purposes: it in no way affects any of the arithmetic of the contract, including {IERC20-balanceOf} and {IERC20-transfer}."
      },
      "decreaseAllowance(address,uint256)": {
        "details": "Atomically decreases the allowance granted to `spender` by the caller. This is an alternative to {approve} that can be used as a mitigation for problems described in {IERC20-approve}. Emits an {Approval} event indicating the updated allowance. Requirements: - `spender` cannot be the zero address. - `spender` must have allowance for the caller of at least `subtractedValue`."
      },
      "increaseAllowance(address,uint256)": {
        "details": "Atomically increases the allowance granted to `spender` by the caller. This is an alternative to {approve} that can be used as a mitigation for problems described in {IERC20-approve}. Emits an {Approval} event indicating the updated allowance. Requirements: - `spender` cannot be the zero address."
      },
      "name()": {
        "details": "Returns the name of the token."
      },
      "symbol()": {
        "details": "Returns the symbol of the token, usually a shorter version of the name."
      },
      "totalSupply()": {
        "details": "See {IERC20-totalSupply}."
      },
      "transfer(address,uint256)": {
        "details": "See {IERC20-transfer}. Requirements: - `to` cannot be the zero address. - the caller must have a balance of at least `amount`."
      },
      "transferFrom(address,address,uint256)": {
        "details": "See {IERC20-transferFrom}. Emits an {Approval} event indicating the updated allowance. This is not required by the EIP. See the note at the beginning of {ERC20}. NOTE: Does not update the allowance if the current allowance is the maximum `uint256`. Requirements: - `from` and `to` cannot be the zero address. - `from` must have a balance of at least `amount`. - the caller must have allowance for ``from``'s tokens of at least `amount`."
      }
    },
    "version": 1
  },
  "userdoc": {
    "kind": "user",
    "methods": {},
    "version": 1
  }
}