{
  "contractName": "Reward",
  "abi": [
    {
      "inputs": [
        {
          "internalType": "address",
          "name": "_PlantNFTAddress",
          "type": "address"
        }
      ],
      "stateMutability": "nonpayable",
      "type": "constructor"
    },
    {
      "anonymous": false,
      "inputs": [
        {
          "indexed": true,
          "internalType": "address",
          "name": "owner",
          "type": "address"
        },
        {
          "indexed": true,
          "internalType": "address",
          "name": "spender",
          "type": "address"
        },
        {
          "indexed": false,
          "internalType": "uint256",
          "name": "value",
          "type": "uint256"
        }
      ],
      "name": "Approval",
      "type": "event"
    },
    {
      "anonymous": false,
      "inputs": [
        {
          "indexed": true,
          "internalType": "address",
          "name": "from",
          "type": "address"
        },
        {
          "indexed": true,
          "internalType": "address",
          "name": "to",
          "type": "address"
        },
        {
          "indexed": false,
          "internalType": "uint256",
          "name": "value",
          "type": "uint256"
        }
      ],
      "name": "Transfer",
      "type": "event"
    },
    {
      "inputs": [],
      "name": "CLAIM_COOLDOWN",
      "outputs": [
        {
          "internalType": "uint256",
          "name": "",
          "type": "uint256"
        }
      ],
      "stateMutability": "view",
      "type": "function",
      "constant": true
    },
    {
      "inputs": [
        {
          "internalType": "address",
          "name": "owner",
          "type": "address"
        },
        {
          "internalType": "address",
          "name": "spender",
          "type": "address"
        }
      ],
      "name": "allowance",
      "outputs": [
        {
          "internalType": "uint256",
          "name": "",
          "type": "uint256"
        }
      ],
      "stateMutability": "view",
      "type": "function",
      "constant": true
    },
    {
      "inputs": [
        {
          "internalType": "address",
          "name": "spender",
          "type": "address"
        },
        {
          "internalType": "uint256",
          "name": "amount",
          "type": "uint256"
        }
      ],
      "name": "approve",
      "outputs": [
        {
          "internalType": "bool",
          "name": "",
          "type": "bool"
        }
      ],
      "stateMutability": "nonpayable",
      "type": "function"
    },
    {
      "inputs": [
        {
          "internalType": "address",
          "name": "account",
          "type": "address"
        }
      ],
      "name": "balanceOf",
      "outputs": [
        {
          "internalType": "uint256",
          "name": "",
          "type": "uint256"
        }
      ],
      "stateMutability": "view",
      "type": "function",
      "constant": true
    },
    {
      "inputs": [],
      "name": "decimals",
      "outputs": [
        {
          "internalType": "uint8",
          "name": "",
          "type": "uint8"
        }
      ],
      "stateMutability": "view",
      "type": "function",
      "constant": true
    },
    {
      "inputs": [
        {
          "internalType": "address",
          "name": "spender",
          "type": "address"
        },
        {
          "internalType": "uint256",
          "name": "subtractedValue",
          "type": "uint256"
        }
      ],
      "name": "decreaseAllowance",
      "outputs": [
        {
          "internalType": "bool",
          "name": "",
          "type": "bool"
        }
      ],
      "stateMutability": "nonpayable",
      "type": "function"
    },
    {
      "inputs": [
        {
          "internalType": "address",
          "name": "spender",
          "type": "address"
        },
        {
          "internalType": "uint256",
          "name": "addedValue",
          "type": "uint256"
        }
      ],
      "name": "increaseAllowance",
      "outputs": [
        {
          "internalType": "bool",
          "name": "",
          "type": "bool"
        }
      ],
      "stateMutability": "nonpayable",
      "type": "function"
    },
    {
      "inputs": [
        {
          "internalType": "address",
          "name": "",
          "type": "address"
        },
        {
          "internalType": "uint256",
          "name": "",
          "type": "uint256"
        }
      ],
      "name": "lastClaimTime",
      "outputs": [
        {
          "internalType": "uint256",
          "name": "",
          "type": "uint256"
        }
      ],
      "stateMutability": "view",
      "type": "function",
      "constant": true
    },
    {
      "inputs": [],
      "name": "name",
      "outputs": [
        {
          "internalType": "string",
          "name": "",
          "type": "string"
        }
      ],
      "stateMutability": "view",
      "type": "function",
      "constant": true
    },
    {
      "inputs": [],
      "name": "plantNFT",
      "outputs": [
        {
          "internalType": "contract PlantNFT",
          "name": "",
          "type": "address"
        }
      ],
      "stateMutability": "view",
      "type": "function",
      "constant": true
    },
    {
      "inputs": [],
      "name": "symbol",
      "outputs": [
        {
          "internalType": "string",
          "name": "",
          "type": "string"
        }
      ],
      "stateMutability": "view",
      "type": "function",
      "constant": true
    },
    {
      "inputs": [],
      "name": "totalSupply",
      "outputs": [
        {
          "internalType": "uint256",
          "name": "",
          "type": "uint256"
        }
      ],
      "stateMutability": "view",
      "type": "function",
      "constant": true
    },
    {
      "inputs": [
        {
          "internalType": "address",
          "name": "to",
          "type": "address"
        },
        {
          "internalType": "uint256",
          "name": "amount",
          "type": "uint256"
        }
      ],
      "name": "transfer",
      "outputs": [
        {
          "internalType": "bool",
          "name": "",
          "type": "bool"
        }
      ],
      "stateMutability": "nonpayable",
      "type": "function"
    },
    {
      "inputs": [
        {
          "internalType": "address",
          "name": "from",
          "type": "address"
        },
        {
          "internalType": "address",
          "name": "to",
          "type": "address"
        },
        {
          "internalType": "uint256",
          "name": "amount",
          "type": "uint256"
        }
      ],
      "name": "transferFrom",
      "outputs": [
        {
          "internalType": "bool",
          "name": "",
          "type": "bool"
        }
      ],
      "stateMutability": "nonpayable",
      "type": "function"
    },
    {
      "inputs": [
        {
          "internalType": "address",
          "name": "_owner",
          "type": "address"
        }
      ],
      "name": "getPlants",
      "outputs": [
        {
          "components": [
            {
              "internalType": "string",
              "name": "name",
              "type": "string"
            },
            {
              "internalType": "uint256",
              "name": "id",
              "type": "uint256"
            },
            {
              "internalType": "uint256",
              "name": "dna",
              "type": "uint256"
            },
            {
              "internalType": "uint8",
              "name": "level",
              "type": "uint8"
            },
            {
              "internalType": "uint8",
              "name": "rarity",
              "type": "uint8"
            },
            {
              "internalType": "uint8",
              "name": "ableToLevel",
              "type": "uint8"
            }
          ],
          "internalType": "struct PlantNFT.Plant[]",
          "name": "",
          "type": "tuple[]"
        }
      ],
      "stateMutability": "view",
      "type": "function",
      "constant": true
    },
    {
      "inputs": [
        {
          "internalType": "address",
          "name": "_owner",
          "type": "address"
        },
        {
          "internalType": "uint256",
          "name": "_plantId",
          "type": "uint256"
        }
      ],
      "name": "getLevel",
      "outputs": [
        {
          "internalType": "uint256",
          "name": "",
          "type": "uint256"
        }
      ],
      "stateMutability": "view",
      "type": "function",
      "constant": true
    },
    {
      "inputs": [
        {
          "internalType": "address",
          "name": "_owner",
          "type": "address"
        },
        {
          "internalType": "uint256",
          "name": "_plantId",
          "type": "uint256"
        }
      ],
      "name": "getRarity",
      "outputs": [
        {
          "internalType": "uint256",
          "name": "",
          "type": "uint256"
        }
      ],
      "stateMutability": "view",
      "type": "function",
      "constant": true
    },
    {
      "inputs": [
        {
          "internalType": "address",
          "name": "_owner",
          "type": "address"
        },
        {
          "internalType": "uint256",
          "name": "_tokenId",
          "type": "uint256"
        }
      ],
      "name": "claimRewards",
      "outputs": [],
      "stateMutability": "nonpayable",
      "type": "function"
    },
    {
      "inputs": [
        {
          "internalType": "uint256",
          "name": "_rarity",
          "type": "uint256"
        },
        {
          "internalType": "uint256",
          "name": "_level",
          "type": "uint256"
        }
      ],
      "name": "calculateReward",
      "outputs": [
        {
          "internalType": "uint256",
          "name": "",
          "type": "uint256"
        }
      ],
      "stateMutability": "pure",
      "type": "function",
      "constant": true
    },
    {
      "inputs": [
        {
          "internalType": "address",
          "name": "_owner",
          "type": "address"
        },
        {
          "internalType": "uint256",
          "name": "_tokenId",
          "type": "uint256"
        }
      ],
      "name": "howLongCanClaim",
      "outputs": [
        {
          "internalType": "uint256",
          "name": "",
          "type": "uint256"
        }
      ],
      "stateMutability": "view",
      "type": "function",
      "constant": true
    },
    {
      "inputs": [
        {
          "internalType": "address",
          "name": "_owner",
          "type": "address"
        }
      ],
      "name": "ReturnBalance",
      "outputs": [
        {
          "internalType": "uint256",
          "name": "",
          "type": "uint256"
        }
      ],
      "stateMutability": "view",
      "type": "function",
      "constant": true
    }
  ],
  "bytecode": "0x608060405230600660006101000a81548173ffffffffffffffffffffffffffffffffffffffff021916908373ffffffffffffffffffffffffffffffffffffffff1602179055503480156200005257600080fd5b5060405162002bd138038062002bd183398181016040528101906200007891906200034e565b6040518060400160405280600381526020017f54535400000000000000000000000000000000000000000000000000000000008152506040518060400160405280600381526020017f54535400000000000000000000000000000000000000000000000000000000008152508160039081620000f59190620005fa565b508060049081620001079190620005fa565b5050506200012530683635c9adc5dea000006200016d60201b60201c565b80600560006101000a81548173ffffffffffffffffffffffffffffffffffffffff021916908373ffffffffffffffffffffffffffffffffffffffff16021790555050620007fc565b600073ffffffffffffffffffffffffffffffffffffffff168273ffffffffffffffffffffffffffffffffffffffff1603620001df576040517f08c379a0000000000000000000000000000000000000000000000000000000008152600401620001d69062000742565b60405180910390fd5b620001f360008383620002da60201b60201c565b806002600082825462000207919062000793565b92505081905550806000808473ffffffffffffffffffffffffffffffffffffffff1673ffffffffffffffffffffffffffffffffffffffff168152602001908152602001600020600082825401925050819055508173ffffffffffffffffffffffffffffffffffffffff16600073ffffffffffffffffffffffffffffffffffffffff167fddf252ad1be2c89b69c2b068fc378daa952ba7f163c4a11628f55a4df523b3ef83604051620002ba9190620007df565b60405180910390a3620002d660008383620002df60201b60201c565b5050565b505050565b505050565b600080fd5b600073ffffffffffffffffffffffffffffffffffffffff82169050919050565b60006200031682620002e9565b9050919050565b620003288162000309565b81146200033457600080fd5b50565b60008151905062000348816200031d565b92915050565b600060208284031215620003675762000366620002e4565b5b6000620003778482850162000337565b91505092915050565b600081519050919050565b7f4e487b7100000000000000000000000000000000000000000000000000000000600052604160045260246000fd5b7f4e487b7100000000000000000000000000000000000000000000000000000000600052602260045260246000fd5b600060028204905060018216806200040257607f821691505b602082108103620004185762000417620003ba565b5b50919050565b60008190508160005260206000209050919050565b60006020601f8301049050919050565b600082821b905092915050565b600060088302620004827fffffffffffffffffffffffffffffffffffffffffffffffffffffffffffffffff8262000443565b6200048e868362000443565b95508019841693508086168417925050509392505050565b6000819050919050565b6000819050919050565b6000620004db620004d5620004cf84620004a6565b620004b0565b620004a6565b9050919050565b6000819050919050565b620004f783620004ba565b6200050f6200050682620004e2565b84845462000450565b825550505050565b600090565b6200052662000517565b62000533818484620004ec565b505050565b5b818110156200055b576200054f6000826200051c565b60018101905062000539565b5050565b601f821115620005aa5762000574816200041e565b6200057f8462000433565b810160208510156200058f578190505b620005a76200059e8562000433565b83018262000538565b50505b505050565b600082821c905092915050565b6000620005cf60001984600802620005af565b1980831691505092915050565b6000620005ea8383620005bc565b9150826002028217905092915050565b620006058262000380565b67ffffffffffffffff8111156200062157620006206200038b565b5b6200062d8254620003e9565b6200063a8282856200055f565b600060209050601f8311600181146200067257600084156200065d578287015190505b620006698582620005dc565b865550620006d9565b601f19841662000682866200041e565b60005b82811015620006ac5784890151825560018201915060208501945060208101905062000685565b86831015620006cc5784890151620006c8601f891682620005bc565b8355505b6001600288020188555050505b505050505050565b600082825260208201905092915050565b7f45524332303a206d696e7420746f20746865207a65726f206164647265737300600082015250565b60006200072a601f83620006e1565b91506200073782620006f2565b602082019050919050565b600060208201905081810360008301526200075d816200071b565b9050919050565b7f4e487b7100000000000000000000000000000000000000000000000000000000600052601160045260246000fd5b6000620007a082620004a6565b9150620007ad83620004a6565b9250828201905080821115620007c857620007c762000764565b5b92915050565b620007d981620004a6565b82525050565b6000602082019050620007f66000830184620007ce565b92915050565b6123c5806200080c6000396000f3fe608060405234801561001057600080fd5b50600436106101375760003560e01c806339509351116100b8578063a457c2d71161007c578063a457c2d71461039e578063a9059cbb146103ce578063abf084a3146103fe578063b121f2ac1461041c578063b58b493a1461044c578063dd62ed3e1461047c57610137565b806339509351146102d45780633f59fb5c1461030457806370a082311461033457806395d89b41146103645780639a99b4f01461038257610137565b806318160ddd116100ff57806318160ddd1461021a57806323b872dd146102385780633069fa4214610268578063313ce5671461029857806337c909ec146102b657610137565b806306fdde031461013c578063095ea7b31461015a5780630b9acfd81461018a57806311c8c910146101ba57806313ed0846146101ea575b600080fd5b6101446104ac565b60405161015191906113cb565b60405180910390f35b610174600480360381019061016f9190611495565b61053e565b60405161018191906114f0565b60405180910390f35b6101a4600480360381019061019f9190611495565b610561565b6040516101b1919061151a565b60405180910390f35b6101d460048036038101906101cf9190611495565b6105cc565b6040516101e1919061151a565b60405180910390f35b61020460048036038101906101ff9190611535565b6105f1565b604051610211919061151a565b60405180910390f35b61022261060c565b60405161022f919061151a565b60405180910390f35b610252600480360381019061024d9190611575565b610616565b60405161025f91906114f0565b60405180910390f35b610282600480360381019061027d9190611495565b610645565b60405161028f919061151a565b60405180910390f35b6102a0610711565b6040516102ad91906115e4565b60405180910390f35b6102be61071a565b6040516102cb919061151a565b60405180910390f35b6102ee60048036038101906102e99190611495565b61071f565b6040516102fb91906114f0565b60405180910390f35b61031e600480360381019061031991906115ff565b610756565b60405161032b919061151a565b60405180910390f35b61034e600480360381019061034991906115ff565b610768565b60405161035b919061151a565b60405180910390f35b61036c6107b0565b60405161037991906113cb565b60405180910390f35b61039c60048036038101906103979190611495565b610842565b005b6103b860048036038101906103b39190611495565b610ba1565b6040516103c591906114f0565b60405180910390f35b6103e860048036038101906103e39190611495565b610c18565b6040516103f591906114f0565b60405180910390f35b610406610c3b565b604051610413919061168b565b60405180910390f35b61043660048036038101906104319190611495565b610c61565b604051610443919061151a565b60405180910390f35b610466600480360381019061046191906115ff565b610d2d565b6040516104739190611859565b60405180910390f35b6104966004803603810190610491919061187b565b610dd7565b6040516104a3919061151a565b60405180910390f35b6060600380546104bb906118ea565b80601f01602080910402602001604051908101604052809291908181526020018280546104e7906118ea565b80156105345780601f1061050957610100808354040283529160200191610534565b820191906000526020600020905b81548152906001019060200180831161051757829003601f168201915b5050505050905090565b600080610549610e5e565b9050610556818585610e66565b600191505092915050565b600080600760008573ffffffffffffffffffffffffffffffffffffffff1673ffffffffffffffffffffffffffffffffffffffff168152602001908152602001600020600084815260200190815260200160002054905080426105c3919061194a565b91505092915050565b6007602052816000526040600020602052806000526040600020600091509150505481565b6000808383610600919061197e565b90508091505092915050565b6000600254905090565b600080610621610e5e565b905061062e85828561102f565b6106398585856110bb565b60019150509392505050565b6000600560009054906101000a900473ffffffffffffffffffffffffffffffffffffffff1673ffffffffffffffffffffffffffffffffffffffff1663036fc598846040518263ffffffff1660e01b81526004016106a291906119cf565b600060405180830381865afa1580156106bf573d6000803e3d6000fd5b505050506040513d6000823e3d601f19601f820116820180604052508101906106e89190611cfd565b82815181106106fa576106f9611d46565b5b60200260200101516080015160ff16905092915050565b60006012905090565b601e81565b60008061072a610e5e565b905061074b81858561073c8589610dd7565b6107469190611d75565b610e66565b600191505092915050565b600061076182610768565b9050919050565b60008060008373ffffffffffffffffffffffffffffffffffffffff1673ffffffffffffffffffffffffffffffffffffffff168152602001908152602001600020549050919050565b6060600480546107bf906118ea565b80601f01602080910402602001604051908101604052809291908181526020018280546107eb906118ea565b80156108385780601f1061080d57610100808354040283529160200191610838565b820191906000526020600020905b81548152906001019060200180831161081b57829003601f168201915b5050505050905090565b3373ffffffffffffffffffffffffffffffffffffffff16600560009054906101000a900473ffffffffffffffffffffffffffffffffffffffff1673ffffffffffffffffffffffffffffffffffffffff16636352211e836040518263ffffffff1660e01b81526004016108b4919061151a565b602060405180830381865afa1580156108d1573d6000803e3d6000fd5b505050506040513d601f19601f820116820180604052508101906108f59190611dbe565b73ffffffffffffffffffffffffffffffffffffffff161461094b576040517f08c379a000000000000000000000000000000000000000000000000000000000815260040161094290611e37565b60405180910390fd5b6000600760003373ffffffffffffffffffffffffffffffffffffffff1673ffffffffffffffffffffffffffffffffffffffff1681526020019081526020016000206000838152602001908152602001600020549050601e81426109ae919061194a565b10156109ef576040517f08c379a00000000000000000000000000000000000000000000000000000000081526004016109e690611ea3565b60405180910390fd5b600660009054906101000a900473ffffffffffffffffffffffffffffffffffffffff1673ffffffffffffffffffffffffffffffffffffffff1663095ea7b330683635c9adc5dea000006040518363ffffffff1660e01b8152600401610a55929190611efe565b6020604051808303816000875af1158015610a74573d6000803e3d6000fd5b505050506040513d601f19601f82011682018060405250810190610a989190611f53565b506000610aa58484610645565b90506000610ab38585610c61565b90506000610ac183836105f1565b905042600760003373ffffffffffffffffffffffffffffffffffffffff1673ffffffffffffffffffffffffffffffffffffffff1681526020019081526020016000206000878152602001908152602001600020819055503073ffffffffffffffffffffffffffffffffffffffff166323b872dd3033846040518463ffffffff1660e01b8152600401610b5593929190611f80565b6020604051808303816000875af1158015610b74573d6000803e3d6000fd5b505050506040513d601f19601f82011682018060405250810190610b989190611f53565b50505050505050565b600080610bac610e5e565b90506000610bba8286610dd7565b905083811015610bff576040517f08c379a0000000000000000000000000000000000000000000000000000000008152600401610bf690612029565b60405180910390fd5b610c0c8286868403610e66565b60019250505092915050565b600080610c23610e5e565b9050610c308185856110bb565b600191505092915050565b600560009054906101000a900473ffffffffffffffffffffffffffffffffffffffff1681565b6000600560009054906101000a900473ffffffffffffffffffffffffffffffffffffffff1673ffffffffffffffffffffffffffffffffffffffff1663036fc598846040518263ffffffff1660e01b8152600401610cbe91906119cf565b600060405180830381865afa158015610cdb573d6000803e3d6000fd5b505050506040513d6000823e3d601f19601f82011682018060405250810190610d049190611cfd565b8281518110610d1657610d15611d46565b5b60200260200101516060015160ff16905092915050565b6060600560009054906101000a900473ffffffffffffffffffffffffffffffffffffffff1673ffffffffffffffffffffffffffffffffffffffff1663036fc598836040518263ffffffff1660e01b8152600401610d8a91906119cf565b600060405180830381865afa158015610da7573d6000803e3d6000fd5b505050506040513d6000823e3d601f19601f82011682018060405250810190610dd09190611cfd565b9050919050565b6000600160008473ffffffffffffffffffffffffffffffffffffffff1673ffffffffffffffffffffffffffffffffffffffff16815260200190815260200160002060008373ffffffffffffffffffffffffffffffffffffffff1673ffffffffffffffffffffffffffffffffffffffff16815260200190815260200160002054905092915050565b600033905090565b600073ffffffffffffffffffffffffffffffffffffffff168373ffffffffffffffffffffffffffffffffffffffff1603610ed5576040517f08c379a0000000000000000000000000000000000000000000000000000000008152600401610ecc906120bb565b60405180910390fd5b600073ffffffffffffffffffffffffffffffffffffffff168273ffffffffffffffffffffffffffffffffffffffff1603610f44576040517f08c379a0000000000000000000000000000000000000000000000000000000008152600401610f3b9061214d565b60405180910390fd5b80600160008573ffffffffffffffffffffffffffffffffffffffff1673ffffffffffffffffffffffffffffffffffffffff16815260200190815260200160002060008473ffffffffffffffffffffffffffffffffffffffff1673ffffffffffffffffffffffffffffffffffffffff168152602001908152602001600020819055508173ffffffffffffffffffffffffffffffffffffffff168373ffffffffffffffffffffffffffffffffffffffff167f8c5be1e5ebec7d5bd14f71427d1e84f3dd0314c0f7b2291e5b200ac8c7c3b92583604051611022919061151a565b60405180910390a3505050565b600061103b8484610dd7565b90507fffffffffffffffffffffffffffffffffffffffffffffffffffffffffffffffff81146110b557818110156110a7576040517f08c379a000000000000000000000000000000000000000000000000000000000815260040161109e906121b9565b60405180910390fd5b6110b48484848403610e66565b5b50505050565b600073ffffffffffffffffffffffffffffffffffffffff168373ffffffffffffffffffffffffffffffffffffffff160361112a576040517f08c379a00000000000000000000000000000000000000000000000000000000081526004016111219061224b565b60405180910390fd5b600073ffffffffffffffffffffffffffffffffffffffff168273ffffffffffffffffffffffffffffffffffffffff1603611199576040517f08c379a0000000000000000000000000000000000000000000000000000000008152600401611190906122dd565b60405180910390fd5b6111a4838383611331565b60008060008573ffffffffffffffffffffffffffffffffffffffff1673ffffffffffffffffffffffffffffffffffffffff1681526020019081526020016000205490508181101561122a576040517f08c379a00000000000000000000000000000000000000000000000000000000081526004016112219061236f565b60405180910390fd5b8181036000808673ffffffffffffffffffffffffffffffffffffffff1673ffffffffffffffffffffffffffffffffffffffff16815260200190815260200160002081905550816000808573ffffffffffffffffffffffffffffffffffffffff1673ffffffffffffffffffffffffffffffffffffffff168152602001908152602001600020600082825401925050819055508273ffffffffffffffffffffffffffffffffffffffff168473ffffffffffffffffffffffffffffffffffffffff167fddf252ad1be2c89b69c2b068fc378daa952ba7f163c4a11628f55a4df523b3ef84604051611318919061151a565b60405180910390a361132b848484611336565b50505050565b505050565b505050565b600081519050919050565b600082825260208201905092915050565b60005b8381101561137557808201518184015260208101905061135a565b60008484015250505050565b6000601f19601f8301169050919050565b600061139d8261133b565b6113a78185611346565b93506113b7818560208601611357565b6113c081611381565b840191505092915050565b600060208201905081810360008301526113e58184611392565b905092915050565b6000604051905090565b600080fd5b600080fd5b600073ffffffffffffffffffffffffffffffffffffffff82169050919050565b600061142c82611401565b9050919050565b61143c81611421565b811461144757600080fd5b50565b60008135905061145981611433565b92915050565b6000819050919050565b6114728161145f565b811461147d57600080fd5b50565b60008135905061148f81611469565b92915050565b600080604083850312156114ac576114ab6113f7565b5b60006114ba8582860161144a565b92505060206114cb85828601611480565b9150509250929050565b60008115159050919050565b6114ea816114d5565b82525050565b600060208201905061150560008301846114e1565b92915050565b6115148161145f565b82525050565b600060208201905061152f600083018461150b565b92915050565b6000806040838503121561154c5761154b6113f7565b5b600061155a85828601611480565b925050602061156b85828601611480565b9150509250929050565b60008060006060848603121561158e5761158d6113f7565b5b600061159c8682870161144a565b93505060206115ad8682870161144a565b92505060406115be86828701611480565b9150509250925092565b600060ff82169050919050565b6115de816115c8565b82525050565b60006020820190506115f960008301846115d5565b92915050565b600060208284031215611615576116146113f7565b5b60006116238482850161144a565b91505092915050565b6000819050919050565b600061165161164c61164784611401565b61162c565b611401565b9050919050565b600061166382611636565b9050919050565b600061167582611658565b9050919050565b6116858161166a565b82525050565b60006020820190506116a0600083018461167c565b92915050565b600081519050919050565b600082825260208201905092915050565b6000819050602082019050919050565b600082825260208201905092915050565b60006116ee8261133b565b6116f881856116d2565b9350611708818560208601611357565b61171181611381565b840191505092915050565b6117258161145f565b82525050565b611734816115c8565b82525050565b600060c083016000830151848203600086015261175782826116e3565b915050602083015161176c602086018261171c565b50604083015161177f604086018261171c565b506060830151611792606086018261172b565b5060808301516117a5608086018261172b565b5060a08301516117b860a086018261172b565b508091505092915050565b60006117cf838361173a565b905092915050565b6000602082019050919050565b60006117ef826116a6565b6117f981856116b1565b93508360208202850161180b856116c2565b8060005b85811015611847578484038952815161182885826117c3565b9450611833836117d7565b925060208a0199505060018101905061180f565b50829750879550505050505092915050565b6000602082019050818103600083015261187381846117e4565b905092915050565b60008060408385031215611892576118916113f7565b5b60006118a08582860161144a565b92505060206118b18582860161144a565b9150509250929050565b7f4e487b7100000000000000000000000000000000000000000000000000000000600052602260045260246000fd5b6000600282049050600182168061190257607f821691505b602082108103611915576119146118bb565b5b50919050565b7f4e487b7100000000000000000000000000000000000000000000000000000000600052601160045260246000fd5b60006119558261145f565b91506119608361145f565b92508282039050818111156119785761197761191b565b5b92915050565b60006119898261145f565b91506119948361145f565b92508282026119a28161145f565b915082820484148315176119b9576119b861191b565b5b5092915050565b6119c981611421565b82525050565b60006020820190506119e460008301846119c0565b92915050565b600080fd5b7f4e487b7100000000000000000000000000000000000000000000000000000000600052604160045260246000fd5b611a2782611381565b810181811067ffffffffffffffff82111715611a4657611a456119ef565b5b80604052505050565b6000611a596113ed565b9050611a658282611a1e565b919050565b600067ffffffffffffffff821115611a8557611a846119ef565b5b602082029050602081019050919050565b600080fd5b600080fd5b600080fd5b600080fd5b600067ffffffffffffffff821115611ac557611ac46119ef565b5b611ace82611381565b9050602081019050919050565b6000611aee611ae984611aaa565b611a4f565b905082815260208101848484011115611b0a57611b09611aa5565b5b611b15848285611357565b509392505050565b600082601f830112611b3257611b316119ea565b5b8151611b42848260208601611adb565b91505092915050565b600081519050611b5a81611469565b92915050565b611b69816115c8565b8114611b7457600080fd5b50565b600081519050611b8681611b60565b92915050565b600060c08284031215611ba257611ba1611a9b565b5b611bac60c0611a4f565b9050600082015167ffffffffffffffff811115611bcc57611bcb611aa0565b5b611bd884828501611b1d565b6000830152506020611bec84828501611b4b565b6020830152506040611c0084828501611b4b565b6040830152506060611c1484828501611b77565b6060830152506080611c2884828501611b77565b60808301525060a0611c3c84828501611b77565b60a08301525092915050565b6000611c5b611c5684611a6a565b611a4f565b90508083825260208201905060208402830185811115611c7e57611c7d611a96565b5b835b81811015611cc557805167ffffffffffffffff811115611ca357611ca26119ea565b5b808601611cb08982611b8c565b85526020850194505050602081019050611c80565b5050509392505050565b600082601f830112611ce457611ce36119ea565b5b8151611cf4848260208601611c48565b91505092915050565b600060208284031215611d1357611d126113f7565b5b600082015167ffffffffffffffff811115611d3157611d306113fc565b5b611d3d84828501611ccf565b91505092915050565b7f4e487b7100000000000000000000000000000000000000000000000000000000600052603260045260246000fd5b6000611d808261145f565b9150611d8b8361145f565b9250828201905080821115611da357611da261191b565b5b92915050565b600081519050611db881611433565b92915050565b600060208284031215611dd457611dd36113f7565b5b6000611de284828501611da9565b91505092915050565b7f4f6e6c79204e4654206f776e65722063616e20636c61696d2072657761726400600082015250565b6000611e21601f83611346565b9150611e2c82611deb565b602082019050919050565b60006020820190508181036000830152611e5081611e14565b9050919050565b7f43616e277420636c61696d207265776172647320796574000000000000000000600082015250565b6000611e8d601783611346565b9150611e9882611e57565b602082019050919050565b60006020820190508181036000830152611ebc81611e80565b9050919050565b6000819050919050565b6000611ee8611ee3611ede84611ec3565b61162c565b61145f565b9050919050565b611ef881611ecd565b82525050565b6000604082019050611f1360008301856119c0565b611f206020830184611eef565b9392505050565b611f30816114d5565b8114611f3b57600080fd5b50565b600081519050611f4d81611f27565b92915050565b600060208284031215611f6957611f686113f7565b5b6000611f7784828501611f3e565b91505092915050565b6000606082019050611f9560008301866119c0565b611fa260208301856119c0565b611faf604083018461150b565b949350505050565b7f45524332303a2064656372656173656420616c6c6f77616e63652062656c6f7760008201527f207a65726f000000000000000000000000000000000000000000000000000000602082015250565b6000612013602583611346565b915061201e82611fb7565b604082019050919050565b6000602082019050818103600083015261204281612006565b9050919050565b7f45524332303a20617070726f76652066726f6d20746865207a65726f2061646460008201527f7265737300000000000000000000000000000000000000000000000000000000602082015250565b60006120a5602483611346565b91506120b082612049565b604082019050919050565b600060208201905081810360008301526120d481612098565b9050919050565b7f45524332303a20617070726f766520746f20746865207a65726f20616464726560008201527f7373000000000000000000000000000000000000000000000000000000000000602082015250565b6000612137602283611346565b9150612142826120db565b604082019050919050565b600060208201905081810360008301526121668161212a565b9050919050565b7f45524332303a20696e73756666696369656e7420616c6c6f77616e6365000000600082015250565b60006121a3601d83611346565b91506121ae8261216d565b602082019050919050565b600060208201905081810360008301526121d281612196565b9050919050565b7f45524332303a207472616e736665722066726f6d20746865207a65726f20616460008201527f6472657373000000000000000000000000000000000000000000000000000000602082015250565b6000612235602583611346565b9150612240826121d9565b604082019050919050565b6000602082019050818103600083015261226481612228565b9050919050565b7f45524332303a207472616e7366657220746f20746865207a65726f206164647260008201527f6573730000000000000000000000000000000000000000000000000000000000602082015250565b60006122c7602383611346565b91506122d28261226b565b604082019050919050565b600060208201905081810360008301526122f6816122ba565b9050919050565b7f45524332303a207472616e7366657220616d6f756e742065786365656473206260008201527f616c616e63650000000000000000000000000000000000000000000000000000602082015250565b6000612359602683611346565b9150612364826122fd565b604082019050919050565b600060208201905081810360008301526123888161234c565b905091905056fea26469706673582212204a7b060c00fc1967c5c8eb8895a71e7578ce9bdb26a8610fe40d2cc7f4f1bddd64736f6c63430008110033",
  "immutableReferences": {},
  "source": "// SPDX-License-Identifier: MIT\r\n\r\npragma solidity ^0.8.0;\r\n\r\nimport \"@openzeppelin/contracts/token/ERC20/IERC20.sol\";\r\nimport \"@openzeppelin/contracts/token/ERC20/ERC20.sol\";\r\nimport \"./PlantNFT.sol\";\r\n\r\ncontract Reward is ERC20{\r\n    PlantNFT public plantNFT;\r\n    IERC20 erc20Token = IERC20(address(this));\r\n\r\n    mapping(address => mapping(uint256 => uint256)) public lastClaimTime;\r\n\r\n    uint256 public constant CLAIM_COOLDOWN = 30 seconds;\r\n\r\n    constructor(address _PlantNFTAddress) ERC20(\"TST\", \"TST\"){\r\n        _mint(address(this), 1000 ether);\r\n        plantNFT = PlantNFT(_PlantNFTAddress);\r\n        \r\n    }\r\n\r\n    function getPlants(address _owner) public view returns (PlantNFT.Plant[] memory) {\r\n        return plantNFT.getOwnerPlants(_owner);\r\n    }\r\n\r\n    function getLevel(address _owner, uint256 _plantId) public view returns(uint256){\r\n\r\n        return plantNFT.getOwnerPlants(_owner)[_plantId].level;\r\n    }\r\n\r\n    function getRarity(address _owner, uint256 _plantId) public view returns(uint256){\r\n        \r\n        return plantNFT.getOwnerPlants(_owner)[_plantId].rarity;\r\n    }\r\n    \r\n\r\n    function claimRewards(address _owner, uint256 _tokenId) external {\r\n        require(plantNFT.ownerOf(_tokenId) == msg.sender, \"Only NFT owner can claim reward\");\r\n\r\n        uint256 lastClaim = lastClaimTime[msg.sender][_tokenId];\r\n        require(block.timestamp - lastClaim >= CLAIM_COOLDOWN, \"Can't claim rewards yet\");\r\n\r\n        erc20Token.approve(address(this), 1000 ether);\r\n        uint256 _rarity = getRarity(_owner, _tokenId);\r\n        uint256 _level = getLevel(_owner, _tokenId);\r\n        uint256 reward = calculateReward(_rarity, _level);\r\n        \r\n        lastClaimTime[msg.sender][_tokenId] = block.timestamp;\r\n        \r\n        this.transferFrom(address(this),msg.sender, reward);\r\n        // this.transfer(msg.sender, _amount);\r\n    }\r\n\r\n    \r\n\r\n    function calculateReward(uint256 _rarity, uint256 _level) public pure returns (uint256) {\r\n        uint256 reward = _level *_rarity  ;\r\n        return reward;\r\n    }\r\n\r\n    function howLongCanClaim(address _owner, uint256 _tokenId) public view returns(uint256){\r\n        uint256 lastClaim = lastClaimTime[_owner][_tokenId];\r\n        return block.timestamp - lastClaim;\r\n    }\r\n    \r\n    function ReturnBalance(address _owner) public view returns(uint256){\r\n        return balanceOf(_owner);\r\n    }\r\n}\r\n\r\n\r\n",
  "sourcePath": "E:\\FYP\\TreesTogether React\\nft_game\\contracts\\Reward.sol",
  "compiler": {
    "name": "solc",
    "version": "0.8.17+commit.8df45f5f.Emscripten.clang"
  },
  "schemaVersion": "3.4.10",
  "updatedAt": "2023-04-04T19:36:17.861Z",
  "networkType": "ethereum",
  "devdoc": {
    "kind": "dev",
    "methods": {
      "allowance(address,address)": {
        "details": "See {IERC20-allowance}."
      },
      "approve(address,uint256)": {
        "details": "See {IERC20-approve}. NOTE: If `amount` is the maximum `uint256`, the allowance is not updated on `transferFrom`. This is semantically equivalent to an infinite approval. Requirements: - `spender` cannot be the zero address."
      },
      "balanceOf(address)": {
        "details": "See {IERC20-balanceOf}."
      },
      "decimals()": {
        "details": "Returns the number of decimals used to get its user representation. For example, if `decimals` equals `2`, a balance of `505` tokens should be displayed to a user as `5.05` (`505 / 10 ** 2`). Tokens usually opt for a value of 18, imitating the relationship between Ether and Wei. This is the value {ERC20} uses, unless this function is overridden; NOTE: This information is only used for _display_ purposes: it in no way affects any of the arithmetic of the contract, including {IERC20-balanceOf} and {IERC20-transfer}."
      },
      "decreaseAllowance(address,uint256)": {
        "details": "Atomically decreases the allowance granted to `spender` by the caller. This is an alternative to {approve} that can be used as a mitigation for problems described in {IERC20-approve}. Emits an {Approval} event indicating the updated allowance. Requirements: - `spender` cannot be the zero address. - `spender` must have allowance for the caller of at least `subtractedValue`."
      },
      "increaseAllowance(address,uint256)": {
        "details": "Atomically increases the allowance granted to `spender` by the caller. This is an alternative to {approve} that can be used as a mitigation for problems described in {IERC20-approve}. Emits an {Approval} event indicating the updated allowance. Requirements: - `spender` cannot be the zero address."
      },
      "name()": {
        "details": "Returns the name of the token."
      },
      "symbol()": {
        "details": "Returns the symbol of the token, usually a shorter version of the name."
      },
      "totalSupply()": {
        "details": "See {IERC20-totalSupply}."
      },
      "transfer(address,uint256)": {
        "details": "See {IERC20-transfer}. Requirements: - `to` cannot be the zero address. - the caller must have a balance of at least `amount`."
      },
      "transferFrom(address,address,uint256)": {
        "details": "See {IERC20-transferFrom}. Emits an {Approval} event indicating the updated allowance. This is not required by the EIP. See the note at the beginning of {ERC20}. NOTE: Does not update the allowance if the current allowance is the maximum `uint256`. Requirements: - `from` and `to` cannot be the zero address. - `from` must have a balance of at least `amount`. - the caller must have allowance for ``from``'s tokens of at least `amount`."
      }
    },
    "version": 1
  },
  "userdoc": {
    "kind": "user",
    "methods": {},
    "version": 1
  }
}